{
  "address": "0x32565992852D07Ceb3Da9DDa1A2ccC6B7941d3B8",
  "abi": [
    {
      "inputs": [
        {
          "internalType": "address",
          "name": "_mirror",
          "type": "address"
        }
      ],
      "stateMutability": "nonpayable",
      "type": "constructor"
    },
    {
      "inputs": [],
      "name": "mirror",
      "outputs": [
        {
          "internalType": "contract IBtcMirror",
          "name": "",
          "type": "address"
        }
      ],
      "stateMutability": "view",
      "type": "function"
    },
    {
      "inputs": [
        {
          "internalType": "uint256",
          "name": "minConfirmations",
          "type": "uint256"
        },
        {
          "internalType": "uint256",
          "name": "blockNum",
          "type": "uint256"
        },
        {
          "components": [
            {
              "internalType": "bytes",
              "name": "blockHeader",
              "type": "bytes"
            },
            {
              "internalType": "uint256",
              "name": "txIndex",
              "type": "uint256"
            },
            {
              "internalType": "bytes",
              "name": "txMerkleProof",
              "type": "bytes"
            },
            {
              "internalType": "bytes",
              "name": "rawTx",
              "type": "bytes"
            }
          ],
          "internalType": "struct TxInclusionProof",
          "name": "inclusionProof",
          "type": "tuple"
        }
      ],
      "name": "verifyInclusion",
      "outputs": [
        {
          "internalType": "bool",
          "name": "",
          "type": "bool"
        }
      ],
      "stateMutability": "view",
      "type": "function"
    },
    {
      "inputs": [
        {
          "internalType": "uint256",
          "name": "minConfirmations",
          "type": "uint256"
        },
        {
          "internalType": "uint256",
          "name": "blockNum",
          "type": "uint256"
        },
        {
          "components": [
            {
              "internalType": "bytes",
              "name": "blockHeader",
              "type": "bytes"
            },
            {
              "internalType": "bytes32",
              "name": "txId",
              "type": "bytes32"
            },
            {
              "internalType": "uint256",
              "name": "txIndex",
              "type": "uint256"
            },
            {
              "internalType": "bytes",
              "name": "txMerkleProof",
              "type": "bytes"
            },
            {
              "internalType": "bytes",
              "name": "rawTx",
              "type": "bytes"
            }
          ],
          "internalType": "struct BtcTxProof",
          "name": "inclusionProof",
          "type": "tuple"
        },
        {
          "internalType": "uint256",
          "name": "txOutIx",
          "type": "uint256"
        },
        {
          "internalType": "bytes32",
          "name": "destScriptHash",
          "type": "bytes32"
        },
        {
          "internalType": "uint256",
          "name": "amountSats",
          "type": "uint256"
        },
        {
          "internalType": "bool",
          "name": "checkOpReturn",
          "type": "bool"
        },
        {
          "internalType": "uint256",
          "name": "opReturnOutIx",
          "type": "uint256"
        },
        {
          "internalType": "bytes32",
          "name": "opReturnData",
          "type": "bytes32"
        }
      ],
      "name": "verifyPayment",
      "outputs": [
        {
          "internalType": "bool",
          "name": "",
          "type": "bool"
        }
      ],
      "stateMutability": "view",
      "type": "function"
    }
  ],
  "transactionHash": "0x8a1b8bfd8f22e16776b4c1a978d131de3c314ea86788784d3c0067381ce569e2",
  "args": [
    "0xBd83dFEa0bCDBdE65b80Cee727eD7727575db1E9"
  ],
  "numDeployments": 1,
  "solcInputHash": "280c21bd7d426af96f5036d79f7269bf",
  "bytecode": "0x60a03461008057601f61156738819003918201601f19168301916001600160401b038311848410176100855780849260209460405283398101031261008057516001600160a01b03811690819003610080576080526040516114cb908161009c823960805181818160a5015281816101bb0152818161030b01526105910152f35b600080fd5b634e487b7160e01b600052604160045260246000fdfe6080604052600436101561001257600080fd5b60003560e01c8063444d9172146101a857806354fa54411461004257638d33873a1461003d57600080fd5b6101ed565b346101a35760603660031901126101a35760243560043560443567ffffffffffffffff81116101a3578060040191608060031983360301126101a3576100889084610579565b604051637741562f60e11b815260048101939093526020836024817f00000000000000000000000000000000000000000000000000000000000000006001600160a01b03165afa90811561019e576101036101589261015e9560009161016f575b506100fd6100f7868061067b565b906108a9565b146106ae565b61012a610125610120610119606485018761067b565b369161096a565b611192565b611079565b61015061014061013a868061067b565b906109ff565b946044602485013594019061067b565b929091610a2c565b146106f0565b6040516001815280602081015b0390f35b610191915060203d602011610197575b610189818361029e565b8101906102c0565b866100e9565b503d61017f565b6102cf565b600080fd5b346101a35760003660031901126101a3577f00000000000000000000000000000000000000000000000000000000000000006001600160a01b03166080908152602090f35b346101a3576101203660031901126101a35760243560043560443567ffffffffffffffff81116101a35760a060031982360301126101a3576064359260c43560a43560843582151583036101a35761016b966102559660e435956101043597600401916102db565b60405190151581529081906020820190565b634e487b7160e01b600052604160045260246000fd5b60a0810190811067ffffffffffffffff82111761029957604052565b610267565b90601f8019910116810190811067ffffffffffffffff82111761029957604052565b908160209103126101a3575190565b6040513d6000823e3d90fd5b6102ee9098979695939892919283610579565b604051637741562f60e11b815260048101929092526020826024817f00000000000000000000000000000000000000000000000000000000000000006001600160a01b03165afa91821561019e576103c16060926103636103d0956103c794600091610475575b506100fd6100f7848061067b565b61037061013a828061067b565b90610395602082013592610158604084013561038e8986018661067b565b9187610a2c565b6103bc60808201926103b66101256101206103b0878761067b565b906109b1565b1461073c565b61067b565b90610cf2565b0196875161078f565b51602060006103e96040840151604051918280926107a8565b039060025afa1561019e5761041f67ffffffffffffffff9161041161042695600051146107d3565b5167ffffffffffffffff1690565b1614610811565b610433575b505050600190565b6104446104679161046d945161078f565b5163ffffffff604061045d602084015163ffffffff1690565b9201519116611016565b1461084f565b38808061042b565b61048e915060203d60201161019757610189818361029e565b38610355565b634e487b7160e01b600052601160045260246000fd5b90600182018092116104b857565b610494565b90602082018092116104b857565b90600482018092116104b857565b90600882018092116104b857565b90600982018092116104b857565b90600582018092116104b857565b90600382018092116104b857565b919082018092116104b857565b1561052557565b60405162461bcd60e51b815260206004820152602660248201527f4e6f7420656e6f75676820426974636f696e20626c6f636b20636f6e6669726d6044820152656174696f6e7360d01b6064820152608490fd5b60405163e875aa5d60e01b81529091906020816004817f00000000000000000000000000000000000000000000000000000000000000006001600160a01b03165afa90811561019e57600091610649575b508281106105f1576105ef926105e26105e8926104aa565b92610511565b111561051e565b565b60405162461bcd60e51b815260206004820152602a60248201527f426974636f696e204d6972726f7220646f65736e27742068617665207468617460448201526908189b1bd8dac81e595d60b21b6064820152608490fd5b90506020813d602011610673575b816106646020938361029e565b810103126101a35751386105ca565b3d9150610657565b903590601e19813603018212156101a3570180359067ffffffffffffffff82116101a3576020019181360383136101a357565b156106b557565b60405162461bcd60e51b8152602060048201526013602482015272084d8dec6d640d0c2e6d040dad2e6dac2e8c6d606b1b6044820152606490fd5b156106f757565b60405162461bcd60e51b815260206004820152601760248201527f5478206d65726b6c6520726f6f74206d69736d617463680000000000000000006044820152606490fd5b1561074357565b60405162461bcd60e51b815260206004820152600e60248201526d0a8f040928840dad2e6dac2e8c6d60931b6044820152606490fd5b634e487b7160e01b600052603260045260246000fd5b80518210156107a35760209160051b010190565b610779565b9081519160005b8381106107c0575050016000815290565b80602080928401015181850152016107af565b156107da57565b60405162461bcd60e51b815260206004820152600f60248201526e0a6c6e4d2e0e840dad2e6dac2e8c6d608b1b6044820152606490fd5b1561081857565b60405162461bcd60e51b815260206004820152600f60248201526e082dadeeadce840dad2e6dac2e8c6d608b1b6044820152606490fd5b1561085657565b60405162461bcd60e51b815260206004820152601760248201527f4f505f52455455524e2064617461206d69736d617463680000000000000000006044820152606490fd5b908092918237016000815290565b60508203610925576020916000916108c66040518093819361089b565b039060025afa1561019e576020600061090c6108f2610900835160405192839187830160209181520190565b03601f19810183528261029e565b604051918280926107a8565b039060025afa1561019e57610922600051611079565b90565b60405162461bcd60e51b815260206004820152601b60248201527f496e76616c696420626c6f636b20686561646572206c656e67746800000000006044820152606490fd5b92919267ffffffffffffffff82116102995760405191610994601f8201601f19166020018461029e565b8294818452818301116101a3578281602093846000960137010152565b61092291369161096a565b906004116101a35790600490565b909392938483116101a35784116101a3578101920390565b3590602081106109f0575090565b6000199060200360031b1b1690565b90605081036101a3576044116101a3576024013590565b908160051b91808304602014901517156104b857565b610a3890929192611079565b92610a438160051c90565b916000915b838310610a5757505050505090565b9091929394610ac5600191610a93610125610a8d610a7489610a16565b610a85610a808b6104aa565b610a16565b90888a6109ca565b906109e2565b90888416610acf57604080516020810192909252810191909152610abe9061012081606081016108f2565b9660011c90565b9493019190610a48565b604080516020810193909352820152610abe9061012081606081016108f2565b60405190610afc8261027d565b6000608083828152826020820152606060408201526060808201520152565b356001600160e01b0319811692919060048210610b36575050565b6001600160e01b031960049290920360031b82901b16169150565b67ffffffffffffffff81116102995760051b60200190565b60405190610b768261027d565b60006080838281528260208201528260408201528260608201520152565b90610b9e82610b51565b610bab604051918261029e565b8281528092610bbc601f1991610b51565b019060005b828110610bcd57505050565b602090610bd8610b69565b82828501015201610bc1565b604051906060820182811067ffffffffffffffff82111761029957604052606060408360008152600060208201520152565b90610c2082610b51565b610c2d604051918261029e565b8281528092610c3e601f1991610b51565b019060005b828110610c4f57505050565b602090610c5a610be4565b82828501015201610c43565b356001600160c01b0319811692919060088210610c81575050565b6001600160c01b031960089290920360031b82901b16169150565b15610ca357565b60405162461bcd60e51b815260206004820152602160248201527f53637269707473206f76657220333420627974657320756e737570706f7274656044820152601960fa1b6064820152608490fd5b90610cfb610aef565b9163ffffffff610d5d610d4d610d23610d1d610d1787876109bc565b90610b1b565b60e01c90565b600881811b63ff00ff001691901c62ff00ff1617601081811b63ffff00001691901c61ffff161790565b63ffffffff166020860181905290565b166001811090811561100b575b5061100657610d798282611223565b90610d8381610b94565b6040860190815260005b828110610ec257505050610da2908383611355565b9190610dad81610c16565b6060860190815260005b828110610e045750505090610df3610de6610d23610d1d610d17610df8968689610de0826104cb565b926109ca565b63ffffffff166080860152565b6104cb565b03610922576001815290565b610e0c610be4565b94610e16816104d9565b610e22908289886109ca565b610e2b91610c66565b60c01c610e379061141b565b67ffffffffffffffff168652610e4c906104d9565b610e57908786611355565b90610e656022821115610c9c565b63ffffffff81166020880152610e7b8183610511565b610e8790838a896109ca565b3690610e929261096a565b6040880152610ea091610511565b9481835191610eaf828461078f565b52610eb99161078f565b50600101610db7565b610eca610b69565b93610ed4816104bd565b610ee0908289896109ca565b610ee9916109e2565b610ef290611079565b8552610efd906104bd565b610f06816104cb565b610f12908289896109ca565b610f1b91610b1b565b60e01c610f4c90600881811b63ff00ff001691901c62ff00ff1617601081811b63ffff00001691901c61ffff161790565b63ffffffff166020860152610f60906104cb565b610f6b908787611355565b63ffffffff8216606087015290610f8191610511565b610f8a816104cb565b610f96908289896109ca565b610f9f91610b1b565b60e01c610fd090600881811b63ff00ff001691901c62ff00ff1617601081811b63ffff00001691901c61ffff161790565b63ffffffff166040860152610fe4906104cb565b9381835191610ff3828461078f565b52610ffd9161078f565b50600101610d8d565b505090565b600291501138610d6a565b6021190161104d578051156107a35760208101516001600160f81b031916603560f91b14801590611053575b61104d576022015190565b50600090565b508051600110156107a35760218101516001600160f81b031916600160fd1b1415611042565b8060081c9060081b907cff000000ff000000ff000000ff000000ff000000ff000000ff000000ff7dff000000ff000000ff000000ff000000ff000000ff000000ff000000ff007fff000000ff000000ff000000ff000000ff000000ff000000ff000000ff00000084167eff000000ff000000ff000000ff000000ff000000ff000000ff000000ff000084161760101c931691161760101b177bffffffff00000000ffffffff00000000ffffffff00000000ffffffff7fffffffff00000000ffffffff00000000ffffffff00000000ffffffff00000000821660201c911660201b1777ffffffffffffffff0000000000000000ffffffffffffffff8019821660401c911660401b1761118e8160801c9160801b90565b1790565b60006111a6602092604051918280926107a8565b039060025afa1561019e57602060006111d08151604051908482015283815261090060408261029e565b039060025afa1561019e5760005190565b908210156107a3570190565b356001600160f01b0319811692919060028210611208575050565b6001600160f01b031960029290920360031b82901b16169150565b60ff61124b611245611237600486866111e1565b356001600160f81b03191690565b60f81c90565b169160fd8310156112635750509061092260046104aa565b909160fd81036112c557506112a061129a6112946112ba946112b39461128960046104aa565b90610de06004610503565b906111ed565b60f01c90565b60ff61ff008260081b169160081c161790565b61ffff1690565b906109226004610503565b60fe0361130657610d23610d1d610d176112fb946112f2946112e760046104aa565b90610de060046104f5565b63ffffffff1690565b9061092260046104f5565b61133861133261132c61134a9461133d9461132160046104aa565b90610de060046104e7565b90610c66565b60c01c90565b61141b565b67ffffffffffffffff1690565b9061092260046104e7565b9092919260ff61136c6112456112378785876111e1565b169060fd82101561138357506109229150926104aa565b9060fd81036113ba57506112b36112a061129a611294610922956113b4956113aa8a6104aa565b90610de08b610503565b92610503565b60fe036113ee576112f2610d23610d1d610d17610922956113e8956113de8a6104aa565b90610de08b6104f5565b926104f5565b61133d61133861133261132c610922956114159561140b8a6104aa565b90610de08b6104e7565b926104e7565b67ffffffffffff000067ff00ff00ff00ff0066ff00ff00ff00ff8360081c169260081b169165ffff0000ffff65ffff0000ff0065ffffffffffff67ffff0000ffff0000861666ff0000ffff000085161760101c16941691161760101b161767ffffffff0000000063ffffffff8260201c169160201b16179056fea2646970667358221220029b80a12ccd6e7fa53d6863eede5027574dadce9572eb9df9116b5f1d2b719d64736f6c634300081e0033",
  "devdoc": {
    "kind": "dev",
    "methods": {
      "verifyInclusion(uint256,uint256,(bytes,uint256,bytes,bytes))": {
        "params": {
          "blockNum": "The block number to verify inclusion in.",
          "inclusionProof": "The proof of inclusion of the transaction in the block.",
          "minConfirmations": "The minimum number of confirmations required for the block to be considered valid."
        },
        "returns": {
          "_0": "True if the transaction is included in the block, false otherwise."
        }
      }
    },
    "version": 1
  },
  "userdoc": {
    "kind": "user",
    "methods": {
      "mirror()": {
        "notice": "Returns the underlying mirror associated with this verifier."
      },
      "verifyInclusion(uint256,uint256,(bytes,uint256,bytes,bytes))": {
        "notice": "Verifies that the a transaction is included in a given block."
      },
      "verifyPayment(uint256,uint256,(bytes,bytes32,uint256,bytes,bytes),uint256,bytes32,uint256,bool,uint256,bytes32)": {
        "notice": "Verifies that the a transaction cleared, paying a given amount to         a given address. Specifically, verifies a proof that the tx was         in block N, and that block N has at least M confirmations.         Also verifies that if checkOpReturn is true, the transaction has an OP_RETURN output         with the given data, and that the output is at the given index."
      }
    },
    "version": 1
  },
  "storageLayout": {
    "storage": [],
    "types": null
  }
}