{"abi":[{"type":"constructor","inputs":[{"name":"_blockHeight","type":"uint256","internalType":"uint256"},{"name":"_blockHash","type":"bytes32","internalType":"bytes32"},{"name":"_blockTime","type":"uint256","internalType":"uint256"},{"name":"_expectedTarget","type":"uint256","internalType":"uint256"},{"name":"_isTestnet","type":"bool","internalType":"bool"}],"stateMutability":"nonpayable"},{"type":"function","name":"getBlockHash","inputs":[{"name":"number","type":"uint256","internalType":"uint256"}],"outputs":[{"name":"","type":"bytes32","internalType":"bytes32"}],"stateMutability":"view"},{"type":"function","name":"getLatestBlockHeight","inputs":[],"outputs":[{"name":"","type":"uint256","internalType":"uint256"}],"stateMutability":"view"},{"type":"function","name":"getLatestBlockTime","inputs":[],"outputs":[{"name":"","type":"uint256","internalType":"uint256"}],"stateMutability":"view"},{"type":"function","name":"getTarget","inputs":[{"name":"bits","type":"bytes32","internalType":"bytes32"}],"outputs":[{"name":"","type":"uint256","internalType":"uint256"}],"stateMutability":"pure"},{"type":"function","name":"isTestnet","inputs":[],"outputs":[{"name":"","type":"bool","internalType":"bool"}],"stateMutability":"view"},{"type":"function","name":"longestReorg","inputs":[],"outputs":[{"name":"","type":"uint256","internalType":"uint256"}],"stateMutability":"view"},{"type":"function","name":"periodToTarget","inputs":[{"name":"","type":"uint256","internalType":"uint256"}],"outputs":[{"name":"","type":"uint256","internalType":"uint256"}],"stateMutability":"view"},{"type":"function","name":"submit","inputs":[{"name":"blockHeight","type":"uint256","internalType":"uint256"},{"name":"blockHeaders","type":"bytes","internalType":"bytes"}],"outputs":[],"stateMutability":"nonpayable"},{"type":"event","name":"NewTip","inputs":[{"name":"blockHeight","type":"uint256","indexed":false,"internalType":"uint256"},{"name":"blockTime","type":"uint256","indexed":false,"internalType":"uint256"},{"name":"blockHash","type":"bytes32","indexed":false,"internalType":"bytes32"}],"anonymous":false},{"type":"event","name":"NewTotalDifficultySinceRetarget","inputs":[{"name":"blockHeight","type":"uint256","indexed":false,"internalType":"uint256"},{"name":"totalDifficulty","type":"uint256","indexed":false,"internalType":"uint256"},{"name":"newDifficultyBits","type":"uint32","indexed":false,"internalType":"uint32"}],"anonymous":false},{"type":"event","name":"Reorg","inputs":[{"name":"count","type":"uint256","indexed":false,"internalType":"uint256"},{"name":"oldTip","type":"bytes32","indexed":false,"internalType":"bytes32"},{"name":"newTip","type":"bytes32","indexed":false,"internalType":"bytes32"}],"anonymous":false}],"bytecode":{"object":"0x60a060405234801561000f575f5ffd5b50604051611a97380380611a978339818101604052810190610031919061012c565b8360025f8781526020019081526020015f2081905550845f81905550826001819055508160035f6107e08861006691906101d0565b81526020019081526020015f20819055508015156080811515815250505050505050610200565b5f5ffd5b5f819050919050565b6100a381610091565b81146100ad575f5ffd5b50565b5f815190506100be8161009a565b92915050565b5f819050919050565b6100d6816100c4565b81146100e0575f5ffd5b50565b5f815190506100f1816100cd565b92915050565b5f8115159050919050565b61010b816100f7565b8114610115575f5ffd5b50565b5f8151905061012681610102565b92915050565b5f5f5f5f5f60a086880312156101455761014461008d565b5b5f610152888289016100b0565b9550506020610163888289016100e3565b9450506040610174888289016100b0565b9350506060610185888289016100b0565b925050608061019688828901610118565b9150509295509295909350565b7f4e487b71000000000000000000000000000000000000000000000000000000005f52601260045260245ffd5b5f6101da82610091565b91506101e583610091565b9250826101f5576101f46101a3565b5b828204905092915050565b6080516118716102265f395f81816101d401528181610ae10152610b6901526118715ff3fe608060405234801561000f575f5ffd5b5060043610610086575f3560e01c8063a9c2d7ab11610059578063a9c2d7ab14610114578063d1a2eab214610144578063e875aa5d14610160578063ee82ac5e1461017e57610086565b80630d2b28601461008a57806332c25832146100ba57806376e92c84146100d857806392108c86146100f6575b5f5ffd5b6100a4600480360381019061009f9190610d62565b6101ae565b6040516100b19190610d9c565b60405180910390f35b6100c26101c3565b6040516100cf9190610d9c565b60405180910390f35b6100e06101cc565b6040516100ed9190610d9c565b60405180910390f35b6100fe6101d2565b60405161010b9190610dcf565b60405180910390f35b61012e60048036038101906101299190610e1b565b6101f6565b60405161013b9190610d9c565b60405180910390f35b61015e60048036038101906101599190610ea7565b6102ae565b005b610168610768565b6040516101759190610d9c565b60405180910390f35b61019860048036038101906101939190610d62565b610770565b6040516101a59190610f13565b60405180910390f35b6003602052805f5260405f205f915090505481565b5f600154905090565b60045481565b7f000000000000000000000000000000000000000000000000000000000000000081565b5f5f8260036020811061020c5761020b610f2c565b5b1a60f81b60f81c60ff1690505f8360026020811061022d5761022c610f2c565b5b1a60f81b60f81c60ff1690508360016020811061024d5761024c610f2c565b5b1a60f81b60f81c60ff16600882901b179050835f6020811061027257610271610f2c565b5b1a60f81b60f81c60ff16600882901b1790505f6003836102929190610f86565b600861029e9190610fb9565b82901b9050809350505050919050565b5f6050838390506102bf9190611027565b9050828290506050826102d29190610fb9565b14610312576040517f08c379a0000000000000000000000000000000000000000000000000000000008152600401610309906110b1565b60405180910390fd5b5f8111610354576040517f08c379a000000000000000000000000000000000000000000000000000000000815260040161034b90611119565b60405180910390fd5b5f6107e05f546103649190611027565b90505f600183876103759190611137565b61037f9190610f86565b90505f6107e0826103909190611027565b9050828110156103d5576040517f08c379a00000000000000000000000000000000000000000000000000000000081526004016103cc906111b4565b60405180910390fd5b5f6107e06001896103e69190610f86565b6103f09190611027565b90505f5f9050818311156104455760018261040b9190611137565b831461041a576104196111d2565b5b8483036104335761042c855f5461078a565b9050610444565b818514610443576104426111d2565b5b5b5b5f6104505f54610770565b90505f5f90505f5f90505b888110156104cc575f818d6104709190611137565b90506104b1818d8d8560506104859190610fb9565b906001876104939190611137565b605061049f9190610fb9565b926104ac93929190611207565b61082e565b836104bc9190611137565b925050808060010191505061045b565b508385111561060a57365f8b8b60018c6104e69190610f86565b60506104f29190610fb9565b90809261050193929190611207565b915091505f6105308383604890604c9261051d93929190611207565b906105289190611282565b60e01c610bef565b90505f61053d898b61078a565b9050868111610581576040517f08c379a00000000000000000000000000000000000000000000000000000000081526004016105789061132a565b60405180910390fd5b5f60018b61058f9190611137565b90505b5f5481116105c5575f5f1b60025f8381526020019081526020015f208190555080806105bd90611348565b915050610592565b507f452ea9c9e4985cb8cc7199131fd292d600dae30f407e749b6ca7e7f4c7690cf78a82846040516105f9939291906113ad565b60405180910390a15050505061066e565b86851461061a576106196111d2565b5b83851461062a576106296111d2565b5b5f54861161066d576040517f08c379a00000000000000000000000000000000000000000000000000000000081526004016106649061142c565b60405180910390fd5b5b855f819055505f600c8b8b90506106859190610f86565b90505f8b8b83906004856106999190611137565b926106a693929190611207565b906106b19190611282565b60e01c90506106bf81610bef565b63ffffffff166001819055505f6106d589610770565b90507f11cedc7f83a9a6f5228b8fcd3c3c0ae686a51e2e04ea46923e3491a32a4bbaa8896001548360405161070c9392919061144a565b60405180910390a15f841115610758577fea952b3dfe43a8e680ea58302c72429cd78ef0537abeaf75797ef9bb0496cefc84868360405161074f9392919061147f565b60405180910390a15b5050505050505050505050505050565b5f5f54905090565b5f60025f8381526020019081526020015f20549050919050565b5f5f60035f8581526020019081526020015f205490505f817fffffffffffffffffffffffffffffffffffffffffffffffffffffffffffffffff6107cd9190611027565b90505f60016107e0876107e09190610fb9565b866107eb9190610f86565b6107f59190611137565b90506001811015801561080a57506107e08111155b610817576108166111d2565b5b81816108239190610fb9565b935050505092915050565b5f60508383905014610843576108426111d2565b5b5f610909600280868660405161085a9291906114f0565b602060405180830381855afa158015610875573d5f5f3e3d5ffd5b5050506040513d601f19601f82011682018060405250810190610898919061151c565b6040516020016108a89190610f13565b6040516020818303038152906040526040516108c4919061158f565b602060405180830381855afa1580156108df573d5f5f3e3d5ffd5b5050506040513d601f19601f82011682018060405250810190610902919061151c565b5f1c610c35565b90505f60025f8781526020019081526020015f205490505f825f1b90505f5f1b82141580156109385750808214155b1561094257600193505b8060025f8981526020019081526020015f20819055505f610982878760049060249261097093929190611207565b9061097b91906115a5565b5f1c610c35565b5f1b905060025f60018a6109969190610f86565b81526020019081526020015f205481146109e5576040517f08c379a00000000000000000000000000000000000000000000000000000000081526004016109dc9061164d565b60405180910390fd5b5f5f1b8103610a29576040517f08c379a0000000000000000000000000000000000000000000000000000000008152600401610a20906116b5565b60405180910390fd5b5f8787604890604c92610a3e93929190611207565b90610a4991906115a5565b90505f610a55826101f6565b9050808610610a99576040517f08c379a0000000000000000000000000000000000000000000000000000000008152600401610a909061171d565b60405180910390fd5b5f6107e08b610aa89190611027565b90505f6107e08c610ab9919061173b565b03610b67575f60035f600184610acf9190610f86565b81526020019081526020015f205490507f0000000000000000000000000000000000000000000000000000000000000000610b4b5780600284901c10610b4a576040517f08c379a0000000000000000000000000000000000000000000000000000000008152600401610b41906117b5565b60405180910390fd5b5b8260035f8481526020019081526020015f208190555050610be1565b7f0000000000000000000000000000000000000000000000000000000000000000610be05760035f8281526020019081526020015f20548214610bdf576040517f08c379a0000000000000000000000000000000000000000000000000000000008152600401610bd69061181d565b60405180910390fd5b5b5b505050505050509392505050565b5f819050600862ff00ff821663ffffffff16901b600863ff00ff00831663ffffffff16901c17905060108163ffffffff16901b60108263ffffffff16901c179050919050565b5f8190505f7fff00ff00ff00ff00ff00ff00ff00ff00ff00ff00ff00ff00ff00ff00ff00ff009050600881198316901b6008828416901c1791505f7fffff0000ffff0000ffff0000ffff0000ffff0000ffff0000ffff0000ffff00009050601081198416901b6010828516901c1792505f7fffffffff00000000ffffffff00000000ffffffff00000000ffffffff000000009050602081198516901b6020828616901c1793505f7fffffffffffffffff0000000000000000ffffffffffffffff00000000000000009050604081198616901b6040828716901c179450608085901b608086901c17945050505050919050565b5f5ffd5b5f5ffd5b5f819050919050565b610d4181610d2f565b8114610d4b575f5ffd5b50565b5f81359050610d5c81610d38565b92915050565b5f60208284031215610d7757610d76610d27565b5b5f610d8484828501610d4e565b91505092915050565b610d9681610d2f565b82525050565b5f602082019050610daf5f830184610d8d565b92915050565b5f8115159050919050565b610dc981610db5565b82525050565b5f602082019050610de25f830184610dc0565b92915050565b5f819050919050565b610dfa81610de8565b8114610e04575f5ffd5b50565b5f81359050610e1581610df1565b92915050565b5f60208284031215610e3057610e2f610d27565b5b5f610e3d84828501610e07565b91505092915050565b5f5ffd5b5f5ffd5b5f5ffd5b5f5f83601f840112610e6757610e66610e46565b5b8235905067ffffffffffffffff811115610e8457610e83610e4a565b5b602083019150836001820283011115610ea057610e9f610e4e565b5b9250929050565b5f5f5f60408486031215610ebe57610ebd610d27565b5b5f610ecb86828701610d4e565b935050602084013567ffffffffffffffff811115610eec57610eeb610d2b565b5b610ef886828701610e52565b92509250509250925092565b610f0d81610de8565b82525050565b5f602082019050610f265f830184610f04565b92915050565b7f4e487b71000000000000000000000000000000000000000000000000000000005f52603260045260245ffd5b7f4e487b71000000000000000000000000000000000000000000000000000000005f52601160045260245ffd5b5f610f9082610d2f565b9150610f9b83610d2f565b9250828203905081811115610fb357610fb2610f59565b5b92915050565b5f610fc382610d2f565b9150610fce83610d2f565b9250828202610fdc81610d2f565b91508282048414831517610ff357610ff2610f59565b5b5092915050565b7f4e487b71000000000000000000000000000000000000000000000000000000005f52601260045260245ffd5b5f61103182610d2f565b915061103c83610d2f565b92508261104c5761104b610ffa565b5b828204905092915050565b5f82825260208201905092915050565b7f77726f6e6720686561646572206c656e677468000000000000000000000000005f82015250565b5f61109b601383611057565b91506110a682611067565b602082019050919050565b5f6020820190508181035f8301526110c88161108f565b9050919050565b7f6d757374207375626d6974206174206c65617374206f6e6520626c6f636b00005f82015250565b5f611103601e83611057565b915061110e826110cf565b602082019050919050565b5f6020820190508181035f830152611130816110f7565b9050919050565b5f61114182610d2f565b915061114c83610d2f565b925082820190508082111561116457611163610f59565b5b92915050565b7f6f6c6420646966666963756c747920706572696f6400000000000000000000005f82015250565b5f61119e601583611057565b91506111a98261116a565b602082019050919050565b5f6020820190508181035f8301526111cb81611192565b9050919050565b7f4e487b71000000000000000000000000000000000000000000000000000000005f52600160045260245ffd5b5f5ffd5b5f5ffd5b5f5f8585111561121a576112196111ff565b5b8386111561122b5761122a611203565b5b6001850283019150848603905094509492505050565b5f82905092915050565b5f7fffffffff0000000000000000000000000000000000000000000000000000000082169050919050565b5f82821b905092915050565b5f61128d8383611241565b82611298813561124b565b925060048210156112d8576112d37fffffffff0000000000000000000000000000000000000000000000000000000083600403600802611276565b831692505b505092915050565b7f696e73756666696369656e7420746f74616c20646966666963756c74790000005f82015250565b5f611314601d83611057565b915061131f826112e0565b602082019050919050565b5f6020820190508181035f83015261134181611308565b9050919050565b5f61135282610d2f565b91507fffffffffffffffffffffffffffffffffffffffffffffffffffffffffffffffff820361138457611383610f59565b5b600182019050919050565b5f63ffffffff82169050919050565b6113a78161138f565b82525050565b5f6060820190506113c05f830186610d8d565b6113cd6020830185610d8d565b6113da604083018461139e565b949350505050565b7f696e73756666696369656e7420636861696e206c656e677468000000000000005f82015250565b5f611416601983611057565b9150611421826113e2565b602082019050919050565b5f6020820190508181035f8301526114438161140a565b9050919050565b5f60608201905061145d5f830186610d8d565b61146a6020830185610d8d565b6114776040830184610f04565b949350505050565b5f6060820190506114925f830186610d8d565b61149f6020830185610f04565b6114ac6040830184610f04565b949350505050565b5f81905092915050565b828183375f83830152505050565b5f6114d783856114b4565b93506114e48385846114be565b82840190509392505050565b5f6114fc8284866114cc565b91508190509392505050565b5f8151905061151681610df1565b92915050565b5f6020828403121561153157611530610d27565b5b5f61153e84828501611508565b91505092915050565b5f81519050919050565b8281835e5f83830152505050565b5f61156982611547565b61157381856114b4565b9350611583818560208601611551565b80840191505092915050565b5f61159a828461155f565b915081905092915050565b5f6115b08383611241565b826115bb8135610de8565b925060208210156115fb576115f67fffffffffffffffffffffffffffffffffffffffffffffffffffffffffffffffff83602003600802611276565b831692505b505092915050565b7f62616420706172656e74000000000000000000000000000000000000000000005f82015250565b5f611637600a83611057565b915061164282611603565b602082019050919050565b5f6020820190508181035f8301526116648161162b565b9050919050565b7f706172656e7420626c6f636b206e6f7420796574207375626d697474656400005f82015250565b5f61169f601e83611057565b91506116aa8261166b565b602082019050919050565b5f6020820190508181035f8301526116cc81611693565b9050919050565b7f626c6f636b20686173682061626f7665207461726765740000000000000000005f82015250565b5f611707601783611057565b9150611712826116d3565b602082019050919050565b5f6020820190508181035f830152611734816116fb565b9050919050565b5f61174582610d2f565b915061175083610d2f565b9250826117605761175f610ffa565b5b828206905092915050565b7f3c32352520646966666963756c747920726574617267657400000000000000005f82015250565b5f61179f601883611057565b91506117aa8261176b565b602082019050919050565b5f6020820190508181035f8301526117cc81611793565b9050919050565b7f77726f6e6720646966666963756c7479206269747300000000000000000000005f82015250565b5f611807601583611057565b9150611812826117d3565b602082019050919050565b5f6020820190508181035f830152611834816117fb565b905091905056fea264697066735822122015a2171edb5db1a8e6c34d9a58867fdd1f38fc641e69e077d2803eb15a37eafd64736f6c634300081e0033","linkReferences":{}},"methodIdentifiers":{"getBlockHash(uint256)":"ee82ac5e","getLatestBlockHeight()":"e875aa5d","getLatestBlockTime()":"32c25832","getTarget(bytes32)":"a9c2d7ab","isTestnet()":"92108c86","longestReorg()":"76e92c84","periodToTarget(uint256)":"0d2b2860","submit(uint256,bytes)":"d1a2eab2"},"id":8}