{"abi":[{"type":"constructor","inputs":[{"name":"_owner","type":"address","internalType":"address"},{"name":"_blockHeight","type":"uint256","internalType":"uint256"},{"name":"_blockHash","type":"bytes32","internalType":"bytes32"},{"name":"_blockTime","type":"uint256","internalType":"uint256"},{"name":"_expectedTarget","type":"uint256","internalType":"uint256"},{"name":"_isTestnet","type":"bool","internalType":"bool"}],"stateMutability":"nonpayable"},{"type":"function","name":"getBlockHash","inputs":[{"name":"number","type":"uint256","internalType":"uint256"}],"outputs":[{"name":"","type":"bytes32","internalType":"bytes32"}],"stateMutability":"view"},{"type":"function","name":"getLatestBlockHeight","inputs":[],"outputs":[{"name":"","type":"uint256","internalType":"uint256"}],"stateMutability":"view"},{"type":"function","name":"getLatestBlockTime","inputs":[],"outputs":[{"name":"","type":"uint256","internalType":"uint256"}],"stateMutability":"view"},{"type":"function","name":"getTarget","inputs":[{"name":"bits","type":"bytes32","internalType":"bytes32"}],"outputs":[{"name":"","type":"uint256","internalType":"uint256"}],"stateMutability":"pure"},{"type":"function","name":"isTestnet","inputs":[],"outputs":[{"name":"","type":"bool","internalType":"bool"}],"stateMutability":"view"},{"type":"function","name":"longestReorg","inputs":[],"outputs":[{"name":"","type":"uint256","internalType":"uint256"}],"stateMutability":"view"},{"type":"function","name":"owner","inputs":[],"outputs":[{"name":"","type":"address","internalType":"address"}],"stateMutability":"view"},{"type":"function","name":"periodToTarget","inputs":[{"name":"","type":"uint256","internalType":"uint256"}],"outputs":[{"name":"","type":"uint256","internalType":"uint256"}],"stateMutability":"view"},{"type":"function","name":"renounceOwnership","inputs":[],"outputs":[],"stateMutability":"nonpayable"},{"type":"function","name":"submit","inputs":[{"name":"blockHeight","type":"uint256","internalType":"uint256"},{"name":"blockHeaders","type":"bytes","internalType":"bytes"}],"outputs":[],"stateMutability":"nonpayable"},{"type":"function","name":"transferOwnership","inputs":[{"name":"newOwner","type":"address","internalType":"address"}],"outputs":[],"stateMutability":"nonpayable"},{"type":"event","name":"NewTip","inputs":[{"name":"blockHeight","type":"uint256","indexed":false,"internalType":"uint256"},{"name":"blockTime","type":"uint256","indexed":false,"internalType":"uint256"},{"name":"blockHash","type":"bytes32","indexed":false,"internalType":"bytes32"}],"anonymous":false},{"type":"event","name":"NewTotalDifficultySinceRetarget","inputs":[{"name":"blockHeight","type":"uint256","indexed":false,"internalType":"uint256"},{"name":"totalDifficulty","type":"uint256","indexed":false,"internalType":"uint256"},{"name":"newDifficultyBits","type":"uint32","indexed":false,"internalType":"uint32"}],"anonymous":false},{"type":"event","name":"OwnershipTransferred","inputs":[{"name":"previousOwner","type":"address","indexed":true,"internalType":"address"},{"name":"newOwner","type":"address","indexed":true,"internalType":"address"}],"anonymous":false},{"type":"event","name":"Reorg","inputs":[{"name":"count","type":"uint256","indexed":false,"internalType":"uint256"},{"name":"oldTip","type":"bytes32","indexed":false,"internalType":"bytes32"},{"name":"newTip","type":"bytes32","indexed":false,"internalType":"bytes32"}],"anonymous":false},{"type":"error","name":"OwnableInvalidOwner","inputs":[{"name":"owner","type":"address","internalType":"address"}]},{"type":"error","name":"OwnableUnauthorizedAccount","inputs":[{"name":"account","type":"address","internalType":"address"}]}],"bytecode":{"object":"0x60a060405234801561000f575f5ffd5b50604051611f9d380380611f9d833981810160405281019061003191906102ca565b855f73ffffffffffffffffffffffffffffffffffffffff168173ffffffffffffffffffffffffffffffffffffffff16036100a2575f6040517f1e4fbdf70000000000000000000000000000000000000000000000000000000081526004016100999190610362565b60405180910390fd5b6100b18161011060201b60201c565b508360035f8781526020019081526020015f208190555084600181905550826002819055508160045f6107e0886100e891906103a8565b81526020019081526020015f20819055508015156080811515815250505050505050506103d8565b5f5f5f9054906101000a900473ffffffffffffffffffffffffffffffffffffffff169050815f5f6101000a81548173ffffffffffffffffffffffffffffffffffffffff021916908373ffffffffffffffffffffffffffffffffffffffff1602179055508173ffffffffffffffffffffffffffffffffffffffff168173ffffffffffffffffffffffffffffffffffffffff167f8be0079c531659141344cd1fd0a4f28419497f9722a3daafe3b4186f6b6457e060405160405180910390a35050565b5f5ffd5b5f73ffffffffffffffffffffffffffffffffffffffff82169050919050565b5f6101fe826101d5565b9050919050565b61020e816101f4565b8114610218575f5ffd5b50565b5f8151905061022981610205565b92915050565b5f819050919050565b6102418161022f565b811461024b575f5ffd5b50565b5f8151905061025c81610238565b92915050565b5f819050919050565b61027481610262565b811461027e575f5ffd5b50565b5f8151905061028f8161026b565b92915050565b5f8115159050919050565b6102a981610295565b81146102b3575f5ffd5b50565b5f815190506102c4816102a0565b92915050565b5f5f5f5f5f5f60c087890312156102e4576102e36101d1565b5b5f6102f189828a0161021b565b965050602061030289828a0161024e565b955050604061031389828a01610281565b945050606061032489828a0161024e565b935050608061033589828a0161024e565b92505060a061034689828a016102b6565b9150509295509295509295565b61035c816101f4565b82525050565b5f6020820190506103755f830184610353565b92915050565b7f4e487b71000000000000000000000000000000000000000000000000000000005f52601260045260245ffd5b5f6103b28261022f565b91506103bd8361022f565b9250826103cd576103cc61037b565b5b828204905092915050565b608051611b9f6103fe5f395f818161027301528181610d5b0152610de30152611b9f5ff3fe608060405234801561000f575f5ffd5b50600436106100a7575f3560e01c806392108c861161006f57806392108c861461013f578063a9c2d7ab1461015d578063d1a2eab21461018d578063e875aa5d146101a9578063ee82ac5e146101c7578063f2fde38b146101f7576100a7565b80630d2b2860146100ab57806332c25832146100db578063715018a6146100f957806376e92c84146101035780638da5cb5b14610121575b5f5ffd5b6100c560048036038101906100c09190610fe3565b610213565b6040516100d2919061101d565b60405180910390f35b6100e3610228565b6040516100f0919061101d565b60405180910390f35b610101610231565b005b61010b610244565b604051610118919061101d565b60405180910390f35b61012961024a565b6040516101369190611075565b60405180910390f35b610147610271565b60405161015491906110a8565b60405180910390f35b610177600480360381019061017291906110f4565b610295565b604051610184919061101d565b60405180910390f35b6101a760048036038101906101a29190611180565b61034d565b005b6101b1610815565b6040516101be919061101d565b60405180910390f35b6101e160048036038101906101dc9190610fe3565b61081e565b6040516101ee91906111ec565b60405180910390f35b610211600480360381019061020c919061122f565b610838565b005b6004602052805f5260405f205f915090505481565b5f600254905090565b6102396108bc565b6102425f610943565b565b60055481565b5f5f5f9054906101000a900473ffffffffffffffffffffffffffffffffffffffff16905090565b7f000000000000000000000000000000000000000000000000000000000000000081565b5f5f826003602081106102ab576102aa61125a565b5b1a60f81b60f81c60ff1690505f836002602081106102cc576102cb61125a565b5b1a60f81b60f81c60ff169050836001602081106102ec576102eb61125a565b5b1a60f81b60f81c60ff16600882901b179050835f602081106103115761031061125a565b5b1a60f81b60f81c60ff16600882901b1790505f60038361033191906112b4565b600861033d91906112e7565b82901b9050809350505050919050565b6103556108bc565b5f6050838390506103669190611355565b90508282905060508261037991906112e7565b146103b9576040517f08c379a00000000000000000000000000000000000000000000000000000000081526004016103b0906113df565b60405180910390fd5b5f81116103fb576040517f08c379a00000000000000000000000000000000000000000000000000000000081526004016103f290611447565b60405180910390fd5b5f6107e060015461040c9190611355565b90505f6001838761041d9190611465565b61042791906112b4565b90505f6107e0826104389190611355565b90508281101561047d576040517f08c379a0000000000000000000000000000000000000000000000000000000008152600401610474906114e2565b60405180910390fd5b5f6107e060018961048e91906112b4565b6104989190611355565b90505f5f9050818311156104ee576001826104b39190611465565b83146104c2576104c1611500565b5b8483036104dc576104d585600154610a04565b90506104ed565b8185146104ec576104eb611500565b5b5b5b5f6104fa60015461081e565b90505f5f90505f5f90505b88811015610576575f818d61051a9190611465565b905061055b818d8d85605061052f91906112e7565b9060018761053d9190611465565b605061054991906112e7565b9261055693929190611535565b610aa8565b836105669190611465565b9250508080600101915050610505565b50838511156106b557365f8b8b60018c61059091906112b4565b605061059c91906112e7565b9080926105ab93929190611535565b915091505f6105da8383604890604c926105c793929190611535565b906105d291906115b0565b60e01c610e69565b90505f6105e7898b610a04565b905086811161062b576040517f08c379a000000000000000000000000000000000000000000000000000000000815260040161062290611658565b60405180910390fd5b5f60018b6106399190611465565b90505b6001548111610670575f5f1b60035f8381526020019081526020015f2081905550808061066890611676565b91505061063c565b507f452ea9c9e4985cb8cc7199131fd292d600dae30f407e749b6ca7e7f4c7690cf78a82846040516106a4939291906116db565b60405180910390a15050505061071a565b8685146106c5576106c4611500565b5b8385146106d5576106d4611500565b5b6001548611610719576040517f08c379a00000000000000000000000000000000000000000000000000000000081526004016107109061175a565b60405180910390fd5b5b856001819055505f600c8b8b905061073291906112b4565b90505f8b8b83906004856107469190611465565b9261075393929190611535565b9061075e91906115b0565b60e01c905061076c81610e69565b63ffffffff166002819055505f6107828961081e565b90507f11cedc7f83a9a6f5228b8fcd3c3c0ae686a51e2e04ea46923e3491a32a4bbaa889600254836040516107b993929190611778565b60405180910390a15f841115610805577fea952b3dfe43a8e680ea58302c72429cd78ef0537abeaf75797ef9bb0496cefc8486836040516107fc939291906117ad565b60405180910390a15b5050505050505050505050505050565b5f600154905090565b5f60035f8381526020019081526020015f20549050919050565b6108406108bc565b5f73ffffffffffffffffffffffffffffffffffffffff168173ffffffffffffffffffffffffffffffffffffffff16036108b0575f6040517f1e4fbdf70000000000000000000000000000000000000000000000000000000081526004016108a79190611075565b60405180910390fd5b6108b981610943565b50565b6108c4610eaf565b73ffffffffffffffffffffffffffffffffffffffff166108e261024a565b73ffffffffffffffffffffffffffffffffffffffff161461094157610905610eaf565b6040517f118cdaa70000000000000000000000000000000000000000000000000000000081526004016109389190611075565b60405180910390fd5b565b5f5f5f9054906101000a900473ffffffffffffffffffffffffffffffffffffffff169050815f5f6101000a81548173ffffffffffffffffffffffffffffffffffffffff021916908373ffffffffffffffffffffffffffffffffffffffff1602179055508173ffffffffffffffffffffffffffffffffffffffff168173ffffffffffffffffffffffffffffffffffffffff167f8be0079c531659141344cd1fd0a4f28419497f9722a3daafe3b4186f6b6457e060405160405180910390a35050565b5f5f60045f8581526020019081526020015f205490505f817fffffffffffffffffffffffffffffffffffffffffffffffffffffffffffffffff610a479190611355565b90505f60016107e087610a5a91906112e7565b86610a6591906112b4565b610a6f9190611465565b905060018110158015610a8457506107e08111155b610a9157610a90611500565b5b8181610a9d91906112e7565b935050505092915050565b5f60508383905014610abd57610abc611500565b5b5f610b836002808686604051610ad492919061181e565b602060405180830381855afa158015610aef573d5f5f3e3d5ffd5b5050506040513d601f19601f82011682018060405250810190610b12919061184a565b604051602001610b2291906111ec565b604051602081830303815290604052604051610b3e91906118bd565b602060405180830381855afa158015610b59573d5f5f3e3d5ffd5b5050506040513d601f19601f82011682018060405250810190610b7c919061184a565b5f1c610eb6565b90505f60035f8781526020019081526020015f205490505f825f1b90505f5f1b8214158015610bb25750808214155b15610bbc57600193505b8060035f8981526020019081526020015f20819055505f610bfc8787600490602492610bea93929190611535565b90610bf591906118d3565b5f1c610eb6565b5f1b905060035f60018a610c1091906112b4565b81526020019081526020015f20548114610c5f576040517f08c379a0000000000000000000000000000000000000000000000000000000008152600401610c569061197b565b60405180910390fd5b5f5f1b8103610ca3576040517f08c379a0000000000000000000000000000000000000000000000000000000008152600401610c9a906119e3565b60405180910390fd5b5f8787604890604c92610cb893929190611535565b90610cc391906118d3565b90505f610ccf82610295565b9050808610610d13576040517f08c379a0000000000000000000000000000000000000000000000000000000008152600401610d0a90611a4b565b60405180910390fd5b5f6107e08b610d229190611355565b90505f6107e08c610d339190611a69565b03610de1575f60045f600184610d4991906112b4565b81526020019081526020015f205490507f0000000000000000000000000000000000000000000000000000000000000000610dc55780600284901c10610dc4576040517f08c379a0000000000000000000000000000000000000000000000000000000008152600401610dbb90611ae3565b60405180910390fd5b5b8260045f8481526020019081526020015f208190555050610e5b565b7f0000000000000000000000000000000000000000000000000000000000000000610e5a5760045f8281526020019081526020015f20548214610e59576040517f08c379a0000000000000000000000000000000000000000000000000000000008152600401610e5090611b4b565b60405180910390fd5b5b5b505050505050509392505050565b5f819050600862ff00ff821663ffffffff16901b600863ff00ff00831663ffffffff16901c17905060108163ffffffff16901b60108263ffffffff16901c179050919050565b5f33905090565b5f8190505f7fff00ff00ff00ff00ff00ff00ff00ff00ff00ff00ff00ff00ff00ff00ff00ff009050600881198316901b6008828416901c1791505f7fffff0000ffff0000ffff0000ffff0000ffff0000ffff0000ffff0000ffff00009050601081198416901b6010828516901c1792505f7fffffffff00000000ffffffff00000000ffffffff00000000ffffffff000000009050602081198516901b6020828616901c1793505f7fffffffffffffffff0000000000000000ffffffffffffffff00000000000000009050604081198616901b6040828716901c179450608085901b608086901c17945050505050919050565b5f5ffd5b5f5ffd5b5f819050919050565b610fc281610fb0565b8114610fcc575f5ffd5b50565b5f81359050610fdd81610fb9565b92915050565b5f60208284031215610ff857610ff7610fa8565b5b5f61100584828501610fcf565b91505092915050565b61101781610fb0565b82525050565b5f6020820190506110305f83018461100e565b92915050565b5f73ffffffffffffffffffffffffffffffffffffffff82169050919050565b5f61105f82611036565b9050919050565b61106f81611055565b82525050565b5f6020820190506110885f830184611066565b92915050565b5f8115159050919050565b6110a28161108e565b82525050565b5f6020820190506110bb5f830184611099565b92915050565b5f819050919050565b6110d3816110c1565b81146110dd575f5ffd5b50565b5f813590506110ee816110ca565b92915050565b5f6020828403121561110957611108610fa8565b5b5f611116848285016110e0565b91505092915050565b5f5ffd5b5f5ffd5b5f5ffd5b5f5f83601f8401126111405761113f61111f565b5b8235905067ffffffffffffffff81111561115d5761115c611123565b5b60208301915083600182028301111561117957611178611127565b5b9250929050565b5f5f5f6040848603121561119757611196610fa8565b5b5f6111a486828701610fcf565b935050602084013567ffffffffffffffff8111156111c5576111c4610fac565b5b6111d18682870161112b565b92509250509250925092565b6111e6816110c1565b82525050565b5f6020820190506111ff5f8301846111dd565b92915050565b61120e81611055565b8114611218575f5ffd5b50565b5f8135905061122981611205565b92915050565b5f6020828403121561124457611243610fa8565b5b5f6112518482850161121b565b91505092915050565b7f4e487b71000000000000000000000000000000000000000000000000000000005f52603260045260245ffd5b7f4e487b71000000000000000000000000000000000000000000000000000000005f52601160045260245ffd5b5f6112be82610fb0565b91506112c983610fb0565b92508282039050818111156112e1576112e0611287565b5b92915050565b5f6112f182610fb0565b91506112fc83610fb0565b925082820261130a81610fb0565b9150828204841483151761132157611320611287565b5b5092915050565b7f4e487b71000000000000000000000000000000000000000000000000000000005f52601260045260245ffd5b5f61135f82610fb0565b915061136a83610fb0565b92508261137a57611379611328565b5b828204905092915050565b5f82825260208201905092915050565b7f77726f6e6720686561646572206c656e677468000000000000000000000000005f82015250565b5f6113c9601383611385565b91506113d482611395565b602082019050919050565b5f6020820190508181035f8301526113f6816113bd565b9050919050565b7f6d757374207375626d6974206174206c65617374206f6e6520626c6f636b00005f82015250565b5f611431601e83611385565b915061143c826113fd565b602082019050919050565b5f6020820190508181035f83015261145e81611425565b9050919050565b5f61146f82610fb0565b915061147a83610fb0565b925082820190508082111561149257611491611287565b5b92915050565b7f6f6c6420646966666963756c747920706572696f6400000000000000000000005f82015250565b5f6114cc601583611385565b91506114d782611498565b602082019050919050565b5f6020820190508181035f8301526114f9816114c0565b9050919050565b7f4e487b71000000000000000000000000000000000000000000000000000000005f52600160045260245ffd5b5f5ffd5b5f5ffd5b5f5f858511156115485761154761152d565b5b8386111561155957611558611531565b5b6001850283019150848603905094509492505050565b5f82905092915050565b5f7fffffffff0000000000000000000000000000000000000000000000000000000082169050919050565b5f82821b905092915050565b5f6115bb838361156f565b826115c68135611579565b92506004821015611606576116017fffffffff00000000000000000000000000000000000000000000000000000000836004036008026115a4565b831692505b505092915050565b7f696e73756666696369656e7420746f74616c20646966666963756c74790000005f82015250565b5f611642601d83611385565b915061164d8261160e565b602082019050919050565b5f6020820190508181035f83015261166f81611636565b9050919050565b5f61168082610fb0565b91507fffffffffffffffffffffffffffffffffffffffffffffffffffffffffffffffff82036116b2576116b1611287565b5b600182019050919050565b5f63ffffffff82169050919050565b6116d5816116bd565b82525050565b5f6060820190506116ee5f83018661100e565b6116fb602083018561100e565b61170860408301846116cc565b949350505050565b7f696e73756666696369656e7420636861696e206c656e677468000000000000005f82015250565b5f611744601983611385565b915061174f82611710565b602082019050919050565b5f6020820190508181035f83015261177181611738565b9050919050565b5f60608201905061178b5f83018661100e565b611798602083018561100e565b6117a560408301846111dd565b949350505050565b5f6060820190506117c05f83018661100e565b6117cd60208301856111dd565b6117da60408301846111dd565b949350505050565b5f81905092915050565b828183375f83830152505050565b5f61180583856117e2565b93506118128385846117ec565b82840190509392505050565b5f61182a8284866117fa565b91508190509392505050565b5f81519050611844816110ca565b92915050565b5f6020828403121561185f5761185e610fa8565b5b5f61186c84828501611836565b91505092915050565b5f81519050919050565b8281835e5f83830152505050565b5f61189782611875565b6118a181856117e2565b93506118b181856020860161187f565b80840191505092915050565b5f6118c8828461188d565b915081905092915050565b5f6118de838361156f565b826118e981356110c1565b92506020821015611929576119247fffffffffffffffffffffffffffffffffffffffffffffffffffffffffffffffff836020036008026115a4565b831692505b505092915050565b7f62616420706172656e74000000000000000000000000000000000000000000005f82015250565b5f611965600a83611385565b915061197082611931565b602082019050919050565b5f6020820190508181035f83015261199281611959565b9050919050565b7f706172656e7420626c6f636b206e6f7420796574207375626d697474656400005f82015250565b5f6119cd601e83611385565b91506119d882611999565b602082019050919050565b5f6020820190508181035f8301526119fa816119c1565b9050919050565b7f626c6f636b20686173682061626f7665207461726765740000000000000000005f82015250565b5f611a35601783611385565b9150611a4082611a01565b602082019050919050565b5f6020820190508181035f830152611a6281611a29565b9050919050565b5f611a7382610fb0565b9150611a7e83610fb0565b925082611a8e57611a8d611328565b5b828206905092915050565b7f3c32352520646966666963756c747920726574617267657400000000000000005f82015250565b5f611acd601883611385565b9150611ad882611a99565b602082019050919050565b5f6020820190508181035f830152611afa81611ac1565b9050919050565b7f77726f6e6720646966666963756c7479206269747300000000000000000000005f82015250565b5f611b35601583611385565b9150611b4082611b01565b602082019050919050565b5f6020820190508181035f830152611b6281611b29565b905091905056fea2646970667358221220baece11e2cf2f5d2e90e3de6802ac70535726792517f6f97b8578f53f65dbfce64736f6c634300081e0033","linkReferences":{}},"methodIdentifiers":{"getBlockHash(uint256)":"ee82ac5e","getLatestBlockHeight()":"e875aa5d","getLatestBlockTime()":"32c25832","getTarget(bytes32)":"a9c2d7ab","isTestnet()":"92108c86","longestReorg()":"76e92c84","owner()":"8da5cb5b","periodToTarget(uint256)":"0d2b2860","renounceOwnership()":"715018a6","submit(uint256,bytes)":"d1a2eab2","transferOwnership(address)":"f2fde38b"},"id":10}