{"abi":[{"type":"constructor","inputs":[],"stateMutability":"nonpayable"},{"type":"function","name":"challenge","inputs":[{"name":"wrong_idx","type":"uint256","internalType":"uint256"},{"name":"wrongBlockHeaders","type":"bytes","internalType":"bytes"},{"name":"v","type":"uint8","internalType":"uint8"},{"name":"r","type":"bytes32","internalType":"bytes32"},{"name":"s","type":"bytes32","internalType":"bytes32"},{"name":"blockHeight","type":"uint256","internalType":"uint256"},{"name":"blockHeaders","type":"bytes","internalType":"bytes"}],"outputs":[],"stateMutability":"nonpayable"},{"type":"function","name":"getBlockHash","inputs":[{"name":"number","type":"uint256","internalType":"uint256"}],"outputs":[{"name":"","type":"bytes32","internalType":"bytes32"}],"stateMutability":"view"},{"type":"function","name":"getLatestBlockHeight","inputs":[],"outputs":[{"name":"","type":"uint256","internalType":"uint256"}],"stateMutability":"view"},{"type":"function","name":"getLatestBlockTime","inputs":[],"outputs":[{"name":"","type":"uint256","internalType":"uint256"}],"stateMutability":"view"},{"type":"function","name":"getTarget","inputs":[{"name":"bits","type":"bytes32","internalType":"bytes32"}],"outputs":[{"name":"","type":"uint256","internalType":"uint256"}],"stateMutability":"pure"},{"type":"function","name":"initialize","inputs":[{"name":"_admin","type":"address","internalType":"address"},{"name":"_blockHeight","type":"uint256","internalType":"uint256"},{"name":"_blockHash","type":"bytes32","internalType":"bytes32"},{"name":"_blockTime","type":"uint256","internalType":"uint256"},{"name":"_expectedTarget","type":"uint256","internalType":"uint256"},{"name":"_isTestnet","type":"bool","internalType":"bool"}],"outputs":[],"stateMutability":"nonpayable"},{"type":"function","name":"isTestnet","inputs":[],"outputs":[{"name":"","type":"bool","internalType":"bool"}],"stateMutability":"view"},{"type":"function","name":"owner","inputs":[],"outputs":[{"name":"","type":"address","internalType":"address"}],"stateMutability":"view"},{"type":"function","name":"periodToTarget","inputs":[{"name":"","type":"uint256","internalType":"uint256"}],"outputs":[{"name":"","type":"uint256","internalType":"uint256"}],"stateMutability":"view"},{"type":"function","name":"renounceOwnership","inputs":[],"outputs":[],"stateMutability":"nonpayable"},{"type":"function","name":"submit_uncheck","inputs":[{"name":"blockHeight","type":"uint256","internalType":"uint256"},{"name":"blockHeaders","type":"bytes","internalType":"bytes"},{"name":"v","type":"uint8","internalType":"uint8"},{"name":"r","type":"bytes32","internalType":"bytes32"},{"name":"s","type":"bytes32","internalType":"bytes32"}],"outputs":[],"stateMutability":"nonpayable"},{"type":"function","name":"transferOwnership","inputs":[{"name":"newOwner","type":"address","internalType":"address"}],"outputs":[],"stateMutability":"nonpayable"},{"type":"function","name":"validateHeader","inputs":[{"name":"header","type":"bytes","internalType":"bytes"},{"name":"blockHeight","type":"uint256","internalType":"uint256"}],"outputs":[{"name":"","type":"bool","internalType":"bool"}],"stateMutability":"view"},{"type":"event","name":"Initialized","inputs":[{"name":"version","type":"uint64","indexed":false,"internalType":"uint64"}],"anonymous":false},{"type":"event","name":"NewTip","inputs":[{"name":"blockHeight","type":"uint256","indexed":false,"internalType":"uint256"},{"name":"blockTime","type":"uint256","indexed":false,"internalType":"uint256"},{"name":"blockHash","type":"bytes32","indexed":false,"internalType":"bytes32"}],"anonymous":false},{"type":"event","name":"NewTotalDifficultySinceRetarget","inputs":[{"name":"blockHeight","type":"uint256","indexed":false,"internalType":"uint256"},{"name":"totalDifficulty","type":"uint256","indexed":false,"internalType":"uint256"},{"name":"newDifficultyBits","type":"uint32","indexed":false,"internalType":"uint32"}],"anonymous":false},{"type":"event","name":"OwnershipTransferred","inputs":[{"name":"previousOwner","type":"address","indexed":true,"internalType":"address"},{"name":"newOwner","type":"address","indexed":true,"internalType":"address"}],"anonymous":false},{"type":"event","name":"Reorg","inputs":[{"name":"count","type":"uint256","indexed":false,"internalType":"uint256"},{"name":"oldTip","type":"bytes32","indexed":false,"internalType":"bytes32"},{"name":"newTip","type":"bytes32","indexed":false,"internalType":"bytes32"}],"anonymous":false},{"type":"error","name":"InvalidInitialization","inputs":[]},{"type":"error","name":"NotInitializing","inputs":[]},{"type":"error","name":"OwnableInvalidOwner","inputs":[{"name":"owner","type":"address","internalType":"address"}]},{"type":"error","name":"OwnableUnauthorizedAccount","inputs":[{"name":"account","type":"address","internalType":"address"}]}],"bytecode":{"object":"0x6080806040523460aa575f5160206117f85f395f51905f525460ff8160401c16609b576002600160401b03196001600160401b038216016049575b60405161174990816100af8239f35b6001600160401b0319166001600160401b039081175f5160206117f85f395f51905f525581527fc7f505b2f371ae2175ee4913f4499e1f2633a7b5936321eed1cdaeb6115181d290602090a15f80603a565b63f92ee8a960e01b5f5260045ffd5b5f80fdfe6080806040526004361015610012575f80fd5b5f3560e01c9081630d2b2860146110335750806332c258321461101657806336e6393614610fcd5780635d69c83f146106f7578063715018a61461069057806376c88686146104af5780638159e39b1461019c5780638da5cb5b1461016857806392108c8614610146578063a9c2d7ab14610120578063e875aa5d14610104578063ee82ac5e146100da5763f2fde38b146100ab575f80fd5b346100d65760203660031901126100d6576100d46100c7611097565b6100cf6115ed565b61144f565b005b5f80fd5b346100d65760203660031901126100d6576004355f526002602052602060405f2054604051908152f35b346100d6575f3660031901126100d65760205f54604051908152f35b346100d65760203660031901126100d657602061013e600435611412565b604051908152f35b346100d6575f3660031901126100d657602060ff600454166040519015158152f35b346100d6575f3660031901126100d6575f5160206116d45f395f51905f52546040516001600160a01b039091168152602090f35b346100d65760a03660031901126100d65760043560243567ffffffffffffffff81116100d6576101d0903690600401611059565b60205f6101de949394611087565b6101e66115ed565b6040518381019061020b816101fd888b8b8761138c565b03601f1981018352826110ef565b5190206040805191825260ff92909216602082015260643591810191909152608435606082015281805260809060015afa1561046b575f51336001600160a01b039091160361047657605081049160508302831584820460501481171561035f5761027a8461028093146110ad565b156113b9565b61028a8382611405565b5f1981019390841161035f575f5b81811061037357505050815f55600b19810181811161035f5760071982019180831161035f576102f663ffffffff93610327936102fc937f11cedc7f83a9a6f5228b8fcd3c3c0ae686a51e2e04ea46923e3491a32a4bbaa898611125565b9061113d565b60e01c62ff00ff63ff00ff008260081b169160081c161763ffffffff808260101b169160101c161790565b169081600155805f52600260205261035a60405f2054604051938493846040919493926060820195825260208201520152565b0390a1005b634e487b7160e01b5f52601160045260245ffd5b8060500260508104820361035f576001820180831161035f578060500290605082040361035f576103a5918689611125565b6103b28386949394611405565b9060205f6040518387823780848101838152039060025afa1561046b5760205f80516040518381019182528381526103eb6040826110ef565b604051918291518091835e8101838152039060025afa1561046b576104105f516114c0565b825f52600260205260405f20556107e0820615610434575b50506001915001610298565b604c116100d6576107e06104566048600195013563ffffffff60e01b16611412565b91045f52600360205260405f20558780610428565b6040513d5f823e3d90fd5b60405162461bcd60e51b8152602060048201526011602482015270496e76616c6964207369676e617475726560781b6044820152606490fd5b346100d65760c03660031901126100d6576104c8611097565b6024359060a435908115158092036100d6575f5160206116f45f395f51905f52549260ff8460401c16159367ffffffffffffffff811680159081610688575b600114908161067e575b159081610675575b506106665767ffffffffffffffff1981166001175f5160206116f45f395f51905f52558461063a575b506001600160a01b038216156105fd576105696107e0926105616116a8565b6100cf6116a8565b805f52600260205260443560405f2055805f55606435600155045f52600360205260843560405f205560ff8019600454169116176004556105a657005b68ff0000000000000000195f5160206116f45f395f51905f5254165f5160206116f45f395f51905f52557fc7f505b2f371ae2175ee4913f4499e1f2633a7b5936321eed1cdaeb6115181d2602060405160018152a1005b60405162461bcd60e51b8152602060048201526015602482015274496e76616c69642061646d696e206164647265737360581b6044820152606490fd5b68ffffffffffffffffff191668010000000000000001175f5160206116f45f395f51905f525584610542565b63f92ee8a960e01b5f5260045ffd5b90501586610519565b303b159150610511565b869150610507565b346100d6575f3660031901126100d6576106a86115ed565b5f5160206116d45f395f51905f5280546001600160a01b031981169091555f906001600160a01b03167f8be0079c531659141344cd1fd0a4f28419497f9722a3daafe3b4186f6b6457e08280a3005b346100d65760e03660031901126100d65760043560243567ffffffffffffffff81116100d65761072b903690600401611059565b90610734611087565b9060a4359360c43567ffffffffffffffff81116100d657610759903690600401611059565b94909360205f60018060a01b035f5160206116d45f395f51905f525416928960405161078e816101fd898c898401968761138c565b5190206040805191825260ff92909216602082015260643591810191909152608435606082015281805260809060015afa1561046b575f516001600160a01b031603610f88578515610f3457605081046050810290801590820460501481171561035f5761027a8361080093146110ad565b816050029260508404830361035f576001830180841161035f578060500290605082040361035f57610848946108429361083993611125565b91909287611405565b91611173565b610ede57605082049260508402841585820460501481171561035f5761027a8561087293146110ad565b5f54916107e08304936108858684611405565b5f198101959080871161035f576107e0870497828910610ea1575f19860186811161035f576107e090045f93818b119889610e61575b5f52600260205260405f2054985f985f905b858210610b3b57505015610ace5750505f19810190811161035f578060500290605082040361035f5783610902918187611125565b604c116100d6578761094663ffffffff604861094c94013560e01c1662ff00ff63ff00ff008260081b169160081c161763ffffffff808260101b169160101c161790565b99611620565b91821115610a89575b5f54811161097b575f818152600260205260408120555f19811461035f57600101610955565b5060609063ffffffff7f452ea9c9e4985cb8cc7199131fd292d600dae30f407e749b6ca7e7f4c7690cf7939495969798604051928a84526020840152166040820152a15b845f55600b19810181811161035f5760071982019182821161035f576102f663ffffffff93610a13936102fc937f11cedc7f83a9a6f5228b8fcd3c3c0ae686a51e2e04ea46923e3491a32a4bbaa897611125565b1680600155845f52600260205260405f205494610a4786604051938493846040919493926060820195825260208201520152565b0390a180610a5157005b7fea952b3dfe43a8e680ea58302c72429cd78ef0537abeaf75797ef9bb0496cefc9260609260405192835260208301526040820152a1005b60405162461bcd60e51b815260206004820152601d60248201527f696e73756666696369656e7420746f74616c20646966666963756c74790000006044820152606490fd5b90935089610aee95969798999a9350610ae89250146115d2565b146115d2565b5f5485116109bf5760405162461bcd60e51b815260206004820152601960248201527f696e73756666696369656e7420636861696e206c656e677468000000000000006044820152606490fd5b9099610b478b83611405565b8b605002605081048d0361035f5760018d01808e1161035f578060500290605082040361035f57610b79918c8e611125565b9290915f92610b8a605086146115d2565b60205f6040518784823780888101838152039060025afa1561046b5760205f8051604051838101918252838152610bc26040826110ef565b604051918291518091835e8101838152039060025afa1561046b57610be75f516114c0565b94825f52600260205260405f2054868115159182610e56575b5050610e4d575b825f5260026020528560405f2055806024116100d657610c2a60048301356114c0565b5f19840184811161035f575f52600260205260405f20548103610e1b5715610dd657604c116100d6576048610c6991013563ffffffff60e01b16611412565b80941015610d91576107e08082049106610d1e575f19810181811161035f575f52600360205260405f205460ff6004541615610cc3575b5090600193610cbb93925f52600360205260405f2055611405565b9a01906108cd565b846002949392941c1015610cd95790915f610ca0565b60405162461bcd60e51b815260206004820152601860248201527f3c32352520646966666963756c747920726574617267657400000000000000006044820152606490fd5b60ff600494929394541615610d3c575b5050600191610cbb91611405565b5f52600360205260405f205403610d54578f80610d2e565b60405162461bcd60e51b815260206004820152601560248201527477726f6e6720646966666963756c7479206269747360581b6044820152606490fd5b60405162461bcd60e51b815260206004820152601760248201527f626c6f636b20686173682061626f7665207461726765740000000000000000006044820152606490fd5b60405162461bcd60e51b815260206004820152601e60248201527f706172656e7420626c6f636b206e6f7420796574207375626d697474656400006044820152606490fd5b60405162461bcd60e51b815260206004820152600a602482015269189859081c185c995b9d60b21b6044820152606490fd5b60019450610c07565b14159050865f610c00565b946001830180841161035f57610e78908d146115d2565b8b8203610e905750610e8a8582611620565b946108bb565b94610e9c8383146115d2565b6108bb565b60405162461bcd60e51b81526020600482015260156024820152741bdb1908191a59999a58dd5b1d1e481c195c9a5bd9605a1b6044820152606490fd5b60405162461bcd60e51b815260206004820152602860248201527f546865206368616c6c656e67656420626c6f636b206170706561727320746f206044820152671899481d985b1a5960c21b6064820152608490fd5b60405162461bcd60e51b815260206004820152602660248201527f5468652067656e6573697320626c6f636b2063616e6e6f74206265206368616c6044820152651b195b99d95960d21b6064820152608490fd5b60405162461bcd60e51b815260206004820152601e60248201527f4368616c6c656e676572207573652077726f6e67207369676e617475726500006044820152606490fd5b346100d65760403660031901126100d65760043567ffffffffffffffff81116100d65761100c6110036020923690600401611059565b60243591611173565b6040519015158152f35b346100d6575f3660031901126100d6576020600154604051908152f35b346100d65760203660031901126100d6576020906004355f526003825260405f20548152f35b9181601f840112156100d65782359167ffffffffffffffff83116100d657602083818601950101116100d657565b6044359060ff821682036100d657565b600435906001600160a01b03821682036100d657565b156110b457565b60405162461bcd60e51b81526020600482015260136024820152720eee4dedcce40d0cac2c8cae440d8cadccee8d606b1b6044820152606490fd5b90601f8019910116810190811067ffffffffffffffff82111761111157604052565b634e487b7160e01b5f52604160045260245ffd5b909392938483116100d65784116100d6578101920390565b356001600160e01b0319811692919060048210611158575050565b6001600160e01b031960049290920360031b82901b16169150565b91611180605083146110ad565b80156113395760205f6040518486823780858101838152039060025afa1561046b5760205f80516040518381019182528381526111be6040826110ef565b604051918291518091835e8101838152039060025afa1561046b576111e35f516114c0565b826024116100d6576111f860048501356114c0565b5f19830183811161035f57805f52600260205260405f20541561132f575f52600260205260405f2054036112e65782604c116100d6576112456001600160e01b0319604886013516611412565b916107e080820491066112fc575f19810190811161035f575f52600360205260405f205460ff600454161590816112ee575b506112e6575b10156112e057806004116100d657600263ffffffff833560e881901c62ff00ff1660d89190911c63ff00ff001617601081811c831691901b82161716106112e0576044116100d65760246112d29101356114c0565b156112dc57600190565b5f90565b50505f90565b505050505f90565b90508260021c10155f611277565b60ff60045416159081611318575b501561127d57505050505f90565b90505f52600360205260405f20548214155f61130a565b5050505050505f90565b60405162461bcd60e51b815260206004820152602560248201527f5468652067656e6573697320626c6f636b2063616e6e6f742062652076616c6960448201526419185d195960da1b6064820152608490fd5b91926060938192845260406020850152816040850152848401375f828201840152601f01601f1916010190565b156113c057565b60405162461bcd60e51b815260206004820152601e60248201527f6d757374207375626d6974206174206c65617374206f6e6520626c6f636b00006044820152606490fd5b9190820180921161035f57565b8060031a90600219820191821161035f576001600160fd1b038216820361035f57805f1a908060011a9060021a60081b1760081b179060031b1b90565b6001600160a01b031680156114ad575f5160206116d45f395f51905f5280546001600160a01b0319811683179091556001600160a01b03167f8be0079c531659141344cd1fd0a4f28419497f9722a3daafe3b4186f6b6457e05f80a3565b631e4fbdf760e01b5f525f60045260245ffd5b7eff00ff00ff00ff00ff00ff00ff00ff00ff00ff00ff00ff00ff00ff00ff00ff7fff00ff00ff00ff00ff00ff00ff00ff00ff00ff00ff00ff00ff00ff00ff00ff008260081b169160081c16177dffff0000ffff0000ffff0000ffff0000ffff0000ffff0000ffff0000ffff7fffff0000ffff0000ffff0000ffff0000ffff0000ffff0000ffff0000ffff00008260101b169160101c16177bffffffff00000000ffffffff00000000ffffffff00000000ffffffff7fffffffff00000000ffffffff00000000ffffffff00000000ffffffff000000008260201b169160201c161777ffffffffffffffff0000000000000000ffffffffffffffff80198260401b169160401c16178060801b9060801c1790565b156115d957565b634e487b7160e01b5f52600160045260245ffd5b5f5160206116d45f395f51905f52546001600160a01b0316330361160d57565b63118cdaa760e01b5f523360045260245ffd5b90815f52600360205260405f20548015611694575f1904916107e08102908082046107e0149015171561035f57810390811161035f576001810180911161035f57600181101580611688575b611675906115d2565b81810291818304149015171561035f5790565b506107e081111561166c565b634e487b7160e01b5f52601260045260245ffd5b60ff5f5160206116f45f395f51905f525460401c16156116c457565b631afcd79f60e31b5f5260045ffdfe9016d09d72d40fdae2fd8ceac6b6234c7706214fd39c1cd1e609a0528c199300f0c57e16840df040f15088dc2f81fe391c3923bec73e23a9662efc9c229c6a00a26469706673582212204387bf425d3b29769981a29596af6ad97fc64a02d5124f40319d4090fda9098664736f6c634300081e0033f0c57e16840df040f15088dc2f81fe391c3923bec73e23a9662efc9c229c6a00","linkReferences":{}},"methodIdentifiers":{"challenge(uint256,bytes,uint8,bytes32,bytes32,uint256,bytes)":"5d69c83f","getBlockHash(uint256)":"ee82ac5e","getLatestBlockHeight()":"e875aa5d","getLatestBlockTime()":"32c25832","getTarget(bytes32)":"a9c2d7ab","initialize(address,uint256,bytes32,uint256,uint256,bool)":"76c88686","isTestnet()":"92108c86","owner()":"8da5cb5b","periodToTarget(uint256)":"0d2b2860","renounceOwnership()":"715018a6","submit_uncheck(uint256,bytes,uint8,bytes32,bytes32)":"8159e39b","transferOwnership(address)":"f2fde38b","validateHeader(bytes,uint256)":"36e63936"},"storageLayout":{"storage":[{"astId":47009,"contract":"src/BtcMirror.sol:BtcMirror","label":"latestBlockHeight","offset":0,"slot":"0","type":"t_uint256"},{"astId":47011,"contract":"src/BtcMirror.sol:BtcMirror","label":"latestBlockTime","offset":0,"slot":"1","type":"t_uint256"},{"astId":47015,"contract":"src/BtcMirror.sol:BtcMirror","label":"blockHeightToHash","offset":0,"slot":"2","type":"t_mapping(t_uint256,t_bytes32)"},{"astId":47020,"contract":"src/BtcMirror.sol:BtcMirror","label":"periodToTarget","offset":0,"slot":"3","type":"t_mapping(t_uint256,t_uint256)"},{"astId":47023,"contract":"src/BtcMirror.sol:BtcMirror","label":"isTestnet","offset":0,"slot":"4","type":"t_bool"}],"types":{"t_bool":{"encoding":"inplace","label":"bool","numberOfBytes":"1"},"t_bytes32":{"encoding":"inplace","label":"bytes32","numberOfBytes":"32"},"t_mapping(t_uint256,t_bytes32)":{"encoding":"mapping","key":"t_uint256","label":"mapping(uint256 => bytes32)","numberOfBytes":"32","value":"t_bytes32"},"t_mapping(t_uint256,t_uint256)":{"encoding":"mapping","key":"t_uint256","label":"mapping(uint256 => uint256)","numberOfBytes":"32","value":"t_uint256"},"t_uint256":{"encoding":"inplace","label":"uint256","numberOfBytes":"32"}}},"id":49}