{
  "address": "0xf1EEBabeBC1ce58e2e24B4f5e4b75d9f33d8aE67",
  "abi": [
    {
      "inputs": [
        {
          "internalType": "address",
          "name": "_endpoint",
          "type": "address"
        },
        {
          "internalType": "address",
          "name": "_delegate",
          "type": "address"
        },
        {
          "internalType": "uint32",
          "name": "_readChannel",
          "type": "uint32"
        },
        {
          "internalType": "uint32",
          "name": "_targetEid",
          "type": "uint32"
        },
        {
          "internalType": "address",
          "name": "_targetBtcMirror",
          "type": "address"
        }
      ],
      "stateMutability": "nonpayable",
      "type": "constructor"
    },
    {
      "inputs": [],
      "name": "InvalidDelegate",
      "type": "error"
    },
    {
      "inputs": [],
      "name": "InvalidEndpointCall",
      "type": "error"
    },
    {
      "inputs": [
        {
          "internalType": "bytes",
          "name": "options",
          "type": "bytes"
        }
      ],
      "name": "InvalidOptions",
      "type": "error"
    },
    {
      "inputs": [],
      "name": "LzTokenUnavailable",
      "type": "error"
    },
    {
      "inputs": [
        {
          "internalType": "uint32",
          "name": "eid",
          "type": "uint32"
        }
      ],
      "name": "NoPeer",
      "type": "error"
    },
    {
      "inputs": [
        {
          "internalType": "uint256",
          "name": "msgValue",
          "type": "uint256"
        }
      ],
      "name": "NotEnoughNative",
      "type": "error"
    },
    {
      "inputs": [
        {
          "internalType": "address",
          "name": "addr",
          "type": "address"
        }
      ],
      "name": "OnlyEndpoint",
      "type": "error"
    },
    {
      "inputs": [
        {
          "internalType": "uint32",
          "name": "eid",
          "type": "uint32"
        },
        {
          "internalType": "bytes32",
          "name": "sender",
          "type": "bytes32"
        }
      ],
      "name": "OnlyPeer",
      "type": "error"
    },
    {
      "inputs": [
        {
          "internalType": "address",
          "name": "owner",
          "type": "address"
        }
      ],
      "name": "OwnableInvalidOwner",
      "type": "error"
    },
    {
      "inputs": [
        {
          "internalType": "address",
          "name": "account",
          "type": "address"
        }
      ],
      "name": "OwnableUnauthorizedAccount",
      "type": "error"
    },
    {
      "inputs": [
        {
          "internalType": "uint8",
          "name": "bits",
          "type": "uint8"
        },
        {
          "internalType": "uint256",
          "name": "value",
          "type": "uint256"
        }
      ],
      "name": "SafeCastOverflowedUintDowncast",
      "type": "error"
    },
    {
      "inputs": [
        {
          "internalType": "address",
          "name": "token",
          "type": "address"
        }
      ],
      "name": "SafeERC20FailedOperation",
      "type": "error"
    },
    {
      "anonymous": false,
      "inputs": [
        {
          "indexed": true,
          "internalType": "uint256",
          "name": "latestHeight",
          "type": "uint256"
        },
        {
          "indexed": true,
          "internalType": "uint256",
          "name": "blockNumber",
          "type": "uint256"
        },
        {
          "indexed": true,
          "internalType": "bytes32",
          "name": "blockHash",
          "type": "bytes32"
        }
      ],
      "name": "DataReceived",
      "type": "event"
    },
    {
      "anonymous": false,
      "inputs": [
        {
          "components": [
            {
              "internalType": "uint32",
              "name": "eid",
              "type": "uint32"
            },
            {
              "internalType": "uint16",
              "name": "msgType",
              "type": "uint16"
            },
            {
              "internalType": "bytes",
              "name": "options",
              "type": "bytes"
            }
          ],
          "indexed": false,
          "internalType": "struct EnforcedOptionParam[]",
          "name": "_enforcedOptions",
          "type": "tuple[]"
        }
      ],
      "name": "EnforcedOptionSet",
      "type": "event"
    },
    {
      "anonymous": false,
      "inputs": [
        {
          "indexed": true,
          "internalType": "address",
          "name": "previousOwner",
          "type": "address"
        },
        {
          "indexed": true,
          "internalType": "address",
          "name": "newOwner",
          "type": "address"
        }
      ],
      "name": "OwnershipTransferred",
      "type": "event"
    },
    {
      "anonymous": false,
      "inputs": [
        {
          "indexed": false,
          "internalType": "uint32",
          "name": "eid",
          "type": "uint32"
        },
        {
          "indexed": false,
          "internalType": "bytes32",
          "name": "peer",
          "type": "bytes32"
        }
      ],
      "name": "PeerSet",
      "type": "event"
    },
    {
      "inputs": [],
      "name": "READ_CHANNEL",
      "outputs": [
        {
          "internalType": "uint32",
          "name": "",
          "type": "uint32"
        }
      ],
      "stateMutability": "view",
      "type": "function"
    },
    {
      "inputs": [],
      "name": "READ_TYPE",
      "outputs": [
        {
          "internalType": "uint16",
          "name": "",
          "type": "uint16"
        }
      ],
      "stateMutability": "view",
      "type": "function"
    },
    {
      "inputs": [
        {
          "components": [
            {
              "internalType": "uint32",
              "name": "srcEid",
              "type": "uint32"
            },
            {
              "internalType": "bytes32",
              "name": "sender",
              "type": "bytes32"
            },
            {
              "internalType": "uint64",
              "name": "nonce",
              "type": "uint64"
            }
          ],
          "internalType": "struct Origin",
          "name": "origin",
          "type": "tuple"
        }
      ],
      "name": "allowInitializePath",
      "outputs": [
        {
          "internalType": "bool",
          "name": "",
          "type": "bool"
        }
      ],
      "stateMutability": "view",
      "type": "function"
    },
    {
      "inputs": [
        {
          "internalType": "uint32",
          "name": "_eid",
          "type": "uint32"
        },
        {
          "internalType": "uint16",
          "name": "_msgType",
          "type": "uint16"
        },
        {
          "internalType": "bytes",
          "name": "_extraOptions",
          "type": "bytes"
        }
      ],
      "name": "combineOptions",
      "outputs": [
        {
          "internalType": "bytes",
          "name": "",
          "type": "bytes"
        }
      ],
      "stateMutability": "view",
      "type": "function"
    },
    {
      "inputs": [],
      "name": "endpoint",
      "outputs": [
        {
          "internalType": "contract ILayerZeroEndpointV2",
          "name": "",
          "type": "address"
        }
      ],
      "stateMutability": "view",
      "type": "function"
    },
    {
      "inputs": [
        {
          "internalType": "uint32",
          "name": "eid",
          "type": "uint32"
        },
        {
          "internalType": "uint16",
          "name": "msgType",
          "type": "uint16"
        }
      ],
      "name": "enforcedOptions",
      "outputs": [
        {
          "internalType": "bytes",
          "name": "enforcedOption",
          "type": "bytes"
        }
      ],
      "stateMutability": "view",
      "type": "function"
    },
    {
      "inputs": [
        {
          "internalType": "uint256",
          "name": "number",
          "type": "uint256"
        }
      ],
      "name": "getBlockHash",
      "outputs": [
        {
          "internalType": "bytes32",
          "name": "",
          "type": "bytes32"
        }
      ],
      "stateMutability": "view",
      "type": "function"
    },
    {
      "inputs": [],
      "name": "getLatestBlockHeight",
      "outputs": [
        {
          "internalType": "uint256",
          "name": "",
          "type": "uint256"
        }
      ],
      "stateMutability": "view",
      "type": "function"
    },
    {
      "inputs": [
        {
          "internalType": "uint256",
          "name": "blockNumber",
          "type": "uint256"
        }
      ],
      "name": "getLatestHeightAndBlockHash",
      "outputs": [
        {
          "internalType": "uint256",
          "name": "latestHeight",
          "type": "uint256"
        },
        {
          "internalType": "uint256",
          "name": "requestedBlockNumber",
          "type": "uint256"
        },
        {
          "internalType": "bytes32",
          "name": "blockHash",
          "type": "bytes32"
        }
      ],
      "stateMutability": "view",
      "type": "function"
    },
    {
      "inputs": [
        {
          "components": [
            {
              "internalType": "uint32",
              "name": "srcEid",
              "type": "uint32"
            },
            {
              "internalType": "bytes32",
              "name": "sender",
              "type": "bytes32"
            },
            {
              "internalType": "uint64",
              "name": "nonce",
              "type": "uint64"
            }
          ],
          "internalType": "struct Origin",
          "name": "",
          "type": "tuple"
        },
        {
          "internalType": "bytes",
          "name": "",
          "type": "bytes"
        },
        {
          "internalType": "address",
          "name": "_sender",
          "type": "address"
        }
      ],
      "name": "isComposeMsgSender",
      "outputs": [
        {
          "internalType": "bool",
          "name": "",
          "type": "bool"
        }
      ],
      "stateMutability": "view",
      "type": "function"
    },
    {
      "inputs": [
        {
          "components": [
            {
              "internalType": "uint32",
              "name": "srcEid",
              "type": "uint32"
            },
            {
              "internalType": "bytes32",
              "name": "sender",
              "type": "bytes32"
            },
            {
              "internalType": "uint64",
              "name": "nonce",
              "type": "uint64"
            }
          ],
          "internalType": "struct Origin",
          "name": "_origin",
          "type": "tuple"
        },
        {
          "internalType": "bytes32",
          "name": "_guid",
          "type": "bytes32"
        },
        {
          "internalType": "bytes",
          "name": "_message",
          "type": "bytes"
        },
        {
          "internalType": "address",
          "name": "_executor",
          "type": "address"
        },
        {
          "internalType": "bytes",
          "name": "_extraData",
          "type": "bytes"
        }
      ],
      "name": "lzReceive",
      "outputs": [],
      "stateMutability": "payable",
      "type": "function"
    },
    {
      "inputs": [
        {
          "internalType": "uint32",
          "name": "",
          "type": "uint32"
        },
        {
          "internalType": "bytes32",
          "name": "",
          "type": "bytes32"
        }
      ],
      "name": "nextNonce",
      "outputs": [
        {
          "internalType": "uint64",
          "name": "nonce",
          "type": "uint64"
        }
      ],
      "stateMutability": "view",
      "type": "function"
    },
    {
      "inputs": [],
      "name": "oAppVersion",
      "outputs": [
        {
          "internalType": "uint64",
          "name": "senderVersion",
          "type": "uint64"
        },
        {
          "internalType": "uint64",
          "name": "receiverVersion",
          "type": "uint64"
        }
      ],
      "stateMutability": "pure",
      "type": "function"
    },
    {
      "inputs": [],
      "name": "owner",
      "outputs": [
        {
          "internalType": "address",
          "name": "",
          "type": "address"
        }
      ],
      "stateMutability": "view",
      "type": "function"
    },
    {
      "inputs": [
        {
          "internalType": "uint32",
          "name": "eid",
          "type": "uint32"
        }
      ],
      "name": "peers",
      "outputs": [
        {
          "internalType": "bytes32",
          "name": "peer",
          "type": "bytes32"
        }
      ],
      "stateMutability": "view",
      "type": "function"
    },
    {
      "inputs": [
        {
          "internalType": "uint256",
          "name": "blockNumber",
          "type": "uint256"
        },
        {
          "internalType": "bytes",
          "name": "_extraOptions",
          "type": "bytes"
        }
      ],
      "name": "quoteReadFee",
      "outputs": [
        {
          "components": [
            {
              "internalType": "uint256",
              "name": "nativeFee",
              "type": "uint256"
            },
            {
              "internalType": "uint256",
              "name": "lzTokenFee",
              "type": "uint256"
            }
          ],
          "internalType": "struct MessagingFee",
          "name": "fee",
          "type": "tuple"
        }
      ],
      "stateMutability": "view",
      "type": "function"
    },
    {
      "inputs": [
        {
          "internalType": "uint256",
          "name": "blockNumber",
          "type": "uint256"
        },
        {
          "internalType": "bytes",
          "name": "_extraOptions",
          "type": "bytes"
        }
      ],
      "name": "readData",
      "outputs": [
        {
          "components": [
            {
              "internalType": "bytes32",
              "name": "guid",
              "type": "bytes32"
            },
            {
              "internalType": "uint64",
              "name": "nonce",
              "type": "uint64"
            },
            {
              "components": [
                {
                  "internalType": "uint256",
                  "name": "nativeFee",
                  "type": "uint256"
                },
                {
                  "internalType": "uint256",
                  "name": "lzTokenFee",
                  "type": "uint256"
                }
              ],
              "internalType": "struct MessagingFee",
              "name": "fee",
              "type": "tuple"
            }
          ],
          "internalType": "struct MessagingReceipt",
          "name": "receipt",
          "type": "tuple"
        }
      ],
      "stateMutability": "payable",
      "type": "function"
    },
    {
      "inputs": [],
      "name": "renounceOwnership",
      "outputs": [],
      "stateMutability": "nonpayable",
      "type": "function"
    },
    {
      "inputs": [
        {
          "internalType": "uint256",
          "name": "",
          "type": "uint256"
        }
      ],
      "name": "requestedBlockNumbers",
      "outputs": [
        {
          "internalType": "bool",
          "name": "",
          "type": "bool"
        }
      ],
      "stateMutability": "view",
      "type": "function"
    },
    {
      "inputs": [
        {
          "internalType": "address",
          "name": "_delegate",
          "type": "address"
        }
      ],
      "name": "setDelegate",
      "outputs": [],
      "stateMutability": "nonpayable",
      "type": "function"
    },
    {
      "inputs": [
        {
          "components": [
            {
              "internalType": "uint32",
              "name": "eid",
              "type": "uint32"
            },
            {
              "internalType": "uint16",
              "name": "msgType",
              "type": "uint16"
            },
            {
              "internalType": "bytes",
              "name": "options",
              "type": "bytes"
            }
          ],
          "internalType": "struct EnforcedOptionParam[]",
          "name": "_enforcedOptions",
          "type": "tuple[]"
        }
      ],
      "name": "setEnforcedOptions",
      "outputs": [],
      "stateMutability": "nonpayable",
      "type": "function"
    },
    {
      "inputs": [
        {
          "internalType": "uint32",
          "name": "_eid",
          "type": "uint32"
        },
        {
          "internalType": "bytes32",
          "name": "_peer",
          "type": "bytes32"
        }
      ],
      "name": "setPeer",
      "outputs": [],
      "stateMutability": "nonpayable",
      "type": "function"
    },
    {
      "inputs": [
        {
          "internalType": "uint32",
          "name": "_channelId",
          "type": "uint32"
        },
        {
          "internalType": "bool",
          "name": "_active",
          "type": "bool"
        }
      ],
      "name": "setReadChannel",
      "outputs": [],
      "stateMutability": "nonpayable",
      "type": "function"
    },
    {
      "inputs": [],
      "name": "targetBtcMirror",
      "outputs": [
        {
          "internalType": "address",
          "name": "",
          "type": "address"
        }
      ],
      "stateMutability": "view",
      "type": "function"
    },
    {
      "inputs": [],
      "name": "targetEid",
      "outputs": [
        {
          "internalType": "uint32",
          "name": "",
          "type": "uint32"
        }
      ],
      "stateMutability": "view",
      "type": "function"
    },
    {
      "inputs": [
        {
          "internalType": "address",
          "name": "newOwner",
          "type": "address"
        }
      ],
      "name": "transferOwnership",
      "outputs": [],
      "stateMutability": "nonpayable",
      "type": "function"
    }
  ],
  "transactionHash": "0x505acb4b4741c7697fee5ec751201ef00b5e0bd0fb993f34716a6e8a63ea39a4",
  "args": [
    "0x1a44076050125825900e736c501f859c50fE728c",
    "0x4d7bb17e7b9FB7e670A956c9A066169707C0DeF7",
    4294967295,
    30110,
    "0x36A1a65947F48a34d1c93BB1eF88b3652D79f0a7"
  ],
  "numDeployments": 1,
  "solcInputHash": "280c21bd7d426af96f5036d79f7269bf",
  "bytecode": "0x60e080604052346101f05760009060a081611dbe803803809161002282856101f5565b8339810103126101ec576100358161022e565b6100416020830161022e565b9061004e60408401610242565b90610067608061006060608701610242565b950161022e565b926001600160a01b031680156101d85785546001600160a01b03198116821787556040519287929182906001600160a01b03167f8be0079c531659141344cd1fd0a4f28419497f9722a3daafe3b4186f6b6457e08580a36001600160a01b0316608081905290813b156101d4578383819360249363ca5eb5e160e01b845260048401525af180156101c9579160409493917f238399d427b947898edb290f5ff0f9109849b1c3ba196a42e35f00c50a54b98b96936101b1575b5063ffffffff16928363ffffffff19600354161760035560a05260c052818152600160205282309120558151908152306020820152a1604051611b6a908161025482396080518181816102740152818161054b0152818161083001528181610aec01528181610c2201526118c6015260a0518181816109b40152611358015260c05181818161034201526113a40152f35b926101c28163ffffffff93956101f5565b9290610120565b6040513d87823e3d90fd5b8280fd5b631e4fbdf760e01b86526004869052602486fd5b5080fd5b600080fd5b601f909101601f19168101906001600160401b0382119082101761021857604052565b634e487b7160e01b600052604160045260246000fd5b51906001600160a01b03821682036101f057565b519063ffffffff821682036101f05756fe6080604052600436101561001257600080fd5b60003560e01c806313137d65146101b757806317442b70146101b257806330f9b700146101ad57806331cf1297146101a85780633400288b146101a35780633859d9371461019e5780633cd9a835146101995780635535d461146101945780635e280f111461018f578063639312ea1461018a578063715018a6146101855780637d25a05e1461018057806382413eac1461017b5780638da5cb5b146101765780639801c15214610171578063b98bd0701461016c578063bb0b6a5314610167578063bc70b35414610162578063ca5eb5e11461015d578063e875aa5d14610158578063e950ca9214610153578063ead53ca51461014e578063ee82ac5e14610149578063f0a9e48114610144578063f2fde38b1461013f5763ff7bd03d1461013a57600080fd5b610e07565b610d7a565b610d14565b610ce8565b610cac565b610b88565b610b6a565b610ac2565b610a6e565b610a33565b6109d8565b610997565b61096e565b610910565b6108e9565b610890565b61085f565b61081a565b6107ac565b61045f565b6103cc565b61039b565b610371565b61032c565b61030a565b610210565b60609060031901126101cd57600490565b600080fd5b9181601f840112156101cd578235916001600160401b0383116101cd57602083818601950101116101cd57565b6001600160a01b038116036101cd57565b60e03660031901126101cd57610225366101bc565b6084356001600160401b0381116101cd576102449036906004016101d2565b9061025060a4356101ff565b60c4356001600160401b0381116101cd5761026f9036906004016101d2565b5050337f00000000000000000000000000000000000000000000000000000000000000006001600160a01b0316036102f55782356102ac8161038d565b60206102b78261114e565b9401358094036102cd576102cb8383611182565b005b63ffffffff816102dd869361038d565b63309afaf360e21b6000521660045260245260446000fd5b6391ac5e4f60e01b6000523360045260246000fd5b346101cd5760003660031901126101cd57604080516001815260026020820152f35b346101cd5760003660031901126101cd576040517f00000000000000000000000000000000000000000000000000000000000000006001600160a01b03168152602090f35b346101cd5760003660031901126101cd57602060405160018152f35b63ffffffff8116036101cd57565b346101cd5760403660031901126101cd576102cb6004356103bb8161038d565b602435906103c76111d8565b611201565b346101cd5760003660031901126101cd57602063ffffffff60035416604051908152f35b9060406003198301126101cd5760043591602435906001600160401b0382116101cd5761041f916004016101d2565b9091565b61045d909291926040806080830195805184526001600160401b036020820151166020850152015191019060208091805184520151910152565b565b610547608061052a6104b3610473366103f0565b6104809492939194610e85565b5061048a84611308565b9360005260066020526040600020600160ff1982541617905563ffffffff600354169485611065565b91604051926104c36040856106a1565b348452600060208501526104d5610e85565b5060206104e28551611898565b9401918251806105cc575b506104f78661114e565b9251151592610513610507610e4e565b63ffffffff9098168852565b602087015260408601526060850152151584840152565b60405180809581946302637a4560e41b8352339060048401611458565b03917f00000000000000000000000000000000000000000000000000000000000000006001600160a01b03165af180156105c75761059491600091610598575b5060405191829182610423565b0390f35b6105ba915060803d6080116105c0575b6105b281836106a1565b81019061140f565b38610587565b503d6105a8565b611142565b6105d5906118b7565b386104ed565b6024359061ffff821682036101cd57565b359061ffff821682036101cd57565b90600182811c9216801561062b575b602083101461061557565b634e487b7160e01b600052602260045260246000fd5b91607f169161060a565b634e487b7160e01b600052604160045260246000fd5b604081019081106001600160401b0382111761066657604052565b610635565b606081019081106001600160401b0382111761066657604052565b60e081019081106001600160401b0382111761066657604052565b90601f801991011681019081106001600160401b0382111761066657604052565b90604051918260008254926106d6846105fb565b808452936001811690811561074257506001146106fb575b5061045d925003836106a1565b90506000929192526020600020906000915b81831061072657505090602061045d92820101386106ee565b602091935080600191548385890101520191019091849261070d565b90506020925061045d94915060ff191682840152151560051b820101386106ee565b60005b8381106107775750506000910152565b8181015183820152602001610767565b906020916107a081518092818552858086019101610764565b601f01601f1916010190565b346101cd5760403660031901126101cd576105946108066108016004356107d28161038d565b63ffffffff6107df6105db565b9116600052600260205260406000209061ffff16600052602052604060002090565b6106c2565b604051918291602083526020830190610787565b346101cd5760003660031901126101cd576040517f00000000000000000000000000000000000000000000000000000000000000006001600160a01b03168152602090f35b346101cd5760203660031901126101cd576004356000526006602052602060ff604060002054166040519015158152f35b346101cd5760003660031901126101cd576108a96111d8565b600080546001600160a01b0319811682556001600160a01b03167f8be0079c531659141344cd1fd0a4f28419497f9722a3daafe3b4186f6b6457e08280a3005b346101cd5760403660031901126101cd5761090560043561038d565b602060405160008152f35b346101cd5760a03660031901126101cd5761092a366101bc565b506064356001600160401b0381116101cd5761094a9036906004016101d2565b5050602060843561095a816101ff565b6040516001600160a01b0390911630148152f35b346101cd5760003660031901126101cd576000546040516001600160a01b039091168152602090f35b346101cd5760003660031901126101cd57602060405163ffffffff7f0000000000000000000000000000000000000000000000000000000000000000168152f35b346101cd5760203660031901126101cd576004356001600160401b0381116101cd57366023820112156101cd5780600401356001600160401b0381116101cd573660248260051b840101116101cd5760246102cb9201610ead565b346101cd5760203660031901126101cd5763ffffffff600435610a558161038d565b1660005260016020526020604060002054604051908152f35b346101cd5760603660031901126101cd57600435610a8b8161038d565b610a936105db565b604435906001600160401b0382116101cd5761059492610aba6108069336906004016101d2565b929091611110565b346101cd5760006020366003190112610b675780600435610ae2816101ff565b610aea6111d8565b7f00000000000000000000000000000000000000000000000000000000000000006001600160a01b0316803b15610b635760405163ca5eb5e160e01b81526001600160a01b0390921660048301529091908290602490829084905af180156105c7578290610b555780f35b610b5e916106a1565b388180f35b5050fd5b80fd5b346101cd5760003660031901126101cd576020600554604051908152f35b346101cd57610c1e6040610bc4610b9e366103f0565b610baa93919293610e6c565b50610bbd63ffffffff6003541694611308565b9284611065565b90610bcd610e6c565b50610bd78361114e565b610bee610be2610e4e565b63ffffffff9095168552565b602084015283830152606082015260006080820152815180938192631bb8518b60e31b8352309060048401611458565b03817f00000000000000000000000000000000000000000000000000000000000000006001600160a01b03165afa80156105c75761059491600091610c7d575b5060405191829182815181526020918201519181019190915260400190565b610c9f915060403d604011610ca5575b610c9781836106a1565b81019061176d565b38610c5e565b503d610c8d565b346101cd5760203660031901126101cd576060600435600554908060005260046020526040600020549060405192835260208301526040820152f35b346101cd5760203660031901126101cd5760043560005260046020526020604060002054604051908152f35b346101cd5760403660031901126101cd57600435610d318161038d565b6024359081151582036101cd5763ffffffff91610d4c6111d8565b15610d7057610d5c305b82611201565b1663ffffffff196003541617600355600080f35b610d5c6000610d56565b346101cd5760203660031901126101cd57600435610d97816101ff565b610d9f6111d8565b6001600160a01b03168015610df157600080546001600160a01b03198116831782556001600160a01b0316907f8be0079c531659141344cd1fd0a4f28419497f9722a3daafe3b4186f6b6457e09080a3005b631e4fbdf760e01b600052600060045260246000fd5b346101cd5760603660031901126101cd576020610e23366101bc565b63ffffffff8135610e338161038d565b16600052600182528160406000205491013560405191148152f35b6040519061045d60a0836106a1565b6040519061045d60e0836106a1565b60405190610e798261064b565b60006020838281520152565b60405190610e928261066b565b8160008152600060208201526040610ea8610e6c565b910152565b90610eb66111d8565b610ebf81610f86565b91610ecd60405193846106a1565b818352602083019160051b8101903682116101cd5780925b828410610ef9575050505061045d9061166e565b83356001600160401b0381116101cd578201906060823603126101cd5760405191610f238361066b565b8035610f2e8161038d565b8352610f3c602082016105ec565b60208401526040810135906001600160401b0382116101cd57019036601f830112156101cd57602092610f76849336908581359101610f9d565b6040820152815201930192610ee5565b6001600160401b0381116106665760051b60200190565b9291926001600160401b0382116106665760405191610fc6601f8201601f1916602001846106a1565b8294818452818301116101cd578281602093846000960137010152565b90929192836002116101cd5783116101cd57600201916001190190565b60208361045d939594956040519684611022899651809287808a019101610764565b8501918483013701016000815203601f1981018452836106a1565b90918060409360208452816020850152848401376000828201840152601f01601f1916010190565b63ffffffff9093919293166000526002602052611098610801600160406000209061ffff16600052602052604060002090565b8051156111025783156110fc5760028410156110d05750506110cc604051928392639a6d49cd60e01b84526004840161103d565b0390fd5b9092806110f3916110f9946110ee6110e9368484610f9d565b611735565b610fe3565b91611000565b90565b92509050565b5091906110f9913691610f9d565b6110989163ffffffff610801929694959616600052600260205260406000209061ffff16600052602052604060002090565b6040513d6000823e3d90fd5b63ffffffff1680600052600160205260406000205490811561116e575090565b63f6ff4fb760e01b60005260045260246000fd5b9081606091810103126101cd57803590604060208201359101359180600555816000526004602052826040600020557f4a8004c95b062eb78ffd36e9868e837a2182f598253f15df20090ba591b06383600080a4565b6000546001600160a01b031633036111ec57565b63118cdaa760e01b6000523360045260246000fd5b7f238399d427b947898edb290f5ff0f9109849b1c3ba196a42e35f00c50a54b98b9163ffffffff604092169081600052600160205280836000205582519182526020820152a1565b6112536001610f86565b9061126160405192836106a1565b6001825281601f196112736001610f86565b019060005b82811061128457505050565b60209060405161129381610686565b60008152600083820152600060408201526000606082015260006080820152600060a0820152606060c082015282828501015201611278565b634e487b7160e01b600052603260045260246000fd5b8051156112ef5760200190565b6112cc565b80518210156112ef5760209160051b010190565b60405163ead53ca560e01b602082015260248101919091526110f99061133b81604481015b03601f1981018352826106a1565b611343611249565b9061134c610e5d565b600181529063ffffffff7f000000000000000000000000000000000000000000000000000000000000000016602083015260006040830152426001600160401b03166060830152600560808301526001600160a01b037f00000000000000000000000000000000000000000000000000000000000000001660a083015260c08201526113d7826112e2565b526113e1816112e2565b50611781565b91908260409103126101cd576040516113ff8161064b565b6020808294805184520151910152565b6080818303126101cd57604051916114268361066b565b8151835260208201516001600160401b03811681036101cd576020840152611450916040016113e7565b604082015290565b906020909392936040835263ffffffff815116604084015281810151606084015260806114ac611496604084015160a08488015260e0870190610787565b6060840151868203603f190160a0880152610787565b910151151560c08401526001600160a01b03909416910152565b601f82116114d357505050565b6000526020600020906020601f840160051c8301931061150e575b601f0160051c01905b818110611502575050565b600081556001016114f7565b90915081906114ee565b91909182516001600160401b0381116106665761153f8161153984546105fb565b846114c6565b6020601f8211600114611580578190611571939495600092611575575b50508160011b916000199060031b1c19161790565b9055565b01519050388061155c565b601f1982169061159584600052602060002090565b9160005b8181106115d1575095836001959697106115b8575b505050811b019055565b015160001960f88460031b161c191690553880806115ae565b9192602060018192868b015181550194019201611599565b602081016020825282518091526040820191602060408360051b8301019401926000915b83831061161c57505050505090565b909192939460208061165f600193603f19868203018752606060408b5163ffffffff815116845261ffff8682015116868501520151918160408201520190610787565b9701930193019193929061160d565b60005b81518110156116fe5780611694604061168c600194866112f4565b510151611735565b6116f860406116a383866112f4565b51015163ffffffff6116b584876112f4565b51511660005260026020526116f360406000206116e160206116d7878a6112f4565b51015161ffff1690565b61ffff16600052602052604060002090565b611518565b01611671565b506117307fbe4864a8e820971c0247f5992e2da559595f7bf076a21cb5928d443d2a13b67491604051918291826115e9565b0390a1565b600361ffff600283015116036117485750565b604051639a6d49cd60e01b8152602060048201529081906110cc906024830190610787565b906040828203126101cd576110f9916113e7565b9061178c8251611970565b604051600160f01b60208201526000602282015260f09190911b6001600160f01b0319166024820152600681526117c46026826106a1565b6000905b83518210156118935760019061188b6117e184876112f4565b5161132d6117f1825161ffff1690565b9161183960c082019561182b61181061180b895151611999565b611970565b602085015163ffffffff1690604051978894602086016119bd565b03601f1981018552846106a1565b604081015115159461185560608301516001600160401b031690565b9161187960a061186a608084015161ffff1690565b9201516001600160a01b031690565b91519260405197889660208801611a1f565b9101906117c8565b925050565b8034036118a25790565b6304fb820960e51b6000523460045260246000fd5b60405163393f876560e21b81527f00000000000000000000000000000000000000000000000000000000000000006001600160a01b03169190602081600481865afa9081156105c757600091611935575b506001600160a01b03169182156119245761045d923390611a9a565b6329b99a9560e11b60005260046000fd5b90506020813d602011611968575b81611950602093836106a1565b810103126101cd5751611962816101ff565b38611908565b3d9150611943565b61ffff81116119805761ffff1690565b6306dfcc6560e41b600052601060045260245260446000fd5b90602382018092116119a757565b634e487b7160e01b600052601160045260246000fd5b6020906119d5600b9694959382815194859201610764565b600160f81b910190815260f093841b6001600160f01b03199081166001830152600160f01b60038301529190931b16600583015260e01b6001600160e01b03191660078201520190565b602090611a3a601f9897959396949682815194859201610764565b94151560f81b940193845260c01b6001600160c01b031916600184015260f01b6001600160f01b031916600983015260601b6bffffffffffffffffffffffff1916600b820152815191611a9590839085840190602001610764565b010190565b6040516323b872dd60e01b60208083019182526001600160a01b0394851660248401529490931660448201526064808201959095529384529260009190611ae26084826106a1565b519082855af115611142576000513d611b2b57506001600160a01b0381163b155b611b0a5750565b635274afe760e01b60009081526001600160a01b0391909116600452602490fd5b60011415611b0356fea2646970667358221220c498d17070b27ab58363ed4c86fdeeee98d3b0b18895f149fbd41e880da58f5a64736f6c634300081e0033",
  "devdoc": {
    "errors": {
      "OwnableInvalidOwner(address)": [
        {
          "details": "The owner is not a valid owner account. (eg. `address(0)`)"
        }
      ],
      "OwnableUnauthorizedAccount(address)": [
        {
          "details": "The caller account is not authorized to perform an operation."
        }
      ],
      "SafeCastOverflowedUintDowncast(uint8,uint256)": [
        {
          "details": "Value doesn't fit in an uint of `bits` size."
        }
      ],
      "SafeERC20FailedOperation(address)": [
        {
          "details": "An operation with an ERC-20 token failed."
        }
      ]
    },
    "events": {
      "DataReceived(uint256,uint256,bytes32)": {
        "params": {
          "blockHash": "The block hash",
          "blockNumber": "The requested block number",
          "latestHeight": "The latest block height"
        }
      }
    },
    "kind": "dev",
    "methods": {
      "allowInitializePath((uint32,bytes32,uint64))": {
        "details": "This indicates to the endpoint that the OApp has enabled msgs for this particular path to be received.This defaults to assuming if a peer has been set, its initialized. Can be overridden by the OApp if there is other logic to determine this.",
        "params": {
          "origin": "The origin information containing the source endpoint and sender address."
        },
        "returns": {
          "_0": "Whether the path has been initialized."
        }
      },
      "combineOptions(uint32,uint16,bytes)": {
        "details": "If there is an enforced lzReceive option: - {gasLimit: 200k, msg.value: 1 ether} AND a caller supplies a lzReceive option: {gasLimit: 100k, msg.value: 0.5 ether} - The resulting options will be {gasLimit: 300k, msg.value: 1.5 ether} when the message is executed on the remote lzReceive() function.This presence of duplicated options is handled off-chain in the verifier/executor.",
        "params": {
          "_eid": "The endpoint ID.",
          "_extraOptions": "Additional options passed by the caller.",
          "_msgType": "The OAPP message type."
        },
        "returns": {
          "_0": "options The combination of caller specified options AND enforced options."
        }
      },
      "constructor": {
        "params": {
          "_delegate": "The address that will have ownership privileges",
          "_endpoint": "The LayerZero endpoint contract address",
          "_readChannel": "The LayerZero read channel ID",
          "_targetBtcMirror": "The BtcMirror contract address on target chain",
          "_targetEid": "The target chain endpoint ID where BtcMirror is deployed"
        }
      },
      "getBlockHash(uint256)": {
        "params": {
          "number": "The Bitcoin block number"
        },
        "returns": {
          "_0": "blockHash The received block hash (zero if not received)"
        }
      },
      "getLatestBlockHeight()": {
        "returns": {
          "_0": "latestHeight The received latest height"
        }
      },
      "getLatestHeightAndBlockHash(uint256)": {
        "details": "Compatible with BtcMirror.getLatestHeightAndBlockHash for unified ABI",
        "params": {
          "blockNumber": "The specific block number to get hash for"
        },
        "returns": {
          "blockHash": "The hash of the requested block from received data",
          "latestHeight": "The latest block height from received data",
          "requestedBlockNumber": "The requested block number (echoed back)"
        }
      },
      "isComposeMsgSender((uint32,bytes32,uint64),bytes,address)": {
        "details": "_origin The origin information containing the source endpoint and sender address.  - srcEid: The source chain endpoint ID.  - sender: The sender address on the src chain.  - nonce: The nonce of the message._message The lzReceive payload.Applications can optionally choose to implement separate composeMsg senders that are NOT the bridging layer.The default sender IS the OAppReceiver implementer.",
        "params": {
          "_sender": "The sender address."
        },
        "returns": {
          "_0": "isSender Is a valid sender."
        }
      },
      "lzReceive((uint32,bytes32,uint64),bytes32,bytes,address,bytes)": {
        "details": "Entry point for receiving messages or packets from the endpoint.Entry point for receiving msg/packet from the LayerZero endpoint.",
        "params": {
          "_executor": "The address of the executor for the received message.",
          "_extraData": "Additional arbitrary data provided by the corresponding executor.",
          "_guid": "The unique identifier for the received LayerZero message.",
          "_message": "The payload of the received message.",
          "_origin": "The origin information containing the source endpoint and sender address.  - srcEid: The source chain endpoint ID.  - sender: The sender address on the src chain.  - nonce: The nonce of the message."
        }
      },
      "nextNonce(uint32,bytes32)": {
        "details": "_srcEid The source endpoint ID._sender The sender address.The path nonce starts from 1. If 0 is returned it means that there is NO nonce ordered enforcement.Is required by the off-chain executor to determine the OApp expects msg execution is ordered.This is also enforced by the OApp.By default this is NOT enabled. ie. nextNonce is hardcoded to return 0.",
        "returns": {
          "nonce": "The next nonce."
        }
      },
      "oAppVersion()": {
        "returns": {
          "receiverVersion": "The version of the OAppReceiver.sol implementation.",
          "senderVersion": "The version of the OAppSender.sol implementation."
        }
      },
      "owner()": {
        "details": "Returns the address of the current owner."
      },
      "quoteReadFee(uint256,bytes)": {
        "params": {
          "_extraOptions": "Additional messaging options",
          "blockNumber": "The Bitcoin block number to read"
        },
        "returns": {
          "fee": "The estimated messaging fee"
        }
      },
      "readData(uint256,bytes)": {
        "details": "The caller must send enough ETH to cover the messaging fee",
        "params": {
          "_extraOptions": "Additional messaging options",
          "blockNumber": "The Bitcoin block number to get hash for"
        },
        "returns": {
          "receipt": "The LayerZero messaging receipt for the request"
        }
      },
      "renounceOwnership()": {
        "details": "Leaves the contract without owner. It will not be possible to call `onlyOwner` functions. Can only be called by the current owner. NOTE: Renouncing ownership will leave the contract without an owner, thereby disabling any functionality that is only available to the owner."
      },
      "setDelegate(address)": {
        "details": "Only the owner/admin of the OApp can call this function.Provides the ability for a delegate to set configs, on behalf of the OApp, directly on the Endpoint contract.",
        "params": {
          "_delegate": "The address of the delegate to be set."
        }
      },
      "setEnforcedOptions((uint32,uint16,bytes)[])": {
        "details": "Sets the enforced options for specific endpoint and message type combinations.Only the owner/admin of the OApp can call this function.Provides a way for the OApp to enforce things like paying for PreCrime, AND/OR minimum dst lzReceive gas amounts etc.These enforced options can vary as the potential options/execution on the remote may differ as per the msgType. eg. Amount of lzReceive() gas necessary to deliver a lzCompose() message adds overhead you dont want to pay if you are only making a standard LayerZero message ie. lzReceive() WITHOUT sendCompose().",
        "params": {
          "_enforcedOptions": "An array of EnforcedOptionParam structures specifying enforced options."
        }
      },
      "setPeer(uint32,bytes32)": {
        "details": "Only the owner/admin of the OApp can call this function.Indicates that the peer is trusted to send LayerZero messages to this OApp.Set this to bytes32(0) to remove the peer address.Peer is a bytes32 to accommodate non-evm chains.",
        "params": {
          "_eid": "The endpoint ID.",
          "_peer": "The address of the peer to be associated with the corresponding endpoint."
        }
      },
      "setReadChannel(uint32,bool)": {
        "params": {
          "_active": "Flag to activate or deactivate the channel",
          "_channelId": "The channel ID to set"
        }
      },
      "transferOwnership(address)": {
        "details": "Transfers ownership of the contract to a new account (`newOwner`). Can only be called by the current owner."
      }
    },
    "title": "LzBtcMirror",
    "version": 1
  },
  "userdoc": {
    "events": {
      "DataReceived(uint256,uint256,bytes32)": {
        "notice": "Emitted when combined data is received from target chain"
      }
    },
    "kind": "user",
    "methods": {
      "READ_CHANNEL()": {
        "notice": "LayerZero read channel ID"
      },
      "READ_TYPE()": {
        "notice": "Message type for the read operation."
      },
      "allowInitializePath((uint32,bytes32,uint64))": {
        "notice": "Checks if the path initialization is allowed based on the provided origin."
      },
      "combineOptions(uint32,uint16,bytes)": {
        "notice": "Combines options for a given endpoint and message type."
      },
      "constructor": {
        "notice": "Constructor to initialize the LzBtcMirror contract"
      },
      "endpoint()": {
        "notice": "Retrieves the LayerZero endpoint associated with the OApp."
      },
      "getBlockHash(uint256)": {
        "notice": "Get received block hash (compatible with BtcMirror.getBlockHash)"
      },
      "getLatestBlockHeight()": {
        "notice": "Get received latest height (compatible with BtcMirror.getLatestBlockHeight)"
      },
      "getLatestHeightAndBlockHash(uint256)": {
        "notice": "Returns latest block height and specific block hash in one call"
      },
      "isComposeMsgSender((uint32,bytes32,uint64),bytes,address)": {
        "notice": "Indicates whether an address is an approved composeMsg sender to the Endpoint."
      },
      "nextNonce(uint32,bytes32)": {
        "notice": "Retrieves the next nonce for a given source endpoint and sender address."
      },
      "oAppVersion()": {
        "notice": "Retrieves the OApp version information."
      },
      "peers(uint32)": {
        "notice": "Retrieves the peer (OApp) associated with a corresponding endpoint."
      },
      "quoteReadFee(uint256,bytes)": {
        "notice": "Estimates the messaging fee required to perform the read operation."
      },
      "readData(uint256,bytes)": {
        "notice": "Sends a read request to fetch latest height and block hash from target BtcMirror"
      },
      "requestedBlockNumbers(uint256)": {
        "notice": "Storage for requested block number"
      },
      "setDelegate(address)": {
        "notice": "Sets the delegate address for the OApp."
      },
      "setPeer(uint32,bytes32)": {
        "notice": "Sets the peer address (OApp instance) for a corresponding endpoint."
      },
      "setReadChannel(uint32,bool)": {
        "notice": "Sets the LayerZero read channel"
      },
      "targetBtcMirror()": {
        "notice": "BtcMirror contract address on target chain"
      },
      "targetEid()": {
        "notice": "Target chain ID where BtcMirror is deployed"
      }
    },
    "notice": "A LayerZero OAppRead contract to read Bitcoin block data from target chain BtcMirror",
    "version": 1
  },
  "storageLayout": {
    "storage": [
      {
        "astId": 3134,
        "contract": "src/LzBtcMirror.sol:LzBtcMirror",
        "label": "_owner",
        "offset": 0,
        "slot": "0",
        "type": "t_address"
      },
      {
        "astId": 938,
        "contract": "src/LzBtcMirror.sol:LzBtcMirror",
        "label": "peers",
        "offset": 0,
        "slot": "1",
        "type": "t_mapping(t_uint32,t_bytes32)"
      },
      {
        "astId": 1582,
        "contract": "src/LzBtcMirror.sol:LzBtcMirror",
        "label": "enforcedOptions",
        "offset": 0,
        "slot": "2",
        "type": "t_mapping(t_uint32,t_mapping(t_uint16,t_bytes_storage))"
      },
      {
        "astId": 8391,
        "contract": "src/LzBtcMirror.sol:LzBtcMirror",
        "label": "READ_CHANNEL",
        "offset": 0,
        "slot": "3",
        "type": "t_uint32"
      },
      {
        "astId": 8406,
        "contract": "src/LzBtcMirror.sol:LzBtcMirror",
        "label": "receivedBlockHashes",
        "offset": 0,
        "slot": "4",
        "type": "t_mapping(t_uint256,t_bytes32)"
      },
      {
        "astId": 8408,
        "contract": "src/LzBtcMirror.sol:LzBtcMirror",
        "label": "receivedLatestHeight",
        "offset": 0,
        "slot": "5",
        "type": "t_uint256"
      },
      {
        "astId": 8413,
        "contract": "src/LzBtcMirror.sol:LzBtcMirror",
        "label": "requestedBlockNumbers",
        "offset": 0,
        "slot": "6",
        "type": "t_mapping(t_uint256,t_bool)"
      }
    ],
    "types": {
      "t_address": {
        "encoding": "inplace",
        "label": "address",
        "numberOfBytes": "20"
      },
      "t_bool": {
        "encoding": "inplace",
        "label": "bool",
        "numberOfBytes": "1"
      },
      "t_bytes32": {
        "encoding": "inplace",
        "label": "bytes32",
        "numberOfBytes": "32"
      },
      "t_bytes_storage": {
        "encoding": "bytes",
        "label": "bytes",
        "numberOfBytes": "32"
      },
      "t_mapping(t_uint16,t_bytes_storage)": {
        "encoding": "mapping",
        "key": "t_uint16",
        "label": "mapping(uint16 => bytes)",
        "numberOfBytes": "32",
        "value": "t_bytes_storage"
      },
      "t_mapping(t_uint256,t_bool)": {
        "encoding": "mapping",
        "key": "t_uint256",
        "label": "mapping(uint256 => bool)",
        "numberOfBytes": "32",
        "value": "t_bool"
      },
      "t_mapping(t_uint256,t_bytes32)": {
        "encoding": "mapping",
        "key": "t_uint256",
        "label": "mapping(uint256 => bytes32)",
        "numberOfBytes": "32",
        "value": "t_bytes32"
      },
      "t_mapping(t_uint32,t_bytes32)": {
        "encoding": "mapping",
        "key": "t_uint32",
        "label": "mapping(uint32 => bytes32)",
        "numberOfBytes": "32",
        "value": "t_bytes32"
      },
      "t_mapping(t_uint32,t_mapping(t_uint16,t_bytes_storage))": {
        "encoding": "mapping",
        "key": "t_uint32",
        "label": "mapping(uint32 => mapping(uint16 => bytes))",
        "numberOfBytes": "32",
        "value": "t_mapping(t_uint16,t_bytes_storage)"
      },
      "t_uint16": {
        "encoding": "inplace",
        "label": "uint16",
        "numberOfBytes": "2"
      },
      "t_uint256": {
        "encoding": "inplace",
        "label": "uint256",
        "numberOfBytes": "32"
      },
      "t_uint32": {
        "encoding": "inplace",
        "label": "uint32",
        "numberOfBytes": "4"
      }
    }
  }
}