{"abi":[{"type":"constructor","inputs":[{"name":"_mirror","type":"address","internalType":"contract IBtcMirror"}],"stateMutability":"nonpayable"},{"type":"function","name":"mirror","inputs":[],"outputs":[{"name":"","type":"address","internalType":"contract IBtcMirror"}],"stateMutability":"view"},{"type":"function","name":"verifyPayment","inputs":[{"name":"minConfirmations","type":"uint256","internalType":"uint256"},{"name":"blockNum","type":"uint256","internalType":"uint256"},{"name":"inclusionProof","type":"tuple","internalType":"struct BtcTxProof","components":[{"name":"blockHeader","type":"bytes","internalType":"bytes"},{"name":"txId","type":"bytes32","internalType":"bytes32"},{"name":"txIndex","type":"uint256","internalType":"uint256"},{"name":"txMerkleProof","type":"bytes","internalType":"bytes"},{"name":"rawTx","type":"bytes","internalType":"bytes"}]},{"name":"txOutIx","type":"uint256","internalType":"uint256"},{"name":"destScriptHash","type":"bytes32","internalType":"bytes32"},{"name":"amountSats","type":"uint256","internalType":"uint256"},{"name":"to","type":"address","internalType":"address"}],"outputs":[{"name":"","type":"bool","internalType":"bool"}],"stateMutability":"view"}],"bytecode":{"object":"0x60a060405234801561000f575f5ffd5b50604051612464380380612464833981810160405281019061003191906100da565b8073ffffffffffffffffffffffffffffffffffffffff1660808173ffffffffffffffffffffffffffffffffffffffff168152505050610105565b5f5ffd5b5f73ffffffffffffffffffffffffffffffffffffffff82169050919050565b5f6100988261006f565b9050919050565b5f6100a98261008e565b9050919050565b6100b98161009f565b81146100c3575f5ffd5b50565b5f815190506100d4816100b0565b92915050565b5f602082840312156100ef576100ee61006b565b5b5f6100fc848285016100c6565b91505092915050565b60805161233a61012a5f395f8181608a015281816101b801526102af015261233a5ff3fe608060405234801561000f575f5ffd5b5060043610610034575f3560e01c8063337d1fd814610038578063444d917214610068575b5f5ffd5b610052600480360381019061004d91906115e0565b610086565b60405161005f91906116b3565b60405180910390f35b6100706102ad565b60405161007d9190611727565b60405180910390f35b5f5f7f000000000000000000000000000000000000000000000000000000000000000073ffffffffffffffffffffffffffffffffffffffff1663e875aa5d6040518163ffffffff1660e01b8152600401602060405180830381865afa1580156100f1573d5f5f3e3d5ffd5b505050506040513d601f19601f820116820180604052508101906101159190611754565b90508781101561015a576040517f08c379a0000000000000000000000000000000000000000000000000000000008152600401610151906117ff565b60405180910390fd5b8789610166919061184a565b600182610173919061184a565b10156101b4576040517f08c379a00000000000000000000000000000000000000000000000000000000081526004016101ab906118ed565b60405180910390fd5b505f7f000000000000000000000000000000000000000000000000000000000000000073ffffffffffffffffffffffffffffffffffffffff1663ee82ac5e896040518263ffffffff1660e01b815260040161020f919061191a565b602060405180830381865afa15801561022a573d5f5f3e3d5ffd5b505050506040513d601f19601f8201168201806040525081019061024e9190611947565b905061025e8188888888886102d1565b61029d576040517f08c379a0000000000000000000000000000000000000000000000000000000008152600401610294906119bc565b60405180910390fd5b6001915050979650505050505050565b7f000000000000000000000000000000000000000000000000000000000000000081565b5f866102ea87805f01906102e591906119e6565b6106af565b1461032a576040517f08c379a000000000000000000000000000000000000000000000000000000000815260040161032190611a92565b60405180910390fd5b5f61034287805f019061033d91906119e6565b610793565b90505f610367886020013589604001358a806060019061036291906119e6565b6107ca565b90508082146103ab576040517f08c379a00000000000000000000000000000000000000000000000000000000081526004016103a290611afa565b60405180910390fd5b87602001356103c88980608001906103c391906119e6565b6108d6565b14610408576040517f08c379a00000000000000000000000000000000000000000000000000000000081526004016103ff90611b62565b60405180910390fd5b5f61042189806080019061041c91906119e6565b61093c565b90506002816060015151101561046c576040517f08c379a000000000000000000000000000000000000000000000000000000000815260040161046390611bf0565b60405180910390fd5b80606001515188106104b3576040517f08c379a00000000000000000000000000000000000000000000000000000000081526004016104aa90611c58565b60405180910390fd5b5f81606001515f815181106104cb576104ca611c76565b5b602002602001015190505f6104ee826020015163ffffffff168360400151610e99565b90505f73ffffffffffffffffffffffffffffffffffffffff168173ffffffffffffffffffffffffffffffffffffffff160361055e576040517f08c379a000000000000000000000000000000000000000000000000000000000815260040161055590611ced565b60405180910390fd5b8673ffffffffffffffffffffffffffffffffffffffff168173ffffffffffffffffffffffffffffffffffffffff16146105cc576040517f08c379a00000000000000000000000000000000000000000000000000000000081526004016105c390611d55565b60405180910390fd5b5f83606001518b815181106105e4576105e3611c76565b5b602002602001015190505f610607826020015163ffffffff168360400151610f63565b9050808b1461064b576040517f08c379a000000000000000000000000000000000000000000000000000000000815260040161064290611dbd565b60405180910390fd5b89825f015167ffffffffffffffff161461069a576040517f08c379a000000000000000000000000000000000000000000000000000000000815260040161069190611e25565b60405180910390fd5b60019750505050505050509695505050505050565b5f605083839050146106bf575f5ffd5b5f60028085856040516106d3929190611e7f565b602060405180830381855afa1580156106ee573d5f5f3e3d5ffd5b5050506040513d601f19601f820116820180604052508101906107119190611947565b6040516020016107219190611eb7565b60405160208183030381529060405260405161073d9190611f19565b602060405180830381855afa158015610758573d5f5f3e3d5ffd5b5050506040513d601f19601f8201168201806040525081019061077b9190611947565b9050610788815f1c61102b565b5f1b91505092915050565b5f605083839050146107a3575f5ffd5b82826024906044926107b793929190611f37565b906107c29190611f87565b905092915050565b5f5f6107d7865f1c61102b565b5f1b90505f6020858590506107ec9190612012565b90505f5f90505b818110156108c8575f610847878760208561080e9190612042565b90602060018761081e919061184a565b6108289190612042565b9261083593929190611f37565b906108409190611f87565b5f1c61102b565b5f1b90505f60018916036108865761087f848260405160200161086b929190612083565b60405160208183030381529060405261111d565b93506108b3565b6108b0818560405160200161089c929190612083565b60405160208183030381529060405261111d565b93505b600188901c97505080806001019150506107f3565b508192505050949350505050565b5f5f61092484848080601f0160208091040260200160405190810160405280939291908181526020018383808284375f81840152601f19601f8201169050808301925050505050505061111d565b9050610931815f1c61102b565b5f1b91505092915050565b610944611451565b61096d83835f9060049261095a93929190611f37565b9061096591906120d9565b60e01c6111de565b816020019063ffffffff16908163ffffffff16815250506001816020015163ffffffff1610806109a757506002816020015163ffffffff16115b610e93575f600490505f6109bc858584611224565b80935081925050508067ffffffffffffffff8111156109de576109dd612137565b5b604051908082528060200260200182016040528015610a1757816020015b610a0461148b565b8152602001906001900390816109fc5790505b5083604001819052505f5f90505b81811015610c1457610a3561148b565b610a6887878690602088610a49919061184a565b92610a5693929190611f37565b90610a619190611f87565b5f1c61102b565b815f018181525050602084610a7d919061184a565b9350610ab387878690600488610a93919061184a565b92610aa093929190611f37565b90610aab91906120d9565b60e01c6111de565b816020019063ffffffff16908163ffffffff1681525050600484610ad7919061184a565b93505f610ae5888887611224565b80965081925050506022811115610b31576040517f08c379a0000000000000000000000000000000000000000000000000000000008152600401610b28906121d4565b60405180910390fd5b80826060019063ffffffff16908163ffffffff1681525050878786908388610b59919061184a565b92610b6693929190611f37565b90610b719190611f87565b8260800181815250508085610b86919061184a565b9450610bbc88888790600489610b9c919061184a565b92610ba993929190611f37565b90610bb491906120d9565b60e01c6111de565b826040019063ffffffff16908163ffffffff1681525050600485610be0919061184a565b94508186604001518481518110610bfa57610bf9611c76565b5b602002602001018190525050508080600101915050610a25565b505f610c21868685611224565b80945081925050508067ffffffffffffffff811115610c4357610c42612137565b5b604051908082528060200260200182016040528015610c7c57816020015b610c696114c7565b815260200190600190039081610c615790505b5084606001819052505f5f90505b81811015610e1257610c9a6114c7565b610cce88888790600889610cae919061184a565b92610cbb93929190611f37565b90610cc6919061221d565b60c01c6113a2565b815f019067ffffffffffffffff16908167ffffffffffffffff1681525050600885610cf9919061184a565b94505f610d07898988611224565b80975081925050506022811115610d53576040517f08c379a0000000000000000000000000000000000000000000000000000000008152600401610d4a906121d4565b60405180910390fd5b80826020019063ffffffff16908163ffffffff1681525050888887908389610d7b919061184a565b92610d8893929190611f37565b8080601f0160208091040260200160405190810160405280939291908181526020018383808284375f81840152601f19601f8201169050808301925050505050505082604001819052508086610dde919061184a565b95508187606001518481518110610df857610df7611c76565b5b602002602001018190525050508080600101915050610c8a565b50610e4786868590600487610e27919061184a565b92610e3493929190611f37565b90610e3f91906120d9565b60e01c6111de565b846080019063ffffffff16908163ffffffff1681525050600483610e6b919061184a565b9250858590508314610e7f57505050610e93565b6001845f0190151590811515815250505050505b92915050565b5f60168314610eaa575f9050610f5d565b606a60f81b825f81518110610ec257610ec1611c76565b5b602001015160f81c60f81b7effffffffffffffffffffffffffffffffffffffffffffffffffffffffffffff1916141580610f405750601460f81b82600181518110610f1057610f0f611c76565b5b602001015160f81c60f81b7effffffffffffffffffffffffffffffffffffffffffffffffffffffffffffff191614155b15610f4d575f9050610f5d565b60026020830101518060601c9150505b92915050565b5f60228314610f76575f5f1b9050611025565b5f60f81b825f81518110610f8d57610f8c611c76565b5b602001015160f81c60f81b7effffffffffffffffffffffffffffffffffffffffffffffffffffffffffffff191614158061100b5750602060f81b82600181518110610fdb57610fda611c76565b5b602001015160f81c60f81b7effffffffffffffffffffffffffffffffffffffffffffffffffffffffffffff191614155b1561101a575f5f1b9050611025565b600260208301015190505b92915050565b5f8190505f7fff00ff00ff00ff00ff00ff00ff00ff00ff00ff00ff00ff00ff00ff00ff00ff009050600881198316901b6008828416901c1791505f7fffff0000ffff0000ffff0000ffff0000ffff0000ffff0000ffff0000ffff00009050601081198416901b6010828516901c1792505f7fffffffff00000000ffffffff00000000ffffffff00000000ffffffff000000009050602081198516901b6020828616901c1793505f7fffffffffffffffff0000000000000000ffffffffffffffff00000000000000009050604081198616901b6040828716901c179450608085901b608086901c17945050505050919050565b5f6002808360405161112f9190611f19565b602060405180830381855afa15801561114a573d5f5f3e3d5ffd5b5050506040513d601f19601f8201168201806040525081019061116d9190611947565b60405160200161117d9190611eb7565b6040516020818303038152906040526040516111999190611f19565b602060405180830381855afa1580156111b4573d5f5f3e3d5ffd5b5050506040513d601f19601f820116820180604052508101906111d79190611947565b9050919050565b5f819050600862ff00ff821663ffffffff16901b600863ff00ff00831663ffffffff16901c17905060108163ffffffff16901b60108263ffffffff16901c179050919050565b5f5f5f85858581811061123a57611239611c76565b5b9050013560f81c60f81b60f81c905060fd8160ff16101561126f578060ff169250600184611268919061184a565b9150611399565b60fd8160ff16036112d4576112ba868660018761128c919061184a565b9060038861129a919061184a565b926112a793929190611f37565b906112b291906122a6565b60f01c611433565b61ffff1692506003846112cd919061184a565b9150611398565b60fe8160ff160361133b5761131f86866001876112f1919061184a565b906005886112ff919061184a565b9261130c93929190611f37565b9061131791906120d9565b60e01c6111de565b63ffffffff169250600584611334919061184a565b9150611397565b61137b868660018761134d919061184a565b9060098861135b919061184a565b9261136893929190611f37565b90611373919061221d565b60c01c6113a2565b67ffffffffffffffff169250600984611394919061184a565b91505b5b5b50935093915050565b5f819050600866ff00ff00ff00ff821667ffffffffffffffff16901b600867ff00ff00ff00ff00831667ffffffffffffffff16901c179050601065ffff0000ffff821667ffffffffffffffff16901b601067ffff0000ffff0000831667ffffffffffffffff16901c17905060208167ffffffffffffffff16901b60208267ffffffffffffffff16901c179050919050565b5f81905060088161ffff16901b60088261ffff16901c179050919050565b6040518060a001604052805f151581526020015f63ffffffff16815260200160608152602001606081526020015f63ffffffff1681525090565b6040518060a001604052805f81526020015f63ffffffff1681526020015f63ffffffff1681526020015f63ffffffff1681526020015f81525090565b60405180606001604052805f67ffffffffffffffff1681526020015f63ffffffff168152602001606081525090565b5f5ffd5b5f5ffd5b5f819050919050565b611510816114fe565b811461151a575f5ffd5b50565b5f8135905061152b81611507565b92915050565b5f5ffd5b5f60a0828403121561154a57611549611531565b5b81905092915050565b5f819050919050565b61156581611553565b811461156f575f5ffd5b50565b5f813590506115808161155c565b92915050565b5f73ffffffffffffffffffffffffffffffffffffffff82169050919050565b5f6115af82611586565b9050919050565b6115bf816115a5565b81146115c9575f5ffd5b50565b5f813590506115da816115b6565b92915050565b5f5f5f5f5f5f5f60e0888a0312156115fb576115fa6114f6565b5b5f6116088a828b0161151d565b97505060206116198a828b0161151d565b965050604088013567ffffffffffffffff81111561163a576116396114fa565b5b6116468a828b01611535565b95505060606116578a828b0161151d565b94505060806116688a828b01611572565b93505060a06116798a828b0161151d565b92505060c061168a8a828b016115cc565b91505092959891949750929550565b5f8115159050919050565b6116ad81611699565b82525050565b5f6020820190506116c65f8301846116a4565b92915050565b5f819050919050565b5f6116ef6116ea6116e584611586565b6116cc565b611586565b9050919050565b5f611700826116d5565b9050919050565b5f611711826116f6565b9050919050565b61172181611707565b82525050565b5f60208201905061173a5f830184611718565b92915050565b5f8151905061174e81611507565b92915050565b5f60208284031215611769576117686114f6565b5b5f61177684828501611740565b91505092915050565b5f82825260208201905092915050565b7f426974636f696e204d6972726f7220646f65736e2774206861766520746861745f8201527f20626c6f636b2079657400000000000000000000000000000000000000000000602082015250565b5f6117e9602a8361177f565b91506117f48261178f565b604082019050919050565b5f6020820190508181035f830152611816816117dd565b9050919050565b7f4e487b71000000000000000000000000000000000000000000000000000000005f52601160045260245ffd5b5f611854826114fe565b915061185f836114fe565b92508282019050808211156118775761187661181d565b5b92915050565b7f4e6f7420656e6f75676820426974636f696e20626c6f636b20636f6e6669726d5f8201527f6174696f6e730000000000000000000000000000000000000000000000000000602082015250565b5f6118d760268361177f565b91506118e28261187d565b604082019050919050565b5f6020820190508181035f830152611904816118cb565b9050919050565b611914816114fe565b82525050565b5f60208201905061192d5f83018461190b565b92915050565b5f815190506119418161155c565b92915050565b5f6020828403121561195c5761195b6114f6565b5b5f61196984828501611933565b91505092915050565b7f496e76616c6964207472616e73616374696f6e2070726f6f66000000000000005f82015250565b5f6119a660198361177f565b91506119b182611972565b602082019050919050565b5f6020820190508181035f8301526119d38161199a565b9050919050565b5f5ffd5b5f5ffd5b5f5ffd5b5f5f83356001602003843603038112611a0257611a016119da565b5b80840192508235915067ffffffffffffffff821115611a2457611a236119de565b5b602083019250600182023603831315611a4057611a3f6119e2565b5b509250929050565b7f426c6f636b2068617368206d69736d61746368000000000000000000000000005f82015250565b5f611a7c60138361177f565b9150611a8782611a48565b602082019050919050565b5f6020820190508181035f830152611aa981611a70565b9050919050565b7f5478206d65726b6c6520726f6f74206d69736d617463680000000000000000005f82015250565b5f611ae460178361177f565b9150611aef82611ab0565b602082019050919050565b5f6020820190508181035f830152611b1181611ad8565b9050919050565b7f5478204944206d69736d617463680000000000000000000000000000000000005f82015250565b5f611b4c600e8361177f565b9150611b5782611b18565b602082019050919050565b5f6020820190508181035f830152611b7981611b40565b9050919050565b7f5472616e73616374696f6e206d7573742068617665206174206c6561737420325f8201527f206f757470757473000000000000000000000000000000000000000000000000602082015250565b5f611bda60288361177f565b9150611be582611b80565b604082019050919050565b5f6020820190508181035f830152611c0781611bce565b9050919050565b7f496e76616c6964207061796d656e74206f757470757420696e646578000000005f82015250565b5f611c42601c8361177f565b9150611c4d82611c0e565b602082019050919050565b5f6020820190508181035f830152611c6f81611c36565b9050919050565b7f4e487b71000000000000000000000000000000000000000000000000000000005f52603260045260245ffd5b7f496e76616c6964204f505f52455455524e2073637269707420666f726d6174005f82015250565b5f611cd7601f8361177f565b9150611ce282611ca3565b602082019050919050565b5f6020820190508181035f830152611d0481611ccb565b9050919050565b7f4f505f52455455524e2061646472657373206d69736d617463680000000000005f82015250565b5f611d3f601a8361177f565b9150611d4a82611d0b565b602082019050919050565b5f6020820190508181035f830152611d6c81611d33565b9050919050565b7f5363726970742068617368206d69736d617463680000000000000000000000005f82015250565b5f611da760148361177f565b9150611db282611d73565b602082019050919050565b5f6020820190508181035f830152611dd481611d9b565b9050919050565b7f416d6f756e74206d69736d6174636800000000000000000000000000000000005f82015250565b5f611e0f600f8361177f565b9150611e1a82611ddb565b602082019050919050565b5f6020820190508181035f830152611e3c81611e03565b9050919050565b5f81905092915050565b828183375f83830152505050565b5f611e668385611e43565b9350611e73838584611e4d565b82840190509392505050565b5f611e8b828486611e5b565b91508190509392505050565b5f819050919050565b611eb1611eac82611553565b611e97565b82525050565b5f611ec28284611ea0565b60208201915081905092915050565b5f81519050919050565b8281835e5f83830152505050565b5f611ef382611ed1565b611efd8185611e43565b9350611f0d818560208601611edb565b80840191505092915050565b5f611f248284611ee9565b915081905092915050565b5f5ffd5b5f5ffd5b5f5f85851115611f4a57611f49611f2f565b5b83861115611f5b57611f5a611f33565b5b6001850283019150848603905094509492505050565b5f82905092915050565b5f82821b905092915050565b5f611f928383611f71565b82611f9d8135611553565b92506020821015611fdd57611fd87fffffffffffffffffffffffffffffffffffffffffffffffffffffffffffffffff83602003600802611f7b565b831692505b505092915050565b7f4e487b71000000000000000000000000000000000000000000000000000000005f52601260045260245ffd5b5f61201c826114fe565b9150612027836114fe565b92508261203757612036611fe5565b5b828204905092915050565b5f61204c826114fe565b9150612057836114fe565b9250828202612065816114fe565b9150828204841483151761207c5761207b61181d565b5b5092915050565b5f61208e8285611ea0565b60208201915061209e8284611ea0565b6020820191508190509392505050565b5f7fffffffff0000000000000000000000000000000000000000000000000000000082169050919050565b5f6120e48383611f71565b826120ef81356120ae565b9250600482101561212f5761212a7fffffffff0000000000000000000000000000000000000000000000000000000083600403600802611f7b565b831692505b505092915050565b7f4e487b71000000000000000000000000000000000000000000000000000000005f52604160045260245ffd5b7f53637269707473206f76657220333420627974657320756e737570706f7274655f8201527f6400000000000000000000000000000000000000000000000000000000000000602082015250565b5f6121be60218361177f565b91506121c982612164565b604082019050919050565b5f6020820190508181035f8301526121eb816121b2565b9050919050565b5f7fffffffffffffffff00000000000000000000000000000000000000000000000082169050919050565b5f6122288383611f71565b8261223381356121f2565b925060088210156122735761226e7fffffffffffffffff00000000000000000000000000000000000000000000000083600803600802611f7b565b831692505b505092915050565b5f7fffff00000000000000000000000000000000000000000000000000000000000082169050919050565b5f6122b18383611f71565b826122bc813561227b565b925060028210156122fc576122f77fffff00000000000000000000000000000000000000000000000000000000000083600203600802611f7b565b831692505b50509291505056fea2646970667358221220e475380f93969500fbc3f7430d3ffca3fdaf740285e4efede89c5f468044441664736f6c634300081c0033","linkReferences":{}},"methodIdentifiers":{"mirror()":"444d9172","verifyPayment(uint256,uint256,(bytes,bytes32,uint256,bytes,bytes),uint256,bytes32,uint256,address)":"337d1fd8"},"id":10}