{"abi":[{"type":"constructor","inputs":[{"name":"_mirror","type":"address","internalType":"contract IBtcMirror"}],"stateMutability":"nonpayable"},{"type":"function","name":"mirror","inputs":[],"outputs":[{"name":"","type":"address","internalType":"contract IBtcMirror"}],"stateMutability":"view"},{"type":"function","name":"verifyPayment","inputs":[{"name":"minConfirmations","type":"uint256","internalType":"uint256"},{"name":"blockNum","type":"uint256","internalType":"uint256"},{"name":"inclusionProof","type":"tuple","internalType":"struct BtcTxProof","components":[{"name":"blockHeader","type":"bytes","internalType":"bytes"},{"name":"txId","type":"bytes32","internalType":"bytes32"},{"name":"txIndex","type":"uint256","internalType":"uint256"},{"name":"txMerkleProof","type":"bytes","internalType":"bytes"},{"name":"rawTx","type":"bytes","internalType":"bytes"}]},{"name":"txOutIx","type":"uint256","internalType":"uint256"},{"name":"destScriptHash","type":"bytes32","internalType":"bytes32"},{"name":"scriptType","type":"uint8","internalType":"enum BitcoinScriptType"},{"name":"amountSats","type":"uint256","internalType":"uint256"},{"name":"checkOpReturn","type":"bool","internalType":"bool"},{"name":"opReturnOutIx","type":"uint256","internalType":"uint256"},{"name":"opReturnData","type":"bytes32","internalType":"bytes32"}],"outputs":[{"name":"","type":"bool","internalType":"bool"}],"stateMutability":"view"}],"bytecode":{"object":"0x60a060405234801561000f575f5ffd5b50604051612667380380612667833981810160405281019061003191906100da565b8073ffffffffffffffffffffffffffffffffffffffff1660808173ffffffffffffffffffffffffffffffffffffffff168152505050610105565b5f5ffd5b5f73ffffffffffffffffffffffffffffffffffffffff82169050919050565b5f6100988261006f565b9050919050565b5f6100a98261008e565b9050919050565b6100b98161009f565b81146100c3575f5ffd5b50565b5f815190506100d4816100b0565b92915050565b5f602082840312156100ef576100ee61006b565b5b5f6100fc848285016100c6565b91505092915050565b60805161253e6101295f395f818160880152818160ae01526101dc015261253e5ff3fe608060405234801561000f575f5ffd5b5060043610610034575f3560e01c8063444d917214610038578063a4c04c6f14610056575b5f5ffd5b610040610086565b60405161004d91906117ef565b60405180910390f35b610070600480360381019061006b91906118f0565b6100aa565b60405161007d91906119f4565b60405180910390f35b7f000000000000000000000000000000000000000000000000000000000000000081565b5f5f7f000000000000000000000000000000000000000000000000000000000000000073ffffffffffffffffffffffffffffffffffffffff1663e875aa5d6040518163ffffffff1660e01b8152600401602060405180830381865afa158015610115573d5f5f3e3d5ffd5b505050506040513d601f19601f820116820180604052508101906101399190611a21565b90508a81101561017e576040517f08c379a000000000000000000000000000000000000000000000000000000000815260040161017590611acc565b60405180910390fd5b8a8c61018a9190611b17565b6001826101979190611b17565b10156101d8576040517f08c379a00000000000000000000000000000000000000000000000000000000081526004016101cf90611bba565b60405180910390fd5b505f7f000000000000000000000000000000000000000000000000000000000000000073ffffffffffffffffffffffffffffffffffffffff1663ee82ac5e8c6040518263ffffffff1660e01b81526004016102339190611be7565b602060405180830381865afa15801561024e573d5f5f3e3d5ffd5b505050506040513d601f19601f820116820180604052508101906102729190611c14565b905060018081111561028757610286611c3f565b5b87600181111561029a57610299611c3f565b5b036102b4576102ac818b8b8b8a610340565b915050610332565b5f60018111156102c7576102c6611c3f565b5b8760018111156102da576102d9611c3f565b5b036102f7576102ef818b8b8b8a8a8a8a610572565b915050610332565b6040517f08c379a000000000000000000000000000000000000000000000000000000000815260040161032990611cb6565b60405180910390fd5b9a9950505050505050505050565b5f8561035986805f01906103549190611ce0565b61082f565b14610399576040517f08c379a000000000000000000000000000000000000000000000000000000000815260040161039090611d8c565b60405180910390fd5b5f6103b186805f01906103ac9190611ce0565b61094a565b90505f6103d6876020013588604001358980606001906103d19190611ce0565b610981565b905080821461041a576040517f08c379a000000000000000000000000000000000000000000000000000000000815260040161041190611df4565b60405180910390fd5b86602001356104378880608001906104329190611ce0565b610a8d565b14610477576040517f08c379a000000000000000000000000000000000000000000000000000000000815260040161046e90611e5c565b60405180910390fd5b5f61049088806080019061048b9190611ce0565b610af3565b90505f816060015188815181106104aa576104a9611e7a565b5b602002602001015190505f6104cd826020015163ffffffff168360400151611050565b9050808814610511576040517f08c379a000000000000000000000000000000000000000000000000000000000815260040161050890611ef1565b60405180910390fd5b86825f015167ffffffffffffffff1614610560576040517f08c379a000000000000000000000000000000000000000000000000000000000815260040161055790611f59565b60405180910390fd5b60019550505050505095945050505050565b5f8861058b89805f01906105869190611ce0565b61082f565b146105cb576040517f08c379a00000000000000000000000000000000000000000000000000000000081526004016105c290611d8c565b60405180910390fd5b5f6105e389805f01906105de9190611ce0565b61094a565b90505f6106088a602001358b604001358c80606001906106039190611ce0565b610981565b905080821461064c576040517f08c379a000000000000000000000000000000000000000000000000000000000815260040161064390611df4565b60405180910390fd5b89602001356106698b80608001906106649190611ce0565b610a8d565b146106a9576040517f08c379a00000000000000000000000000000000000000000000000000000000081526004016106a090611e5c565b60405180910390fd5b5f6106c28b80608001906106bd9190611ce0565b610af3565b90505f81606001518b815181106106dc576106db611e7a565b5b602002602001015190505f6106ff826020015163ffffffff168360400151611119565b9050808b14610743576040517f08c379a000000000000000000000000000000000000000000000000000000000815260040161073a90611ef1565b60405180910390fd5b89825f015167ffffffffffffffff1614610792576040517f08c379a000000000000000000000000000000000000000000000000000000000815260040161078990611f59565b60405180910390fd5b881561081a575f836060015189815181106107b0576107af611e7a565b5b602002602001015190505f6107d3826020015163ffffffff1683604001516111e1565b9050888114610817576040517f08c379a000000000000000000000000000000000000000000000000000000000815260040161080e90611fc1565b60405180910390fd5b50505b60019550505050505098975050505050505050565b5f60508383905014610876576040517f08c379a000000000000000000000000000000000000000000000000000000000815260040161086d90612029565b60405180910390fd5b5f600280858560405161088a929190612083565b602060405180830381855afa1580156108a5573d5f5f3e3d5ffd5b5050506040513d601f19601f820116820180604052508101906108c89190611c14565b6040516020016108d891906120bb565b6040516020818303038152906040526040516108f4919061211d565b602060405180830381855afa15801561090f573d5f5f3e3d5ffd5b5050506040513d601f19601f820116820180604052508101906109329190611c14565b905061093f815f1c6112aa565b5f1b91505092915050565b5f6050838390501461095a575f5ffd5b828260249060449261096e9392919061213b565b90610979919061218b565b905092915050565b5f5f61098e865f1c6112aa565b5f1b90505f6020858590506109a39190612216565b90505f5f90505b81811015610a7f575f6109fe87876020856109c59190612246565b9060206001876109d59190611b17565b6109df9190612246565b926109ec9392919061213b565b906109f7919061218b565b5f1c6112aa565b5f1b90505f6001891603610a3d57610a368482604051602001610a22929190612287565b60405160208183030381529060405261139c565b9350610a6a565b610a678185604051602001610a53929190612287565b60405160208183030381529060405261139c565b93505b600188901c97505080806001019150506109aa565b508192505050949350505050565b5f5f610adb84848080601f0160208091040260200160405190810160405280939291908181526020018383808284375f81840152601f19601f8201169050808301925050505050505061139c565b9050610ae8815f1c6112aa565b5f1b91505092915050565b610afb6116d0565b610b2483835f90600492610b119392919061213b565b90610b1c91906122dd565b60e01c61145d565b816020019063ffffffff16908163ffffffff16815250506001816020015163ffffffff161080610b5e57506002816020015163ffffffff16115b61104a575f600490505f610b738585846114a3565b80935081925050508067ffffffffffffffff811115610b9557610b9461233b565b5b604051908082528060200260200182016040528015610bce57816020015b610bbb61170a565b815260200190600190039081610bb35790505b5083604001819052505f5f90505b81811015610dcb57610bec61170a565b610c1f87878690602088610c009190611b17565b92610c0d9392919061213b565b90610c18919061218b565b5f1c6112aa565b815f018181525050602084610c349190611b17565b9350610c6a87878690600488610c4a9190611b17565b92610c579392919061213b565b90610c6291906122dd565b60e01c61145d565b816020019063ffffffff16908163ffffffff1681525050600484610c8e9190611b17565b93505f610c9c8888876114a3565b80965081925050506022811115610ce8576040517f08c379a0000000000000000000000000000000000000000000000000000000008152600401610cdf906123d8565b60405180910390fd5b80826060019063ffffffff16908163ffffffff1681525050878786908388610d109190611b17565b92610d1d9392919061213b565b90610d28919061218b565b8260800181815250508085610d3d9190611b17565b9450610d7388888790600489610d539190611b17565b92610d609392919061213b565b90610d6b91906122dd565b60e01c61145d565b826040019063ffffffff16908163ffffffff1681525050600485610d979190611b17565b94508186604001518481518110610db157610db0611e7a565b5b602002602001018190525050508080600101915050610bdc565b505f610dd88686856114a3565b80945081925050508067ffffffffffffffff811115610dfa57610df961233b565b5b604051908082528060200260200182016040528015610e3357816020015b610e20611746565b815260200190600190039081610e185790505b5084606001819052505f5f90505b81811015610fc957610e51611746565b610e8588888790600889610e659190611b17565b92610e729392919061213b565b90610e7d9190612421565b60c01c611621565b815f019067ffffffffffffffff16908167ffffffffffffffff1681525050600885610eb09190611b17565b94505f610ebe8989886114a3565b80975081925050506022811115610f0a576040517f08c379a0000000000000000000000000000000000000000000000000000000008152600401610f01906123d8565b60405180910390fd5b80826020019063ffffffff16908163ffffffff1681525050888887908389610f329190611b17565b92610f3f9392919061213b565b8080601f0160208091040260200160405190810160405280939291908181526020018383808284375f81840152601f19601f8201169050808301925050505050505082604001819052508086610f959190611b17565b95508187606001518481518110610faf57610fae611e7a565b5b602002602001018190525050508080600101915050610e41565b50610ffe86868590600487610fde9190611b17565b92610feb9392919061213b565b90610ff691906122dd565b60e01c61145d565b846080019063ffffffff16908163ffffffff16815250506004836110229190611b17565b92508585905083146110365750505061104a565b6001845f0190151590811515815250505050505b92915050565b5f60228314611063575f5f1b9050611113565b605160f81b825f8151811061107b5761107a611e7a565b5b602001015160f81c60f81b7effffffffffffffffffffffffffffffffffffffffffffffffffffffffffffff19161415806110f95750602060f81b826001815181106110c9576110c8611e7a565b5b602001015160f81c60f81b7effffffffffffffffffffffffffffffffffffffffffffffffffffffffffffff191614155b15611108575f5f1b9050611113565b600260208301015190505b92915050565b5f6022831461112c575f5f1b90506111db565b5f60f81b825f8151811061114357611142611e7a565b5b602001015160f81c60f81b7effffffffffffffffffffffffffffffffffffffffffffffffffffffffffffff19161415806111c15750602060f81b8260018151811061119157611190611e7a565b5b602001015160f81c60f81b7effffffffffffffffffffffffffffffffffffffffffffffffffffffffffffff191614155b156111d0575f5f1b90506111db565b600260208301015190505b92915050565b5f602283146111f4575f5f1b90506112a4565b606a60f81b825f8151811061120c5761120b611e7a565b5b602001015160f81c60f81b7effffffffffffffffffffffffffffffffffffffffffffffffffffffffffffff191614158061128a5750602060f81b8260018151811061125a57611259611e7a565b5b602001015160f81c60f81b7effffffffffffffffffffffffffffffffffffffffffffffffffffffffffffff191614155b15611299575f5f1b90506112a4565b600260208301015190505b92915050565b5f8190505f7fff00ff00ff00ff00ff00ff00ff00ff00ff00ff00ff00ff00ff00ff00ff00ff009050600881198316901b6008828416901c1791505f7fffff0000ffff0000ffff0000ffff0000ffff0000ffff0000ffff0000ffff00009050601081198416901b6010828516901c1792505f7fffffffff00000000ffffffff00000000ffffffff00000000ffffffff000000009050602081198516901b6020828616901c1793505f7fffffffffffffffff0000000000000000ffffffffffffffff00000000000000009050604081198616901b6040828716901c179450608085901b608086901c17945050505050919050565b5f600280836040516113ae919061211d565b602060405180830381855afa1580156113c9573d5f5f3e3d5ffd5b5050506040513d601f19601f820116820180604052508101906113ec9190611c14565b6040516020016113fc91906120bb565b604051602081830303815290604052604051611418919061211d565b602060405180830381855afa158015611433573d5f5f3e3d5ffd5b5050506040513d601f19601f820116820180604052508101906114569190611c14565b9050919050565b5f819050600862ff00ff821663ffffffff16901b600863ff00ff00831663ffffffff16901c17905060108163ffffffff16901b60108263ffffffff16901c179050919050565b5f5f5f8585858181106114b9576114b8611e7a565b5b9050013560f81c60f81b60f81c905060fd8160ff1610156114ee578060ff1692506001846114e79190611b17565b9150611618565b60fd8160ff160361155357611539868660018761150b9190611b17565b906003886115199190611b17565b926115269392919061213b565b9061153191906124aa565b60f01c6116b2565b61ffff16925060038461154c9190611b17565b9150611617565b60fe8160ff16036115ba5761159e86866001876115709190611b17565b9060058861157e9190611b17565b9261158b9392919061213b565b9061159691906122dd565b60e01c61145d565b63ffffffff1692506005846115b39190611b17565b9150611616565b6115fa86866001876115cc9190611b17565b906009886115da9190611b17565b926115e79392919061213b565b906115f29190612421565b60c01c611621565b67ffffffffffffffff1692506009846116139190611b17565b91505b5b5b50935093915050565b5f819050600866ff00ff00ff00ff821667ffffffffffffffff16901b600867ff00ff00ff00ff00831667ffffffffffffffff16901c179050601065ffff0000ffff821667ffffffffffffffff16901b601067ffff0000ffff0000831667ffffffffffffffff16901c17905060208167ffffffffffffffff16901b60208267ffffffffffffffff16901c179050919050565b5f81905060088161ffff16901b60088261ffff16901c179050919050565b6040518060a001604052805f151581526020015f63ffffffff16815260200160608152602001606081526020015f63ffffffff1681525090565b6040518060a001604052805f81526020015f63ffffffff1681526020015f63ffffffff1681526020015f63ffffffff1681526020015f81525090565b60405180606001604052805f67ffffffffffffffff1681526020015f63ffffffff168152602001606081525090565b5f73ffffffffffffffffffffffffffffffffffffffff82169050919050565b5f819050919050565b5f6117b76117b26117ad84611775565b611794565b611775565b9050919050565b5f6117c88261179d565b9050919050565b5f6117d9826117be565b9050919050565b6117e9816117cf565b82525050565b5f6020820190506118025f8301846117e0565b92915050565b5f5ffd5b5f5ffd5b5f819050919050565b61182281611810565b811461182c575f5ffd5b50565b5f8135905061183d81611819565b92915050565b5f5ffd5b5f60a0828403121561185c5761185b611843565b5b81905092915050565b5f819050919050565b61187781611865565b8114611881575f5ffd5b50565b5f813590506118928161186e565b92915050565b600281106118a4575f5ffd5b50565b5f813590506118b581611898565b92915050565b5f8115159050919050565b6118cf816118bb565b81146118d9575f5ffd5b50565b5f813590506118ea816118c6565b92915050565b5f5f5f5f5f5f5f5f5f5f6101408b8d03121561190f5761190e611808565b5b5f61191c8d828e0161182f565b9a5050602061192d8d828e0161182f565b99505060408b013567ffffffffffffffff81111561194e5761194d61180c565b5b61195a8d828e01611847565b985050606061196b8d828e0161182f565b975050608061197c8d828e01611884565b96505060a061198d8d828e016118a7565b95505060c061199e8d828e0161182f565b94505060e06119af8d828e016118dc565b9350506101006119c18d828e0161182f565b9250506101206119d38d828e01611884565b9150509295989b9194979a5092959850565b6119ee816118bb565b82525050565b5f602082019050611a075f8301846119e5565b92915050565b5f81519050611a1b81611819565b92915050565b5f60208284031215611a3657611a35611808565b5b5f611a4384828501611a0d565b91505092915050565b5f82825260208201905092915050565b7f426974636f696e204d6972726f7220646f65736e2774206861766520746861745f8201527f20626c6f636b2079657400000000000000000000000000000000000000000000602082015250565b5f611ab6602a83611a4c565b9150611ac182611a5c565b604082019050919050565b5f6020820190508181035f830152611ae381611aaa565b9050919050565b7f4e487b71000000000000000000000000000000000000000000000000000000005f52601160045260245ffd5b5f611b2182611810565b9150611b2c83611810565b9250828201905080821115611b4457611b43611aea565b5b92915050565b7f4e6f7420656e6f75676820426974636f696e20626c6f636b20636f6e6669726d5f8201527f6174696f6e730000000000000000000000000000000000000000000000000000602082015250565b5f611ba4602683611a4c565b9150611baf82611b4a565b604082019050919050565b5f6020820190508181035f830152611bd181611b98565b9050919050565b611be181611810565b82525050565b5f602082019050611bfa5f830184611bd8565b92915050565b5f81519050611c0e8161186e565b92915050565b5f60208284031215611c2957611c28611808565b5b5f611c3684828501611c00565b91505092915050565b7f4e487b71000000000000000000000000000000000000000000000000000000005f52602160045260245ffd5b7f496e76616c6964207363726970742074797065000000000000000000000000005f82015250565b5f611ca0601383611a4c565b9150611cab82611c6c565b602082019050919050565b5f6020820190508181035f830152611ccd81611c94565b9050919050565b5f5ffd5b5f5ffd5b5f5ffd5b5f5f83356001602003843603038112611cfc57611cfb611cd4565b5b80840192508235915067ffffffffffffffff821115611d1e57611d1d611cd8565b5b602083019250600182023603831315611d3a57611d39611cdc565b5b509250929050565b7f426c6f636b2068617368206d69736d61746368000000000000000000000000005f82015250565b5f611d76601383611a4c565b9150611d8182611d42565b602082019050919050565b5f6020820190508181035f830152611da381611d6a565b9050919050565b7f5478206d65726b6c6520726f6f74206d69736d617463680000000000000000005f82015250565b5f611dde601783611a4c565b9150611de982611daa565b602082019050919050565b5f6020820190508181035f830152611e0b81611dd2565b9050919050565b7f5478204944206d69736d617463680000000000000000000000000000000000005f82015250565b5f611e46600e83611a4c565b9150611e5182611e12565b602082019050919050565b5f6020820190508181035f830152611e7381611e3a565b9050919050565b7f4e487b71000000000000000000000000000000000000000000000000000000005f52603260045260245ffd5b7f5363726970742068617368206d69736d617463680000000000000000000000005f82015250565b5f611edb601483611a4c565b9150611ee682611ea7565b602082019050919050565b5f6020820190508181035f830152611f0881611ecf565b9050919050565b7f416d6f756e74206d69736d6174636800000000000000000000000000000000005f82015250565b5f611f43600f83611a4c565b9150611f4e82611f0f565b602082019050919050565b5f6020820190508181035f830152611f7081611f37565b9050919050565b7f4f505f52455455524e2064617461206d69736d617463680000000000000000005f82015250565b5f611fab601783611a4c565b9150611fb682611f77565b602082019050919050565b5f6020820190508181035f830152611fd881611f9f565b9050919050565b7f496e76616c696420626c6f636b20686561646572206c656e67746800000000005f82015250565b5f612013601b83611a4c565b915061201e82611fdf565b602082019050919050565b5f6020820190508181035f83015261204081612007565b9050919050565b5f81905092915050565b828183375f83830152505050565b5f61206a8385612047565b9350612077838584612051565b82840190509392505050565b5f61208f82848661205f565b91508190509392505050565b5f819050919050565b6120b56120b082611865565b61209b565b82525050565b5f6120c682846120a4565b60208201915081905092915050565b5f81519050919050565b8281835e5f83830152505050565b5f6120f7826120d5565b6121018185612047565b93506121118185602086016120df565b80840191505092915050565b5f61212882846120ed565b915081905092915050565b5f5ffd5b5f5ffd5b5f5f8585111561214e5761214d612133565b5b8386111561215f5761215e612137565b5b6001850283019150848603905094509492505050565b5f82905092915050565b5f82821b905092915050565b5f6121968383612175565b826121a18135611865565b925060208210156121e1576121dc7fffffffffffffffffffffffffffffffffffffffffffffffffffffffffffffffff8360200360080261217f565b831692505b505092915050565b7f4e487b71000000000000000000000000000000000000000000000000000000005f52601260045260245ffd5b5f61222082611810565b915061222b83611810565b92508261223b5761223a6121e9565b5b828204905092915050565b5f61225082611810565b915061225b83611810565b925082820261226981611810565b915082820484148315176122805761227f611aea565b5b5092915050565b5f61229282856120a4565b6020820191506122a282846120a4565b6020820191508190509392505050565b5f7fffffffff0000000000000000000000000000000000000000000000000000000082169050919050565b5f6122e88383612175565b826122f381356122b2565b925060048210156123335761232e7fffffffff000000000000000000000000000000000000000000000000000000008360040360080261217f565b831692505b505092915050565b7f4e487b71000000000000000000000000000000000000000000000000000000005f52604160045260245ffd5b7f53637269707473206f76657220333420627974657320756e737570706f7274655f8201527f6400000000000000000000000000000000000000000000000000000000000000602082015250565b5f6123c2602183611a4c565b91506123cd82612368565b604082019050919050565b5f6020820190508181035f8301526123ef816123b6565b9050919050565b5f7fffffffffffffffff00000000000000000000000000000000000000000000000082169050919050565b5f61242c8383612175565b8261243781356123f6565b92506008821015612477576124727fffffffffffffffff0000000000000000000000000000000000000000000000008360080360080261217f565b831692505b505092915050565b5f7fffff00000000000000000000000000000000000000000000000000000000000082169050919050565b5f6124b58383612175565b826124c0813561247f565b92506002821015612500576124fb7fffff0000000000000000000000000000000000000000000000000000000000008360020360080261217f565b831692505b50509291505056fea26469706673582212200bbd4f84f8e3129c427220918bf48e13c93c78dfe0deeffe2c92fb658d082d7b64736f6c634300081e0033","linkReferences":{}},"methodIdentifiers":{"mirror()":"444d9172","verifyPayment(uint256,uint256,(bytes,bytes32,uint256,bytes,bytes),uint256,bytes32,uint8,uint256,bool,uint256,bytes32)":"a4c04c6f"},"id":9}