{"abi":[{"type":"constructor","inputs":[{"name":"_mirror","type":"address","internalType":"contract IBtcMirror"}],"stateMutability":"nonpayable"},{"type":"function","name":"mirror","inputs":[],"outputs":[{"name":"","type":"address","internalType":"contract IBtcMirror"}],"stateMutability":"view"},{"type":"function","name":"verifyPayment","inputs":[{"name":"minConfirmations","type":"uint256","internalType":"uint256"},{"name":"blockNum","type":"uint256","internalType":"uint256"},{"name":"inclusionProof","type":"tuple","internalType":"struct BtcTxProof","components":[{"name":"blockHeader","type":"bytes","internalType":"bytes"},{"name":"txId","type":"bytes32","internalType":"bytes32"},{"name":"txIndex","type":"uint256","internalType":"uint256"},{"name":"txMerkleProof","type":"bytes","internalType":"bytes"},{"name":"rawTx","type":"bytes","internalType":"bytes"}]},{"name":"txOutIx","type":"uint256","internalType":"uint256"},{"name":"destScriptHash","type":"bytes32","internalType":"bytes32"},{"name":"scriptType","type":"uint8","internalType":"enum BitcoinScriptType"},{"name":"amountSats","type":"uint256","internalType":"uint256"},{"name":"checkOpReturn","type":"bool","internalType":"bool"},{"name":"opReturnOutIx","type":"uint256","internalType":"uint256"},{"name":"opReturnData","type":"bytes32","internalType":"bytes32"}],"outputs":[{"name":"","type":"bool","internalType":"bool"}],"stateMutability":"view"}],"bytecode":{"object":"0x60a060405234801561000f575f5ffd5b50604051612658380380612658833981810160405281019061003191906100da565b8073ffffffffffffffffffffffffffffffffffffffff1660808173ffffffffffffffffffffffffffffffffffffffff168152505050610105565b5f5ffd5b5f73ffffffffffffffffffffffffffffffffffffffff82169050919050565b5f6100988261006f565b9050919050565b5f6100a98261008e565b9050919050565b6100b98161009f565b81146100c3575f5ffd5b50565b5f815190506100d4816100b0565b92915050565b5f602082840312156100ef576100ee61006b565b5b5f6100fc848285016100c6565b91505092915050565b60805161252f6101295f395f818160880152818160ae01526101dc015261252f5ff3fe608060405234801561000f575f5ffd5b5060043610610034575f3560e01c8063444d917214610038578063a4c04c6f14610056575b5f5ffd5b610040610086565b60405161004d9190611757565b60405180910390f35b610070600480360381019061006b9190611858565b6100aa565b60405161007d919061195c565b60405180910390f35b7f000000000000000000000000000000000000000000000000000000000000000081565b5f5f7f000000000000000000000000000000000000000000000000000000000000000073ffffffffffffffffffffffffffffffffffffffff1663e875aa5d6040518163ffffffff1660e01b8152600401602060405180830381865afa158015610115573d5f5f3e3d5ffd5b505050506040513d601f19601f820116820180604052508101906101399190611989565b90508a81101561017e576040517f08c379a000000000000000000000000000000000000000000000000000000000815260040161017590611a34565b60405180910390fd5b8a8c61018a9190611a7f565b6001826101979190611a7f565b10156101d8576040517f08c379a00000000000000000000000000000000000000000000000000000000081526004016101cf90611b22565b60405180910390fd5b505f7f000000000000000000000000000000000000000000000000000000000000000073ffffffffffffffffffffffffffffffffffffffff1663ee82ac5e8c6040518263ffffffff1660e01b81526004016102339190611b4f565b602060405180830381865afa15801561024e573d5f5f3e3d5ffd5b505050506040513d601f19601f820116820180604052508101906102729190611b7c565b9050610285818b8b8b8b8b8b8b8b610296565b9150509a9950505050505050505050565b5f896102af8a805f01906102aa9190611bb3565b610656565b146102ef576040517f08c379a00000000000000000000000000000000000000000000000000000000081526004016102e690611c5f565b60405180910390fd5b5f6103078a805f01906103029190611bb3565b610771565b90505f61032c8b602001358c604001358d80606001906103279190611bb3565b6107a8565b9050808214610370576040517f08c379a000000000000000000000000000000000000000000000000000000000815260040161036790611cc7565b60405180910390fd5b8a6020013561038d8c80608001906103889190611bb3565b6108b4565b146103cd576040517f08c379a00000000000000000000000000000000000000000000000000000000081526004016103c490611d2f565b60405180910390fd5b5f6103e68c80608001906103e19190611bb3565b61091a565b90505f81606001518c81518110610400576103ff611d4d565b5b602002602001015190505f6001600281111561041f5761041e611d7a565b5b8b600281111561043257610431611d7a565b5b036104565761044f826020015163ffffffff168360400151610e77565b9050610527565b60028081111561046957610468611d7a565b5b8b600281111561047c5761047b611d7a565b5b036104a057610499826020015163ffffffff168360400151610f3f565b9050610526565b5f60028111156104b3576104b2611d7a565b5b8b60028111156104c6576104c5611d7a565b5b036104ea576104e3826020015163ffffffff168360400151611008565b9050610525565b6040517f08c379a000000000000000000000000000000000000000000000000000000000815260040161051c90611df1565b60405180910390fd5b5b5b808c14610569576040517f08c379a000000000000000000000000000000000000000000000000000000000815260040161056090611e59565b60405180910390fd5b89825f015167ffffffffffffffff16146105b8576040517f08c379a00000000000000000000000000000000000000000000000000000000081526004016105af90611ec1565b60405180910390fd5b8815610640575f836060015189815181106105d6576105d5611d4d565b5b602002602001015190505f6105f9826020015163ffffffff168360400151611149565b905088811461063d576040517f08c379a000000000000000000000000000000000000000000000000000000000815260040161063490611f29565b60405180910390fd5b50505b6001955050505050509998505050505050505050565b5f6050838390501461069d576040517f08c379a000000000000000000000000000000000000000000000000000000000815260040161069490611f91565b60405180910390fd5b5f60028085856040516106b1929190611feb565b602060405180830381855afa1580156106cc573d5f5f3e3d5ffd5b5050506040513d601f19601f820116820180604052508101906106ef9190611b7c565b6040516020016106ff9190612023565b60405160208183030381529060405260405161071b9190612085565b602060405180830381855afa158015610736573d5f5f3e3d5ffd5b5050506040513d601f19601f820116820180604052508101906107599190611b7c565b9050610766815f1c611212565b5f1b91505092915050565b5f60508383905014610781575f5ffd5b8282602490604492610795939291906120a3565b906107a091906120f3565b905092915050565b5f5f6107b5865f1c611212565b5f1b90505f6020858590506107ca919061217e565b90505f5f90505b818110156108a6575f61082587876020856107ec91906121ae565b9060206001876107fc9190611a7f565b61080691906121ae565b92610813939291906120a3565b9061081e91906120f3565b5f1c611212565b5f1b90505f60018916036108645761085d84826040516020016108499291906121ef565b604051602081830303815290604052611304565b9350610891565b61088e818560405160200161087a9291906121ef565b604051602081830303815290604052611304565b93505b600188901c97505080806001019150506107d1565b508192505050949350505050565b5f5f61090284848080601f0160208091040260200160405190810160405280939291908181526020018383808284375f81840152601f19601f82011690508083019250505050505050611304565b905061090f815f1c611212565b5f1b91505092915050565b610922611638565b61094b83835f90600492610938939291906120a3565b906109439190612245565b60e01c6113c5565b816020019063ffffffff16908163ffffffff16815250506001816020015163ffffffff16108061098557506002816020015163ffffffff16115b610e71575f600490505f61099a85858461140b565b80935081925050508067ffffffffffffffff8111156109bc576109bb6122a3565b5b6040519080825280602002602001820160405280156109f557816020015b6109e2611672565b8152602001906001900390816109da5790505b5083604001819052505f5f90505b81811015610bf257610a13611672565b610a4687878690602088610a279190611a7f565b92610a34939291906120a3565b90610a3f91906120f3565b5f1c611212565b815f018181525050602084610a5b9190611a7f565b9350610a9187878690600488610a719190611a7f565b92610a7e939291906120a3565b90610a899190612245565b60e01c6113c5565b816020019063ffffffff16908163ffffffff1681525050600484610ab59190611a7f565b93505f610ac388888761140b565b80965081925050506022811115610b0f576040517f08c379a0000000000000000000000000000000000000000000000000000000008152600401610b0690612340565b60405180910390fd5b80826060019063ffffffff16908163ffffffff1681525050878786908388610b379190611a7f565b92610b44939291906120a3565b90610b4f91906120f3565b8260800181815250508085610b649190611a7f565b9450610b9a88888790600489610b7a9190611a7f565b92610b87939291906120a3565b90610b929190612245565b60e01c6113c5565b826040019063ffffffff16908163ffffffff1681525050600485610bbe9190611a7f565b94508186604001518481518110610bd857610bd7611d4d565b5b602002602001018190525050508080600101915050610a03565b505f610bff86868561140b565b80945081925050508067ffffffffffffffff811115610c2157610c206122a3565b5b604051908082528060200260200182016040528015610c5a57816020015b610c476116ae565b815260200190600190039081610c3f5790505b5084606001819052505f5f90505b81811015610df057610c786116ae565b610cac88888790600889610c8c9190611a7f565b92610c99939291906120a3565b90610ca49190612389565b60c01c611589565b815f019067ffffffffffffffff16908167ffffffffffffffff1681525050600885610cd79190611a7f565b94505f610ce589898861140b565b80975081925050506022811115610d31576040517f08c379a0000000000000000000000000000000000000000000000000000000008152600401610d2890612340565b60405180910390fd5b80826020019063ffffffff16908163ffffffff1681525050888887908389610d599190611a7f565b92610d66939291906120a3565b8080601f0160208091040260200160405190810160405280939291908181526020018383808284375f81840152601f19601f8201169050808301925050505050505082604001819052508086610dbc9190611a7f565b95508187606001518481518110610dd657610dd5611d4d565b5b602002602001018190525050508080600101915050610c68565b50610e2586868590600487610e059190611a7f565b92610e12939291906120a3565b90610e1d9190612245565b60e01c6113c5565b846080019063ffffffff16908163ffffffff1681525050600483610e499190611a7f565b9250858590508314610e5d57505050610e71565b6001845f0190151590811515815250505050505b92915050565b5f60228314610e8a575f5f1b9050610f39565b5f60f81b825f81518110610ea157610ea0611d4d565b5b602001015160f81c60f81b7effffffffffffffffffffffffffffffffffffffffffffffffffffffffffffff1916141580610f1f5750602060f81b82600181518110610eef57610eee611d4d565b5b602001015160f81c60f81b7effffffffffffffffffffffffffffffffffffffffffffffffffffffffffffff191614155b15610f2e575f5f1b9050610f39565b600260208301015190505b92915050565b5f60228314610f52575f5f1b9050611002565b605160f81b825f81518110610f6a57610f69611d4d565b5b602001015160f81c60f81b7effffffffffffffffffffffffffffffffffffffffffffffffffffffffffffff1916141580610fe85750602060f81b82600181518110610fb857610fb7611d4d565b5b602001015160f81c60f81b7effffffffffffffffffffffffffffffffffffffffffffffffffffffffffffff191614155b15610ff7575f5f1b9050611002565b600260208301015190505b92915050565b5f6017831461101b575f5f1b9050611143565b60a960f81b825f8151811061103357611032611d4d565b5b602001015160f81c60f81b7effffffffffffffffffffffffffffffffffffffffffffffffffffffffffffff19161415806110b15750601460f81b8260018151811061108157611080611d4d565b5b602001015160f81c60f81b7effffffffffffffffffffffffffffffffffffffffffffffffffffffffffffff191614155b806111005750608760f81b826016815181106110d0576110cf611d4d565b5b602001015160f81c60f81b7effffffffffffffffffffffffffffffffffffffffffffffffffffffffffffff191614155b1561110f575f5f1b9050611143565b5f73ffffffffffffffffffffffffffffffffffffffff6050846111319061240a565b5f1c901c169050606081901b5f1b9150505b92915050565b5f6022831461115c575f5f1b905061120c565b606a60f81b825f8151811061117457611173611d4d565b5b602001015160f81c60f81b7effffffffffffffffffffffffffffffffffffffffffffffffffffffffffffff19161415806111f25750602060f81b826001815181106111c2576111c1611d4d565b5b602001015160f81c60f81b7effffffffffffffffffffffffffffffffffffffffffffffffffffffffffffff191614155b15611201575f5f1b905061120c565b600260208301015190505b92915050565b5f8190505f7fff00ff00ff00ff00ff00ff00ff00ff00ff00ff00ff00ff00ff00ff00ff00ff009050600881198316901b6008828416901c1791505f7fffff0000ffff0000ffff0000ffff0000ffff0000ffff0000ffff0000ffff00009050601081198416901b6010828516901c1792505f7fffffffff00000000ffffffff00000000ffffffff00000000ffffffff000000009050602081198516901b6020828616901c1793505f7fffffffffffffffff0000000000000000ffffffffffffffff00000000000000009050604081198616901b6040828716901c179450608085901b608086901c17945050505050919050565b5f600280836040516113169190612085565b602060405180830381855afa158015611331573d5f5f3e3d5ffd5b5050506040513d601f19601f820116820180604052508101906113549190611b7c565b6040516020016113649190612023565b6040516020818303038152906040526040516113809190612085565b602060405180830381855afa15801561139b573d5f5f3e3d5ffd5b5050506040513d601f19601f820116820180604052508101906113be9190611b7c565b9050919050565b5f819050600862ff00ff821663ffffffff16901b600863ff00ff00831663ffffffff16901c17905060108163ffffffff16901b60108263ffffffff16901c179050919050565b5f5f5f85858581811061142157611420611d4d565b5b9050013560f81c60f81b60f81c905060fd8160ff161015611456578060ff16925060018461144f9190611a7f565b9150611580565b60fd8160ff16036114bb576114a186866001876114739190611a7f565b906003886114819190611a7f565b9261148e939291906120a3565b90611499919061249b565b60f01c61161a565b61ffff1692506003846114b49190611a7f565b915061157f565b60fe8160ff16036115225761150686866001876114d89190611a7f565b906005886114e69190611a7f565b926114f3939291906120a3565b906114fe9190612245565b60e01c6113c5565b63ffffffff16925060058461151b9190611a7f565b915061157e565b61156286866001876115349190611a7f565b906009886115429190611a7f565b9261154f939291906120a3565b9061155a9190612389565b60c01c611589565b67ffffffffffffffff16925060098461157b9190611a7f565b91505b5b5b50935093915050565b5f819050600866ff00ff00ff00ff821667ffffffffffffffff16901b600867ff00ff00ff00ff00831667ffffffffffffffff16901c179050601065ffff0000ffff821667ffffffffffffffff16901b601067ffff0000ffff0000831667ffffffffffffffff16901c17905060208167ffffffffffffffff16901b60208267ffffffffffffffff16901c179050919050565b5f81905060088161ffff16901b60088261ffff16901c179050919050565b6040518060a001604052805f151581526020015f63ffffffff16815260200160608152602001606081526020015f63ffffffff1681525090565b6040518060a001604052805f81526020015f63ffffffff1681526020015f63ffffffff1681526020015f63ffffffff1681526020015f81525090565b60405180606001604052805f67ffffffffffffffff1681526020015f63ffffffff168152602001606081525090565b5f73ffffffffffffffffffffffffffffffffffffffff82169050919050565b5f819050919050565b5f61171f61171a611715846116dd565b6116fc565b6116dd565b9050919050565b5f61173082611705565b9050919050565b5f61174182611726565b9050919050565b61175181611737565b82525050565b5f60208201905061176a5f830184611748565b92915050565b5f5ffd5b5f5ffd5b5f819050919050565b61178a81611778565b8114611794575f5ffd5b50565b5f813590506117a581611781565b92915050565b5f5ffd5b5f60a082840312156117c4576117c36117ab565b5b81905092915050565b5f819050919050565b6117df816117cd565b81146117e9575f5ffd5b50565b5f813590506117fa816117d6565b92915050565b6003811061180c575f5ffd5b50565b5f8135905061181d81611800565b92915050565b5f8115159050919050565b61183781611823565b8114611841575f5ffd5b50565b5f813590506118528161182e565b92915050565b5f5f5f5f5f5f5f5f5f5f6101408b8d03121561187757611876611770565b5b5f6118848d828e01611797565b9a505060206118958d828e01611797565b99505060408b013567ffffffffffffffff8111156118b6576118b5611774565b5b6118c28d828e016117af565b98505060606118d38d828e01611797565b97505060806118e48d828e016117ec565b96505060a06118f58d828e0161180f565b95505060c06119068d828e01611797565b94505060e06119178d828e01611844565b9350506101006119298d828e01611797565b92505061012061193b8d828e016117ec565b9150509295989b9194979a5092959850565b61195681611823565b82525050565b5f60208201905061196f5f83018461194d565b92915050565b5f8151905061198381611781565b92915050565b5f6020828403121561199e5761199d611770565b5b5f6119ab84828501611975565b91505092915050565b5f82825260208201905092915050565b7f426974636f696e204d6972726f7220646f65736e2774206861766520746861745f8201527f20626c6f636b2079657400000000000000000000000000000000000000000000602082015250565b5f611a1e602a836119b4565b9150611a29826119c4565b604082019050919050565b5f6020820190508181035f830152611a4b81611a12565b9050919050565b7f4e487b71000000000000000000000000000000000000000000000000000000005f52601160045260245ffd5b5f611a8982611778565b9150611a9483611778565b9250828201905080821115611aac57611aab611a52565b5b92915050565b7f4e6f7420656e6f75676820426974636f696e20626c6f636b20636f6e6669726d5f8201527f6174696f6e730000000000000000000000000000000000000000000000000000602082015250565b5f611b0c6026836119b4565b9150611b1782611ab2565b604082019050919050565b5f6020820190508181035f830152611b3981611b00565b9050919050565b611b4981611778565b82525050565b5f602082019050611b625f830184611b40565b92915050565b5f81519050611b76816117d6565b92915050565b5f60208284031215611b9157611b90611770565b5b5f611b9e84828501611b68565b91505092915050565b5f5ffd5b5f5ffd5b5f5ffd5b5f5f83356001602003843603038112611bcf57611bce611ba7565b5b80840192508235915067ffffffffffffffff821115611bf157611bf0611bab565b5b602083019250600182023603831315611c0d57611c0c611baf565b5b509250929050565b7f426c6f636b2068617368206d69736d61746368000000000000000000000000005f82015250565b5f611c496013836119b4565b9150611c5482611c15565b602082019050919050565b5f6020820190508181035f830152611c7681611c3d565b9050919050565b7f5478206d65726b6c6520726f6f74206d69736d617463680000000000000000005f82015250565b5f611cb16017836119b4565b9150611cbc82611c7d565b602082019050919050565b5f6020820190508181035f830152611cde81611ca5565b9050919050565b7f5478204944206d69736d617463680000000000000000000000000000000000005f82015250565b5f611d19600e836119b4565b9150611d2482611ce5565b602082019050919050565b5f6020820190508181035f830152611d4681611d0d565b9050919050565b7f4e487b71000000000000000000000000000000000000000000000000000000005f52603260045260245ffd5b7f4e487b71000000000000000000000000000000000000000000000000000000005f52602160045260245ffd5b7f496e76616c6964207363726970742074797065000000000000000000000000005f82015250565b5f611ddb6013836119b4565b9150611de682611da7565b602082019050919050565b5f6020820190508181035f830152611e0881611dcf565b9050919050565b7f5363726970742068617368206d69736d617463680000000000000000000000005f82015250565b5f611e436014836119b4565b9150611e4e82611e0f565b602082019050919050565b5f6020820190508181035f830152611e7081611e37565b9050919050565b7f416d6f756e74206d69736d6174636800000000000000000000000000000000005f82015250565b5f611eab600f836119b4565b9150611eb682611e77565b602082019050919050565b5f6020820190508181035f830152611ed881611e9f565b9050919050565b7f4f505f52455455524e2064617461206d69736d617463680000000000000000005f82015250565b5f611f136017836119b4565b9150611f1e82611edf565b602082019050919050565b5f6020820190508181035f830152611f4081611f07565b9050919050565b7f496e76616c696420626c6f636b20686561646572206c656e67746800000000005f82015250565b5f611f7b601b836119b4565b9150611f8682611f47565b602082019050919050565b5f6020820190508181035f830152611fa881611f6f565b9050919050565b5f81905092915050565b828183375f83830152505050565b5f611fd28385611faf565b9350611fdf838584611fb9565b82840190509392505050565b5f611ff7828486611fc7565b91508190509392505050565b5f819050919050565b61201d612018826117cd565b612003565b82525050565b5f61202e828461200c565b60208201915081905092915050565b5f81519050919050565b8281835e5f83830152505050565b5f61205f8261203d565b6120698185611faf565b9350612079818560208601612047565b80840191505092915050565b5f6120908284612055565b915081905092915050565b5f5ffd5b5f5ffd5b5f5f858511156120b6576120b561209b565b5b838611156120c7576120c661209f565b5b6001850283019150848603905094509492505050565b5f82905092915050565b5f82821b905092915050565b5f6120fe83836120dd565b8261210981356117cd565b92506020821015612149576121447fffffffffffffffffffffffffffffffffffffffffffffffffffffffffffffffff836020036008026120e7565b831692505b505092915050565b7f4e487b71000000000000000000000000000000000000000000000000000000005f52601260045260245ffd5b5f61218882611778565b915061219383611778565b9250826121a3576121a2612151565b5b828204905092915050565b5f6121b882611778565b91506121c383611778565b92508282026121d181611778565b915082820484148315176121e8576121e7611a52565b5b5092915050565b5f6121fa828561200c565b60208201915061220a828461200c565b6020820191508190509392505050565b5f7fffffffff0000000000000000000000000000000000000000000000000000000082169050919050565b5f61225083836120dd565b8261225b813561221a565b9250600482101561229b576122967fffffffff00000000000000000000000000000000000000000000000000000000836004036008026120e7565b831692505b505092915050565b7f4e487b71000000000000000000000000000000000000000000000000000000005f52604160045260245ffd5b7f53637269707473206f76657220333420627974657320756e737570706f7274655f8201527f6400000000000000000000000000000000000000000000000000000000000000602082015250565b5f61232a6021836119b4565b9150612335826122d0565b604082019050919050565b5f6020820190508181035f8301526123578161231e565b9050919050565b5f7fffffffffffffffff00000000000000000000000000000000000000000000000082169050919050565b5f61239483836120dd565b8261239f813561235e565b925060088210156123df576123da7fffffffffffffffff000000000000000000000000000000000000000000000000836008036008026120e7565b831692505b505092915050565b5f819050602082019050919050565b5f61240182516117cd565b80915050919050565b5f6124148261203d565b8261241e846123e7565b9050612429816123f6565b92506020821015612469576124647fffffffffffffffffffffffffffffffffffffffffffffffffffffffffffffffff836020036008026120e7565b831692505b5050919050565b5f7fffff00000000000000000000000000000000000000000000000000000000000082169050919050565b5f6124a683836120dd565b826124b18135612470565b925060028210156124f1576124ec7fffff000000000000000000000000000000000000000000000000000000000000836002036008026120e7565b831692505b50509291505056fea26469706673582212206ac6e3ee5968c40108979781a6195d5e741671a49bfe46d5d52865d8fffebbc664736f6c634300081e0033","linkReferences":{}},"methodIdentifiers":{"mirror()":"444d9172","verifyPayment(uint256,uint256,(bytes,bytes32,uint256,bytes,bytes),uint256,bytes32,uint8,uint256,bool,uint256,bytes32)":"a4c04c6f"},"id":10}