{"abi":[{"type":"constructor","inputs":[{"name":"_mirror","type":"address","internalType":"address"}],"stateMutability":"nonpayable"},{"type":"function","name":"mirror","inputs":[],"outputs":[{"name":"","type":"address","internalType":"contract IBtcMirror"}],"stateMutability":"view"},{"type":"function","name":"verifyInclusion","inputs":[{"name":"minConfirmations","type":"uint256","internalType":"uint256"},{"name":"blockNum","type":"uint256","internalType":"uint256"},{"name":"inclusionProof","type":"tuple","internalType":"struct TxInclusionProof","components":[{"name":"blockHeader","type":"bytes","internalType":"bytes"},{"name":"txIndex","type":"uint256","internalType":"uint256"},{"name":"txMerkleProof","type":"bytes","internalType":"bytes"},{"name":"rawTx","type":"bytes","internalType":"bytes"}]}],"outputs":[{"name":"","type":"bool","internalType":"bool"}],"stateMutability":"view"},{"type":"function","name":"verifyPayment","inputs":[{"name":"minConfirmations","type":"uint256","internalType":"uint256"},{"name":"blockNum","type":"uint256","internalType":"uint256"},{"name":"inclusionProof","type":"tuple","internalType":"struct BtcTxProof","components":[{"name":"blockHeader","type":"bytes","internalType":"bytes"},{"name":"txId","type":"bytes32","internalType":"bytes32"},{"name":"txIndex","type":"uint256","internalType":"uint256"},{"name":"txMerkleProof","type":"bytes","internalType":"bytes"},{"name":"rawTx","type":"bytes","internalType":"bytes"}]},{"name":"txOutIx","type":"uint256","internalType":"uint256"},{"name":"destScriptHash","type":"bytes32","internalType":"bytes32"},{"name":"amountSats","type":"uint256","internalType":"uint256"},{"name":"checkOpReturn","type":"bool","internalType":"bool"},{"name":"opReturnOutIx","type":"uint256","internalType":"uint256"},{"name":"opReturnData","type":"bytes32","internalType":"bytes32"}],"outputs":[{"name":"","type":"bool","internalType":"bool"}],"stateMutability":"view"}],"bytecode":{"object":"0x60a03461008057601f61154038819003918201601f19168301916001600160401b038311848410176100845780849260209460405283398101031261008057516001600160a01b03811690819003610080576080526040516114a79081610099823960805181818160a2015281816101b501528181610303015261056b0152f35b5f80fd5b634e487b7160e01b5f52604160045260245ffdfe60806040526004361015610011575f80fd5b5f3560e01c8063444d9172146101a357806354fa54411461003f57638d33873a1461003a575f80fd5b6101e7565b3461019f57606036600319011261019f5760243560043560443567ffffffffffffffff811161019f5780600401916080600319833603011261019f576100859084610553565b604051637741562f60e11b815260048101939093526020836024817f00000000000000000000000000000000000000000000000000000000000000006001600160a01b03165afa90811561019a576100ff6101549261015a955f9161016b575b506100f96100f38680610654565b90610866565b14610687565b61012661012161011c6101156064850187610654565b3691610924565b611171565b611058565b61014c61013c6101368680610654565b906109b7565b9460446024850135940190610654565b9290916109e4565b146106c9565b6040516001815280602081015b0390f35b61018d915060203d602011610193575b6101858183610296565b8101906102b8565b866100e5565b503d61017b565b6102c7565b5f80fd5b3461019f575f36600319011261019f577f00000000000000000000000000000000000000000000000000000000000000006001600160a01b03166080908152602090f35b3461019f5761012036600319011261019f5760243560043560443567ffffffffffffffff811161019f5760a0600319823603011261019f576064359260c43560a435608435821515830361019f576101679661024f9660e435956101043597600401916102d2565b60405190151581529081906020820190565b634e487b7160e01b5f52604160045260245ffd5b60a0810190811067ffffffffffffffff82111761029157604052565b610261565b90601f8019910116810190811067ffffffffffffffff82111761029157604052565b9081602091031261019f575190565b6040513d5f823e3d90fd5b6102e6909897969593989492919485610553565b604051637741562f60e11b815260048101949094526020846024817f00000000000000000000000000000000000000000000000000000000000000006001600160a01b03165afa91821561019a576103ed6103d960606103d06103ca6103fb9661036c67ffffffffffffffff996104029c5f91610451575b506100f96100f38480610654565b6103796101368280610654565b9061039e602082013592610154604084013561039789860186610654565b91876109e4565b6103c560808201926103bf61012161011c6103b98787610654565b9061096a565b14610715565b610654565b90610ca3565b019a8b51610766565b51916040830151602081519101201461077f565b5167ffffffffffffffff1690565b16146107bd565b61040f575b505050600190565b610420610443916104499451610766565b5163ffffffff6040610439602084015163ffffffff1690565b9201519116610ff6565b146107fb565b5f8080610407565b61046a915060203d602011610193576101858183610296565b5f61035e565b634e487b7160e01b5f52601160045260245ffd5b906001820180921161049257565b610470565b906020820180921161049257565b906004820180921161049257565b906008820180921161049257565b906009820180921161049257565b906005820180921161049257565b906003820180921161049257565b9190820180921161049257565b156104ff57565b60405162461bcd60e51b815260206004820152602660248201527f4e6f7420656e6f75676820426974636f696e20626c6f636b20636f6e6669726d6044820152656174696f6e7360d01b6064820152608490fd5b60405163e875aa5d60e01b81529091906020816004817f00000000000000000000000000000000000000000000000000000000000000006001600160a01b03165afa90811561019a575f91610622575b508281106105ca576105c8926105bb6105c192610484565b926104eb565b11156104f8565b565b60405162461bcd60e51b815260206004820152602a60248201527f426974636f696e204d6972726f7220646f65736e27742068617665207468617460448201526908189b1bd8dac81e595d60b21b6064820152608490fd5b90506020813d60201161064c575b8161063d60209383610296565b8101031261019f57515f6105a3565b3d9150610630565b903590601e198136030182121561019f570180359067ffffffffffffffff821161019f5760200191813603831361019f57565b1561068e57565b60405162461bcd60e51b8152602060048201526013602482015272084d8dec6d640d0c2e6d040dad2e6dac2e8c6d606b1b6044820152606490fd5b156106d057565b60405162461bcd60e51b815260206004820152601760248201527f5478206d65726b6c6520726f6f74206d69736d617463680000000000000000006044820152606490fd5b1561071c57565b60405162461bcd60e51b815260206004820152600e60248201526d0a8f040928840dad2e6dac2e8c6d60931b6044820152606490fd5b634e487b7160e01b5f52603260045260245ffd5b805182101561077a5760209160051b010190565b610752565b1561078657565b60405162461bcd60e51b815260206004820152600f60248201526e0a6c6e4d2e0e840dad2e6dac2e8c6d608b1b6044820152606490fd5b156107c457565b60405162461bcd60e51b815260206004820152600f60248201526e082dadeeadce840dad2e6dac2e8c6d608b1b6044820152606490fd5b1561080257565b60405162461bcd60e51b815260206004820152601760248201527f4f505f52455455524e2064617461206d69736d617463680000000000000000006044820152606490fd5b908092918237015f815290565b805191908290602001825e015f815290565b605082036108df576020915f9161088260405180938193610847565b039060025afa1561019a5760205f6108c76108ad6108bb835160405192839187830160209181520190565b03601f198101835282610296565b60405191828092610854565b039060025afa1561019a576108dc5f51611058565b90565b60405162461bcd60e51b815260206004820152601b60248201527f496e76616c696420626c6f636b20686561646572206c656e67746800000000006044820152606490fd5b92919267ffffffffffffffff8211610291576040519161094e601f8201601f191660200184610296565b82948184528183011161019f578281602093845f960137010152565b6108dc913691610924565b9060041161019f5790600490565b9093929384831161019f57841161019f578101920390565b3590602081106109a9575090565b5f199060200360031b1b1690565b906050810361019f5760441161019f576024013590565b908160051b918083046020149015171561049257565b6109f090929192611058565b926109fb8160051c90565b915f915b838310610a0e57505050505090565b9091929394610a7c600191610a4a610121610a44610a2b896109ce565b610a3c610a378b610484565b6109ce565b90888a610983565b9061099b565b90888416610a8657604080516020810192909252810191909152610a759061011c81606081016108ad565b9660011c90565b94930191906109ff565b604080516020810193909352820152610a759061011c81606081016108ad565b60405190610ab382610275565b5f608083828152826020820152606060408201526060808201520152565b356001600160e01b0319811692919060048210610aec575050565b6001600160e01b031960049290920360031b82901b16169150565b67ffffffffffffffff81116102915760051b60200190565b60405190610b2c82610275565b5f6080838281528260208201528260408201528260608201520152565b90610b5382610b07565b610b606040519182610296565b8281528092610b71601f1991610b07565b01905f5b828110610b8157505050565b602090610b8c610b1f565b82828501015201610b75565b15610b9f57565b60405162461bcd60e51b815260206004820152602160248201527f53637269707473206f76657220333420627974657320756e737570706f7274656044820152601960fa1b6064820152608490fd5b604051906060820182811067ffffffffffffffff8211176102915760405260606040835f81525f60208201520152565b90610c2882610b07565b610c356040519182610296565b8281528092610c46601f1991610b07565b01905f5b828110610c5657505050565b602090610c61610bee565b82828501015201610c4a565b356001600160c01b0319811692919060088210610c88575050565b6001600160c01b031960089290920360031b82901b16169150565b90610cac610aa6565b9163ffffffff610d0e610cfe610cd4610cce610cc88787610975565b90610ad1565b60e01c90565b600881811b63ff00ff001691901c62ff00ff1617601081811b63ffff00001691901c61ffff161790565b63ffffffff166020860181905290565b1660018110908115610feb575b50610fe657610d2a82826111ff565b90610d3481610b49565b604086019081525f5b828110610e7157505050610d52908383611331565b9190610d5d81610c1e565b606086019081525f5b828110610db35750505090610da2610d95610cd4610cce610cc8610da7968689610d8f826104a5565b92610983565b63ffffffff166080860152565b6104a5565b036108dc576001815290565b610dbb610bee565b94610dc5816104b3565b610dd190828988610983565b610dda91610c6d565b60c01c610de6906113f7565b67ffffffffffffffff168652610dfb906104b3565b610e06908786611331565b90610e146022821115610b98565b63ffffffff81166020880152610e2a81836104eb565b610e3690838a89610983565b3690610e4192610924565b6040880152610e4f916104eb565b9481835191610e5e8284610766565b52610e6891610766565b50600101610d66565b610e79610b1f565b93610e8381610497565b610e8f90828989610983565b610e989161099b565b610ea190611058565b8552610eac90610497565b610eb5816104a5565b610ec190828989610983565b610eca91610ad1565b60e01c610efb90600881811b63ff00ff001691901c62ff00ff1617601081811b63ffff00001691901c61ffff161790565b63ffffffff166020860152610f0f906104a5565b610f1a908787611331565b90610f286022821115610b98565b63ffffffff81166060870152610f3e81836104eb565b610f4a90838a8a610983565b610f539161099b565b6080870152610f61916104eb565b610f6a816104a5565b610f7690828989610983565b610f7f91610ad1565b60e01c610fb090600881811b63ff00ff001691901c62ff00ff1617601081811b63ffff00001691901c61ffff161790565b63ffffffff166040860152610fc4906104a5565b9381835191610fd38284610766565b52610fdd91610766565b50600101610d3d565b505090565b60029150115f610d1b565b6021190161102d5780511561077a5760208101516001600160f81b031916603560f91b14801590611032575b61102d576022015190565b505f90565b5080516001101561077a5760218101516001600160f81b031916600160fd1b1415611022565b8060081c9060081b907cff000000ff000000ff000000ff000000ff000000ff000000ff000000ff7dff000000ff000000ff000000ff000000ff000000ff000000ff000000ff007fff000000ff000000ff000000ff000000ff000000ff000000ff000000ff00000084167eff000000ff000000ff000000ff000000ff000000ff000000ff000000ff000084161760101c931691161760101b177bffffffff00000000ffffffff00000000ffffffff00000000ffffffff7fffffffff00000000ffffffff00000000ffffffff00000000ffffffff00000000821660201c911660201b1777ffffffffffffffff0000000000000000ffffffffffffffff8019821660401c911660401b1761116d8160801c9160801b90565b1790565b5f61118460209260405191828092610854565b039060025afa1561019a5760205f6111ad815160405190848201528381526108bb604082610296565b039060025afa1561019a575f5190565b9082101561077a570190565b356001600160f01b03198116929190600282106111e4575050565b6001600160f01b031960029290920360031b82901b16169150565b60ff611227611221611213600486866111bd565b356001600160f81b03191690565b60f81c90565b169160fd83101561123f575050906108dc6004610484565b909160fd81036112a1575061127c6112766112706112969461128f946112656004610484565b90610d8f60046104dd565b906111c9565b60f01c90565b60ff61ff008260081b169160081c161790565b61ffff1690565b906108dc60046104dd565b60fe036112e257610cd4610cce610cc86112d7946112ce946112c36004610484565b90610d8f60046104cf565b63ffffffff1690565b906108dc60046104cf565b61131461130e61130861132694611319946112fd6004610484565b90610d8f60046104c1565b90610c6d565b60c01c90565b6113f7565b67ffffffffffffffff1690565b906108dc60046104c1565b9092919260ff6113486112216112138785876111bd565b169060fd82101561135f57506108dc915092610484565b9060fd8103611396575061128f61127c6112766112706108dc95611390956113868a610484565b90610d8f8b6104dd565b926104dd565b60fe036113ca576112ce610cd4610cce610cc86108dc956113c4956113ba8a610484565b90610d8f8b6104cf565b926104cf565b61131961131461130e6113086108dc956113f1956113e78a610484565b90610d8f8b6104c1565b926104c1565b67ffffffffffff000067ff00ff00ff00ff0066ff00ff00ff00ff8360081c169260081b169165ffff0000ffff65ffff0000ff0065ffffffffffff67ffff0000ffff0000861666ff0000ffff000085161760101c16941691161760101b161767ffffffff0000000063ffffffff8260201c169160201b16179056fea26469706673582212209199cbf2aff94e381b9ce8f1a7ba1d4b23a14e7d8b10a60f58928dd61b1c0b9a64736f6c634300081e0033","linkReferences":{}},"methodIdentifiers":{"mirror()":"444d9172","verifyInclusion(uint256,uint256,(bytes,uint256,bytes,bytes))":"54fa5441","verifyPayment(uint256,uint256,(bytes,bytes32,uint256,bytes,bytes),uint256,bytes32,uint256,bool,uint256,bytes32)":"8d33873a"},"storageLayout":{"storage":[],"types":{}},"id":56}