{"abi":[{"type":"constructor","inputs":[{"name":"_mirror","type":"address","internalType":"address"}],"stateMutability":"nonpayable"},{"type":"function","name":"mirror","inputs":[],"outputs":[{"name":"","type":"address","internalType":"contract IBtcMirror"}],"stateMutability":"view"},{"type":"function","name":"verifyInclusion","inputs":[{"name":"minConfirmations","type":"uint256","internalType":"uint256"},{"name":"blockNum","type":"uint256","internalType":"uint256"},{"name":"inclusionProof","type":"tuple","internalType":"struct TxInclusionProof","components":[{"name":"blockHeader","type":"bytes","internalType":"bytes"},{"name":"txIndex","type":"uint256","internalType":"uint256"},{"name":"txMerkleProof","type":"bytes","internalType":"bytes"},{"name":"rawTx","type":"bytes","internalType":"bytes"}]}],"outputs":[{"name":"","type":"bool","internalType":"bool"}],"stateMutability":"view"},{"type":"function","name":"verifyPayment","inputs":[{"name":"minConfirmations","type":"uint256","internalType":"uint256"},{"name":"blockNum","type":"uint256","internalType":"uint256"},{"name":"inclusionProof","type":"tuple","internalType":"struct BtcTxProof","components":[{"name":"blockHeader","type":"bytes","internalType":"bytes"},{"name":"txId","type":"bytes32","internalType":"bytes32"},{"name":"txIndex","type":"uint256","internalType":"uint256"},{"name":"txMerkleProof","type":"bytes","internalType":"bytes"},{"name":"rawTx","type":"bytes","internalType":"bytes"}]},{"name":"txOutIx","type":"uint256","internalType":"uint256"},{"name":"destScript","type":"bytes","internalType":"bytes"},{"name":"amountSats","type":"uint256","internalType":"uint256"},{"name":"checkOpReturn","type":"bool","internalType":"bool"},{"name":"opReturnOutIx","type":"uint256","internalType":"uint256"},{"name":"opReturnData","type":"bytes32","internalType":"bytes32"}],"outputs":[{"name":"","type":"bool","internalType":"bool"}],"stateMutability":"view"}],"bytecode":{"object":"0x60a03461008057601f61159d38819003918201601f19168301916001600160401b038311848410176100845780849260209460405283398101031261008057516001600160a01b03811690819003610080576080526040516115049081610099823960805181818160a1015281816101b40152818161035601526105ce0152f35b5f80fd5b634e487b7160e01b5f52604160045260245ffdfe60806040526004361015610011575f80fd5b5f3560e01c8063444d9172146101a257806354fa54411461003f5763fe596fbc1461003a575f80fd5b610222565b3461019e57606036600319011261019e576024356004356044356001600160401b03811161019e5780600401916080600319833603011261019e5761008490846105b6565b604051637741562f60e11b815260048101939093526020836024817f00000000000000000000000000000000000000000000000000000000000000006001600160a01b03165afa908115610199576100fe61015392610159955f9161016a575b506100f86100f286806106b7565b9061091b565b146106e9565b61012561012061011b61011460648501876106b7565b36916107e1565b6111cf565b6110b6565b61014b61013b61013586806106b7565b90610a18565b94604460248501359401906106b7565b929091610a45565b1461072b565b6040516001815280602081015b0390f35b61018c915060203d602011610192575b61018481836102ea565b81019061030b565b866100e4565b503d61017a565b61031a565b5f80fd5b3461019e575f36600319011261019e577f00000000000000000000000000000000000000000000000000000000000000006001600160a01b03166080908152602090f35b9181601f8401121561019e578235916001600160401b03831161019e576020838186019501011161019e57565b60c43590811515820361019e57565b3461019e5761012036600319011261019e576024356004356044356001600160401b03811161019e5760a0600319823603011261019e5760643592608435926001600160401b03841161019e57610166946102846102a49536906004016101e6565b9060a43592610291610213565b9460e43596610104359860040191610325565b60405190151581529081906020820190565b634e487b7160e01b5f52604160045260245ffd5b60a081019081106001600160401b038211176102e557604052565b6102b6565b90601f801991011681019081106001600160401b038211176102e557604052565b9081602091031261019e575190565b6040513d5f823e3d90fd5b6103399099989796949399959195866105b6565b604051637741562f60e11b815260048101959095526020856024817f00000000000000000000000000000000000000000000000000000000000000006001600160a01b03165afa918215610199576104386001600160401b039461042f6060610426610420610451966103c261045e9a6104659e5f916104b4575b506100f86100f284806106b7565b6103cf61013582806106b7565b906103f460208201359261015360408401356103ed898601866106b7565b9187610a45565b61041b608082019261041561012061011b61040f87876106b7565b90610826565b14610777565b6106b7565b90610d02565b019c8d516107c8565b519336916107e1565b6020815191012060408301516020815191012014610834565b516001600160401b031690565b1614610872565b610472575b505050600190565b6104836104a6916104ac94516107c8565b5163ffffffff604061049c602084015163ffffffff1690565b9201519116611054565b146108b0565b5f808061046a565b6104cd915060203d6020116101925761018481836102ea565b5f6103b4565b634e487b7160e01b5f52601160045260245ffd5b90600182018092116104f557565b6104d3565b90602082018092116104f557565b90600482018092116104f557565b90600882018092116104f557565b90600982018092116104f557565b90600582018092116104f557565b90600382018092116104f557565b919082018092116104f557565b1561056257565b60405162461bcd60e51b815260206004820152602660248201527f4e6f7420656e6f75676820426974636f696e20626c6f636b20636f6e6669726d6044820152656174696f6e7360d01b6064820152608490fd5b60405163e875aa5d60e01b81529091906020816004817f00000000000000000000000000000000000000000000000000000000000000006001600160a01b03165afa908115610199575f91610685575b5082811061062d5761062b9261061e610624926104e7565b9261054e565b111561055b565b565b60405162461bcd60e51b815260206004820152602a60248201527f426974636f696e204d6972726f7220646f65736e27742068617665207468617460448201526908189b1bd8dac81e595d60b21b6064820152608490fd5b90506020813d6020116106af575b816106a0602093836102ea565b8101031261019e57515f610606565b3d9150610693565b903590601e198136030182121561019e57018035906001600160401b03821161019e5760200191813603831361019e57565b156106f057565b60405162461bcd60e51b8152602060048201526013602482015272084d8dec6d640d0c2e6d040dad2e6dac2e8c6d606b1b6044820152606490fd5b1561073257565b60405162461bcd60e51b815260206004820152601760248201527f5478206d65726b6c6520726f6f74206d69736d617463680000000000000000006044820152606490fd5b1561077e57565b60405162461bcd60e51b815260206004820152600e60248201526d0a8f040928840dad2e6dac2e8c6d60931b6044820152606490fd5b634e487b7160e01b5f52603260045260245ffd5b80518210156107dc5760209160051b010190565b6107b4565b9291926001600160401b0382116102e5576040519161080a601f8201601f1916602001846102ea565b82948184528183011161019e578281602093845f960137010152565b6108319136916107e1565b90565b1561083b57565b60405162461bcd60e51b815260206004820152600f60248201526e0a6c6e4d2e0e840dad2e6dac2e8c6d608b1b6044820152606490fd5b1561087957565b60405162461bcd60e51b815260206004820152600f60248201526e082dadeeadce840dad2e6dac2e8c6d608b1b6044820152606490fd5b156108b757565b60405162461bcd60e51b815260206004820152601760248201527f4f505f52455455524e2064617461206d69736d617463680000000000000000006044820152606490fd5b908092918237015f815290565b805191908290602001825e015f815290565b60508203610991576020915f91610937604051809381936108fc565b039060025afa156101995760205f61097c610962610970835160405192839187830160209181520190565b03601f1981018352826102ea565b60405191828092610909565b039060025afa15610199576108315f516110b6565b60405162461bcd60e51b815260206004820152601b60248201527f496e76616c696420626c6f636b20686561646572206c656e67746800000000006044820152606490fd5b9060041161019e5790600490565b9093929384831161019e57841161019e578101920390565b359060208110610a0a575090565b5f199060200360031b1b1690565b906050810361019e5760441161019e576024013590565b908160051b91808304602014901517156104f557565b610a51909291926110b6565b92610a5c8160051c90565b915f915b838310610a6f57505050505090565b9091929394610add600191610aab610120610aa5610a8c89610a2f565b610a9d610a988b6104e7565b610a2f565b90888a6109e4565b906109fc565b90888416610ae757604080516020810192909252810191909152610ad69061011b8160608101610962565b9660011c90565b9493019190610a60565b604080516020810193909352820152610ad69061011b8160608101610962565b60405190610b14826102ca565b5f608083828152826020820152606060408201526060808201520152565b356001600160e01b0319811692919060048210610b4d575050565b6001600160e01b031960049290920360031b82901b16169150565b6001600160401b0381116102e55760051b60200190565b60405190610b8c826102ca565b5f6080838281528260208201528260408201528260608201520152565b90610bb382610b68565b610bc060405191826102ea565b8281528092610bd1601f1991610b68565b01905f5b828110610be157505050565b602090610bec610b7f565b82828501015201610bd5565b15610bff57565b60405162461bcd60e51b815260206004820152602160248201527f53637269707473206f76657220333420627974657320756e737570706f7274656044820152601960fa1b6064820152608490fd5b60405190606082018281106001600160401b038211176102e55760405260606040835f81525f60208201520152565b90610c8782610b68565b610c9460405191826102ea565b8281528092610ca5601f1991610b68565b01905f5b828110610cb557505050565b602090610cc0610c4e565b82828501015201610ca9565b356001600160c01b0319811692919060088210610ce7575050565b6001600160c01b031960089290920360031b82901b16169150565b90610d0b610b07565b9163ffffffff610d6d610d5d610d33610d2d610d2787876109d6565b90610b32565b60e01c90565b600881811b63ff00ff001691901c62ff00ff1617601081811b63ffff00001691901c61ffff161790565b63ffffffff166020860181905290565b1660018110908115611049575b5061104457610d89828261125d565b90610d9381610ba9565b604086019081525f5b828110610ecf57505050610db190838361138e565b9190610dbc81610c7d565b606086019081525f5b828110610e125750505090610e01610df4610d33610d2d610d27610e06968689610dee82610508565b926109e4565b63ffffffff166080860152565b610508565b03610831576001815290565b610e1a610c4e565b94610e2481610516565b610e30908289886109e4565b610e3991610ccc565b60c01c610e4590611454565b6001600160401b03168652610e5990610516565b610e6490878661138e565b90610e726022821115610bf8565b63ffffffff81166020880152610e88818361054e565b610e9490838a896109e4565b3690610e9f926107e1565b6040880152610ead9161054e565b9481835191610ebc82846107c8565b52610ec6916107c8565b50600101610dc5565b610ed7610b7f565b93610ee1816104fa565b610eed908289896109e4565b610ef6916109fc565b610eff906110b6565b8552610f0a906104fa565b610f1381610508565b610f1f908289896109e4565b610f2891610b32565b60e01c610f5990600881811b63ff00ff001691901c62ff00ff1617601081811b63ffff00001691901c61ffff161790565b63ffffffff166020860152610f6d90610508565b610f7890878761138e565b90610f866022821115610bf8565b63ffffffff81166060870152610f9c818361054e565b610fa890838a8a6109e4565b610fb1916109fc565b6080870152610fbf9161054e565b610fc881610508565b610fd4908289896109e4565b610fdd91610b32565b60e01c61100e90600881811b63ff00ff001691901c62ff00ff1617601081811b63ffff00001691901c61ffff161790565b63ffffffff16604086015261102290610508565b938183519161103182846107c8565b5261103b916107c8565b50600101610d9c565b505090565b60029150115f610d7a565b6021190161108b578051156107dc5760208101516001600160f81b031916603560f91b14801590611090575b61108b576022015190565b505f90565b508051600110156107dc5760218101516001600160f81b031916600160fd1b1415611080565b8060081c9060081b907cff000000ff000000ff000000ff000000ff000000ff000000ff000000ff7dff000000ff000000ff000000ff000000ff000000ff000000ff000000ff007fff000000ff000000ff000000ff000000ff000000ff000000ff000000ff00000084167eff000000ff000000ff000000ff000000ff000000ff000000ff000000ff000084161760101c931691161760101b177bffffffff00000000ffffffff00000000ffffffff00000000ffffffff7fffffffff00000000ffffffff00000000ffffffff00000000ffffffff00000000821660201c911660201b1777ffffffffffffffff0000000000000000ffffffffffffffff8019821660401c911660401b176111cb8160801c9160801b90565b1790565b5f6111e260209260405191828092610909565b039060025afa156101995760205f61120b815160405190848201528381526109706040826102ea565b039060025afa15610199575f5190565b908210156107dc570190565b356001600160f01b0319811692919060028210611242575050565b6001600160f01b031960029290920360031b82901b16169150565b60ff61128561127f6112716004868661121b565b356001600160f81b03191690565b60f81c90565b169160fd83101561129d5750509061083160046104e7565b909160fd81036112ff57506112da6112d46112ce6112f4946112ed946112c360046104e7565b90610dee6004610540565b90611227565b60f01c90565b60ff61ff008260081b169160081c161790565b61ffff1690565b906108316004610540565b60fe0361134057610d33610d2d610d276113359461132c9461132160046104e7565b90610dee6004610532565b63ffffffff1690565b906108316004610532565b61137261136c611366611383946113779461135b60046104e7565b90610dee6004610524565b90610ccc565b60c01c90565b611454565b6001600160401b031690565b906108316004610524565b9092919260ff6113a561127f61127187858761121b565b169060fd8210156113bc57506108319150926104e7565b9060fd81036113f357506112ed6112da6112d46112ce610831956113ed956113e38a6104e7565b90610dee8b610540565b92610540565b60fe036114275761132c610d33610d2d610d2761083195611421956114178a6104e7565b90610dee8b610532565b92610532565b61137761137261136c6113666108319561144e956114448a6104e7565b90610dee8b610524565b92610524565b67ffffffffffff000067ff00ff00ff00ff0066ff00ff00ff00ff8360081c169260081b169165ffff0000ffff65ffff0000ff0065ffffffffffff67ffff0000ffff0000861666ff0000ffff000085161760101c16941691161760101b161767ffffffff0000000063ffffffff8260201c169160201b16179056fea26469706673582212202d9d7b2ff731a35f494677a4c5e05cd7429a79d987cb7c2d2e13d210467e13c564736f6c634300081e0033","linkReferences":{}},"methodIdentifiers":{"mirror()":"444d9172","verifyInclusion(uint256,uint256,(bytes,uint256,bytes,bytes))":"54fa5441","verifyPayment(uint256,uint256,(bytes,bytes32,uint256,bytes,bytes),uint256,bytes,uint256,bool,uint256,bytes32)":"fe596fbc"},"storageLayout":{"storage":[],"types":{}},"id":36}