{"abi":[{"type":"constructor","inputs":[{"name":"_mirror","type":"address","internalType":"contract IBtcMirror"}],"stateMutability":"nonpayable"},{"type":"function","name":"mirror","inputs":[],"outputs":[{"name":"","type":"address","internalType":"contract IBtcMirror"}],"stateMutability":"view"},{"type":"function","name":"verifyPayment","inputs":[{"name":"minConfirmations","type":"uint256","internalType":"uint256"},{"name":"blockNum","type":"uint256","internalType":"uint256"},{"name":"inclusionProof","type":"tuple","internalType":"struct BtcTxProof","components":[{"name":"blockHeader","type":"bytes","internalType":"bytes"},{"name":"txId","type":"bytes32","internalType":"bytes32"},{"name":"txIndex","type":"uint256","internalType":"uint256"},{"name":"txMerkleProof","type":"bytes","internalType":"bytes"},{"name":"rawTx","type":"bytes","internalType":"bytes"}]},{"name":"txOutIx","type":"uint256","internalType":"uint256"},{"name":"destScriptHash","type":"bytes32","internalType":"bytes32"},{"name":"amountSats","type":"uint256","internalType":"uint256"},{"name":"checkOpReturn","type":"bool","internalType":"bool"},{"name":"opReturnOutIx","type":"uint256","internalType":"uint256"},{"name":"opReturnData","type":"bytes32","internalType":"bytes32"}],"outputs":[{"name":"","type":"bool","internalType":"bool"}],"stateMutability":"view"}],"bytecode":{"object":"0x60a060405234801561000f575f5ffd5b506040516121fd3803806121fd833981810160405281019061003191906100da565b8073ffffffffffffffffffffffffffffffffffffffff1660808173ffffffffffffffffffffffffffffffffffffffff168152505050610105565b5f5ffd5b5f73ffffffffffffffffffffffffffffffffffffffff82169050919050565b5f6100988261006f565b9050919050565b5f6100a98261008e565b9050919050565b6100b98161009f565b81146100c3575f5ffd5b50565b5f815190506100d4816100b0565b92915050565b5f602082840312156100ef576100ee61006b565b5b5f6100fc848285016100c6565b91505092915050565b6080516120d46101295f395f818160880152818160ae01526101dc01526120d45ff3fe608060405234801561000f575f5ffd5b5060043610610034575f3560e01c8063444d9172146100385780638d33873a14610056575b5f5ffd5b610040610086565b60405161004d9190611452565b60405180910390f35b610070600480360381019061006b9190611530565b6100aa565b60405161007d919061161f565b60405180910390f35b7f000000000000000000000000000000000000000000000000000000000000000081565b5f5f7f000000000000000000000000000000000000000000000000000000000000000073ffffffffffffffffffffffffffffffffffffffff1663e875aa5d6040518163ffffffff1660e01b8152600401602060405180830381865afa158015610115573d5f5f3e3d5ffd5b505050506040513d601f19601f82011682018060405250810190610139919061164c565b90508981101561017e576040517f08c379a0000000000000000000000000000000000000000000000000000000008152600401610175906116f7565b60405180910390fd5b898b61018a9190611742565b6001826101979190611742565b10156101d8576040517f08c379a00000000000000000000000000000000000000000000000000000000081526004016101cf906117e5565b60405180910390fd5b505f7f000000000000000000000000000000000000000000000000000000000000000073ffffffffffffffffffffffffffffffffffffffff1663ee82ac5e8b6040518263ffffffff1660e01b81526004016102339190611812565b602060405180830381865afa15801561024e573d5f5f3e3d5ffd5b505050506040513d601f19601f82011682018060405250810190610272919061183f565b9050610284818a8a8a8a8a8a8a6102d5565b6102c3576040517f08c379a00000000000000000000000000000000000000000000000000000000081526004016102ba906118b4565b60405180910390fd5b60019150509998505050505050505050565b5f886102ee89805f01906102e991906118de565b610592565b1461032e576040517f08c379a00000000000000000000000000000000000000000000000000000000081526004016103259061198a565b60405180910390fd5b5f61034689805f019061034191906118de565b610676565b90505f61036b8a602001358b604001358c806060019061036691906118de565b6106ad565b90508082146103af576040517f08c379a00000000000000000000000000000000000000000000000000000000081526004016103a6906119f2565b60405180910390fd5b89602001356103cc8b80608001906103c791906118de565b6107b9565b1461040c576040517f08c379a000000000000000000000000000000000000000000000000000000000815260040161040390611a5a565b60405180910390fd5b5f6104258b806080019061042091906118de565b61081f565b90505f81606001518b8151811061043f5761043e611a78565b5b602002602001015190505f610462826020015163ffffffff168360400151610d7c565b9050808b146104a6576040517f08c379a000000000000000000000000000000000000000000000000000000000815260040161049d90611aef565b60405180910390fd5b89825f015167ffffffffffffffff16146104f5576040517f08c379a00000000000000000000000000000000000000000000000000000000081526004016104ec90611b57565b60405180910390fd5b881561057d575f8360600151898151811061051357610512611a78565b5b602002602001015190505f610536826020015163ffffffff168360400151610e44565b905088811461057a576040517f08c379a000000000000000000000000000000000000000000000000000000000815260040161057190611bbf565b60405180910390fd5b50505b60019550505050505098975050505050505050565b5f605083839050146105a2575f5ffd5b5f60028085856040516105b6929190611c19565b602060405180830381855afa1580156105d1573d5f5f3e3d5ffd5b5050506040513d601f19601f820116820180604052508101906105f4919061183f565b6040516020016106049190611c51565b6040516020818303038152906040526040516106209190611cb3565b602060405180830381855afa15801561063b573d5f5f3e3d5ffd5b5050506040513d601f19601f8201168201806040525081019061065e919061183f565b905061066b815f1c610f0d565b5f1b91505092915050565b5f60508383905014610686575f5ffd5b828260249060449261069a93929190611cd1565b906106a59190611d21565b905092915050565b5f5f6106ba865f1c610f0d565b5f1b90505f6020858590506106cf9190611dac565b90505f5f90505b818110156107ab575f61072a87876020856106f19190611ddc565b9060206001876107019190611742565b61070b9190611ddc565b9261071893929190611cd1565b906107239190611d21565b5f1c610f0d565b5f1b90505f600189160361076957610762848260405160200161074e929190611e1d565b604051602081830303815290604052610fff565b9350610796565b610793818560405160200161077f929190611e1d565b604051602081830303815290604052610fff565b93505b600188901c97505080806001019150506106d6565b508192505050949350505050565b5f5f61080784848080601f0160208091040260200160405190810160405280939291908181526020018383808284375f81840152601f19601f82011690508083019250505050505050610fff565b9050610814815f1c610f0d565b5f1b91505092915050565b610827611333565b61085083835f9060049261083d93929190611cd1565b906108489190611e73565b60e01c6110c0565b816020019063ffffffff16908163ffffffff16815250506001816020015163ffffffff16108061088a57506002816020015163ffffffff16115b610d76575f600490505f61089f858584611106565b80935081925050508067ffffffffffffffff8111156108c1576108c0611ed1565b5b6040519080825280602002602001820160405280156108fa57816020015b6108e761136d565b8152602001906001900390816108df5790505b5083604001819052505f5f90505b81811015610af75761091861136d565b61094b8787869060208861092c9190611742565b9261093993929190611cd1565b906109449190611d21565b5f1c610f0d565b815f0181815250506020846109609190611742565b9350610996878786906004886109769190611742565b9261098393929190611cd1565b9061098e9190611e73565b60e01c6110c0565b816020019063ffffffff16908163ffffffff16815250506004846109ba9190611742565b93505f6109c8888887611106565b80965081925050506022811115610a14576040517f08c379a0000000000000000000000000000000000000000000000000000000008152600401610a0b90611f6e565b60405180910390fd5b80826060019063ffffffff16908163ffffffff1681525050878786908388610a3c9190611742565b92610a4993929190611cd1565b90610a549190611d21565b8260800181815250508085610a699190611742565b9450610a9f88888790600489610a7f9190611742565b92610a8c93929190611cd1565b90610a979190611e73565b60e01c6110c0565b826040019063ffffffff16908163ffffffff1681525050600485610ac39190611742565b94508186604001518481518110610add57610adc611a78565b5b602002602001018190525050508080600101915050610908565b505f610b04868685611106565b80945081925050508067ffffffffffffffff811115610b2657610b25611ed1565b5b604051908082528060200260200182016040528015610b5f57816020015b610b4c6113a9565b815260200190600190039081610b445790505b5084606001819052505f5f90505b81811015610cf557610b7d6113a9565b610bb188888790600889610b919190611742565b92610b9e93929190611cd1565b90610ba99190611fb7565b60c01c611284565b815f019067ffffffffffffffff16908167ffffffffffffffff1681525050600885610bdc9190611742565b94505f610bea898988611106565b80975081925050506022811115610c36576040517f08c379a0000000000000000000000000000000000000000000000000000000008152600401610c2d90611f6e565b60405180910390fd5b80826020019063ffffffff16908163ffffffff1681525050888887908389610c5e9190611742565b92610c6b93929190611cd1565b8080601f0160208091040260200160405190810160405280939291908181526020018383808284375f81840152601f19601f8201169050808301925050505050505082604001819052508086610cc19190611742565b95508187606001518481518110610cdb57610cda611a78565b5b602002602001018190525050508080600101915050610b6d565b50610d2a86868590600487610d0a9190611742565b92610d1793929190611cd1565b90610d229190611e73565b60e01c6110c0565b846080019063ffffffff16908163ffffffff1681525050600483610d4e9190611742565b9250858590508314610d6257505050610d76565b6001845f0190151590811515815250505050505b92915050565b5f60228314610d8f575f5f1b9050610e3e565b5f60f81b825f81518110610da657610da5611a78565b5b602001015160f81c60f81b7effffffffffffffffffffffffffffffffffffffffffffffffffffffffffffff1916141580610e245750602060f81b82600181518110610df457610df3611a78565b5b602001015160f81c60f81b7effffffffffffffffffffffffffffffffffffffffffffffffffffffffffffff191614155b15610e33575f5f1b9050610e3e565b600260208301015190505b92915050565b5f60228314610e57575f5f1b9050610f07565b606a60f81b825f81518110610e6f57610e6e611a78565b5b602001015160f81c60f81b7effffffffffffffffffffffffffffffffffffffffffffffffffffffffffffff1916141580610eed5750602060f81b82600181518110610ebd57610ebc611a78565b5b602001015160f81c60f81b7effffffffffffffffffffffffffffffffffffffffffffffffffffffffffffff191614155b15610efc575f5f1b9050610f07565b600260208301015190505b92915050565b5f8190505f7fff00ff00ff00ff00ff00ff00ff00ff00ff00ff00ff00ff00ff00ff00ff00ff009050600881198316901b6008828416901c1791505f7fffff0000ffff0000ffff0000ffff0000ffff0000ffff0000ffff0000ffff00009050601081198416901b6010828516901c1792505f7fffffffff00000000ffffffff00000000ffffffff00000000ffffffff000000009050602081198516901b6020828616901c1793505f7fffffffffffffffff0000000000000000ffffffffffffffff00000000000000009050604081198616901b6040828716901c179450608085901b608086901c17945050505050919050565b5f600280836040516110119190611cb3565b602060405180830381855afa15801561102c573d5f5f3e3d5ffd5b5050506040513d601f19601f8201168201806040525081019061104f919061183f565b60405160200161105f9190611c51565b60405160208183030381529060405260405161107b9190611cb3565b602060405180830381855afa158015611096573d5f5f3e3d5ffd5b5050506040513d601f19601f820116820180604052508101906110b9919061183f565b9050919050565b5f819050600862ff00ff821663ffffffff16901b600863ff00ff00831663ffffffff16901c17905060108163ffffffff16901b60108263ffffffff16901c179050919050565b5f5f5f85858581811061111c5761111b611a78565b5b9050013560f81c60f81b60f81c905060fd8160ff161015611151578060ff16925060018461114a9190611742565b915061127b565b60fd8160ff16036111b65761119c868660018761116e9190611742565b9060038861117c9190611742565b9261118993929190611cd1565b906111949190612040565b60f01c611315565b61ffff1692506003846111af9190611742565b915061127a565b60fe8160ff160361121d5761120186866001876111d39190611742565b906005886111e19190611742565b926111ee93929190611cd1565b906111f99190611e73565b60e01c6110c0565b63ffffffff1692506005846112169190611742565b9150611279565b61125d868660018761122f9190611742565b9060098861123d9190611742565b9261124a93929190611cd1565b906112559190611fb7565b60c01c611284565b67ffffffffffffffff1692506009846112769190611742565b91505b5b5b50935093915050565b5f819050600866ff00ff00ff00ff821667ffffffffffffffff16901b600867ff00ff00ff00ff00831667ffffffffffffffff16901c179050601065ffff0000ffff821667ffffffffffffffff16901b601067ffff0000ffff0000831667ffffffffffffffff16901c17905060208167ffffffffffffffff16901b60208267ffffffffffffffff16901c179050919050565b5f81905060088161ffff16901b60088261ffff16901c179050919050565b6040518060a001604052805f151581526020015f63ffffffff16815260200160608152602001606081526020015f63ffffffff1681525090565b6040518060a001604052805f81526020015f63ffffffff1681526020015f63ffffffff1681526020015f63ffffffff1681526020015f81525090565b60405180606001604052805f67ffffffffffffffff1681526020015f63ffffffff168152602001606081525090565b5f73ffffffffffffffffffffffffffffffffffffffff82169050919050565b5f819050919050565b5f61141a611415611410846113d8565b6113f7565b6113d8565b9050919050565b5f61142b82611400565b9050919050565b5f61143c82611421565b9050919050565b61144c81611432565b82525050565b5f6020820190506114655f830184611443565b92915050565b5f5ffd5b5f5ffd5b5f819050919050565b61148581611473565b811461148f575f5ffd5b50565b5f813590506114a08161147c565b92915050565b5f5ffd5b5f60a082840312156114bf576114be6114a6565b5b81905092915050565b5f819050919050565b6114da816114c8565b81146114e4575f5ffd5b50565b5f813590506114f5816114d1565b92915050565b5f8115159050919050565b61150f816114fb565b8114611519575f5ffd5b50565b5f8135905061152a81611506565b92915050565b5f5f5f5f5f5f5f5f5f6101208a8c03121561154e5761154d61146b565b5b5f61155b8c828d01611492565b995050602061156c8c828d01611492565b98505060408a013567ffffffffffffffff81111561158d5761158c61146f565b5b6115998c828d016114aa565b97505060606115aa8c828d01611492565b96505060806115bb8c828d016114e7565b95505060a06115cc8c828d01611492565b94505060c06115dd8c828d0161151c565b93505060e06115ee8c828d01611492565b9250506101006116008c828d016114e7565b9150509295985092959850929598565b611619816114fb565b82525050565b5f6020820190506116325f830184611610565b92915050565b5f815190506116468161147c565b92915050565b5f602082840312156116615761166061146b565b5b5f61166e84828501611638565b91505092915050565b5f82825260208201905092915050565b7f426974636f696e204d6972726f7220646f65736e2774206861766520746861745f8201527f20626c6f636b2079657400000000000000000000000000000000000000000000602082015250565b5f6116e1602a83611677565b91506116ec82611687565b604082019050919050565b5f6020820190508181035f83015261170e816116d5565b9050919050565b7f4e487b71000000000000000000000000000000000000000000000000000000005f52601160045260245ffd5b5f61174c82611473565b915061175783611473565b925082820190508082111561176f5761176e611715565b5b92915050565b7f4e6f7420656e6f75676820426974636f696e20626c6f636b20636f6e6669726d5f8201527f6174696f6e730000000000000000000000000000000000000000000000000000602082015250565b5f6117cf602683611677565b91506117da82611775565b604082019050919050565b5f6020820190508181035f8301526117fc816117c3565b9050919050565b61180c81611473565b82525050565b5f6020820190506118255f830184611803565b92915050565b5f81519050611839816114d1565b92915050565b5f602082840312156118545761185361146b565b5b5f6118618482850161182b565b91505092915050565b7f496e76616c6964207472616e73616374696f6e2070726f6f66000000000000005f82015250565b5f61189e601983611677565b91506118a98261186a565b602082019050919050565b5f6020820190508181035f8301526118cb81611892565b9050919050565b5f5ffd5b5f5ffd5b5f5ffd5b5f5f833560016020038436030381126118fa576118f96118d2565b5b80840192508235915067ffffffffffffffff82111561191c5761191b6118d6565b5b602083019250600182023603831315611938576119376118da565b5b509250929050565b7f426c6f636b2068617368206d69736d61746368000000000000000000000000005f82015250565b5f611974601383611677565b915061197f82611940565b602082019050919050565b5f6020820190508181035f8301526119a181611968565b9050919050565b7f5478206d65726b6c6520726f6f74206d69736d617463680000000000000000005f82015250565b5f6119dc601783611677565b91506119e7826119a8565b602082019050919050565b5f6020820190508181035f830152611a09816119d0565b9050919050565b7f5478204944206d69736d617463680000000000000000000000000000000000005f82015250565b5f611a44600e83611677565b9150611a4f82611a10565b602082019050919050565b5f6020820190508181035f830152611a7181611a38565b9050919050565b7f4e487b71000000000000000000000000000000000000000000000000000000005f52603260045260245ffd5b7f5363726970742068617368206d69736d617463680000000000000000000000005f82015250565b5f611ad9601483611677565b9150611ae482611aa5565b602082019050919050565b5f6020820190508181035f830152611b0681611acd565b9050919050565b7f416d6f756e74206d69736d6174636800000000000000000000000000000000005f82015250565b5f611b41600f83611677565b9150611b4c82611b0d565b602082019050919050565b5f6020820190508181035f830152611b6e81611b35565b9050919050565b7f4f505f52455455524e2064617461206d69736d617463680000000000000000005f82015250565b5f611ba9601783611677565b9150611bb482611b75565b602082019050919050565b5f6020820190508181035f830152611bd681611b9d565b9050919050565b5f81905092915050565b828183375f83830152505050565b5f611c008385611bdd565b9350611c0d838584611be7565b82840190509392505050565b5f611c25828486611bf5565b91508190509392505050565b5f819050919050565b611c4b611c46826114c8565b611c31565b82525050565b5f611c5c8284611c3a565b60208201915081905092915050565b5f81519050919050565b8281835e5f83830152505050565b5f611c8d82611c6b565b611c978185611bdd565b9350611ca7818560208601611c75565b80840191505092915050565b5f611cbe8284611c83565b915081905092915050565b5f5ffd5b5f5ffd5b5f5f85851115611ce457611ce3611cc9565b5b83861115611cf557611cf4611ccd565b5b6001850283019150848603905094509492505050565b5f82905092915050565b5f82821b905092915050565b5f611d2c8383611d0b565b82611d3781356114c8565b92506020821015611d7757611d727fffffffffffffffffffffffffffffffffffffffffffffffffffffffffffffffff83602003600802611d15565b831692505b505092915050565b7f4e487b71000000000000000000000000000000000000000000000000000000005f52601260045260245ffd5b5f611db682611473565b9150611dc183611473565b925082611dd157611dd0611d7f565b5b828204905092915050565b5f611de682611473565b9150611df183611473565b9250828202611dff81611473565b91508282048414831517611e1657611e15611715565b5b5092915050565b5f611e288285611c3a565b602082019150611e388284611c3a565b6020820191508190509392505050565b5f7fffffffff0000000000000000000000000000000000000000000000000000000082169050919050565b5f611e7e8383611d0b565b82611e898135611e48565b92506004821015611ec957611ec47fffffffff0000000000000000000000000000000000000000000000000000000083600403600802611d15565b831692505b505092915050565b7f4e487b71000000000000000000000000000000000000000000000000000000005f52604160045260245ffd5b7f53637269707473206f76657220333420627974657320756e737570706f7274655f8201527f6400000000000000000000000000000000000000000000000000000000000000602082015250565b5f611f58602183611677565b9150611f6382611efe565b604082019050919050565b5f6020820190508181035f830152611f8581611f4c565b9050919050565b5f7fffffffffffffffff00000000000000000000000000000000000000000000000082169050919050565b5f611fc28383611d0b565b82611fcd8135611f8c565b9250600882101561200d576120087fffffffffffffffff00000000000000000000000000000000000000000000000083600803600802611d15565b831692505b505092915050565b5f7fffff00000000000000000000000000000000000000000000000000000000000082169050919050565b5f61204b8383611d0b565b826120568135612015565b92506002821015612096576120917fffff00000000000000000000000000000000000000000000000000000000000083600203600802611d15565b831692505b50509291505056fea264697066735822122042df8786d8d04e5e67c0f3c3ca24fcae46b04e6e9f7398008bb1a776197d6b6864736f6c634300081e0033","linkReferences":{}},"methodIdentifiers":{"mirror()":"444d9172","verifyPayment(uint256,uint256,(bytes,bytes32,uint256,bytes,bytes),uint256,bytes32,uint256,bool,uint256,bytes32)":"8d33873a"},"id":10}