{"abi":[{"type":"constructor","inputs":[{"name":"_mirror","type":"address","internalType":"contract IBtcMirror"}],"stateMutability":"nonpayable"},{"type":"function","name":"mirror","inputs":[],"outputs":[{"name":"","type":"address","internalType":"contract IBtcMirror"}],"stateMutability":"view"},{"type":"function","name":"verifyPayment","inputs":[{"name":"minConfirmations","type":"uint256","internalType":"uint256"},{"name":"blockNum","type":"uint256","internalType":"uint256"},{"name":"inclusionProof","type":"tuple","internalType":"struct BtcTxProof","components":[{"name":"blockHeader","type":"bytes","internalType":"bytes"},{"name":"txId","type":"bytes32","internalType":"bytes32"},{"name":"txIndex","type":"uint256","internalType":"uint256"},{"name":"txMerkleProof","type":"bytes","internalType":"bytes"},{"name":"rawTx","type":"bytes","internalType":"bytes"}]},{"name":"txOutIx","type":"uint256","internalType":"uint256"},{"name":"destScriptHash","type":"bytes32","internalType":"bytes32"},{"name":"amountSats","type":"uint256","internalType":"uint256"},{"name":"checkOpReturn","type":"bool","internalType":"bool"},{"name":"opReturnOutIx","type":"uint256","internalType":"uint256"},{"name":"opReturnData","type":"bytes32","internalType":"bytes32"}],"outputs":[{"name":"","type":"bool","internalType":"bool"}],"stateMutability":"view"}],"bytecode":{"object":"0x60a0604052348015600e575f5ffd5b50604051611421380380611421833981016040819052602b91603b565b6001600160a01b03166080526066565b5f60208284031215604a575f5ffd5b81516001600160a01b0381168114605f575f5ffd5b9392505050565b60805161139761008a5f395f8181603d0152818160a3015261021601526113975ff3fe608060405234801561000f575f5ffd5b5060043610610034575f3560e01c8063444d9172146100385780638d33873a1461007c575b5f5ffd5b61005f7f000000000000000000000000000000000000000000000000000000000000000081565b6040516001600160a01b0390911681526020015b60405180910390f35b61008f61008a366004611095565b61009f565b6040519015158152602001610073565b5f5f7f00000000000000000000000000000000000000000000000000000000000000006001600160a01b031663e875aa5d6040518163ffffffff1660e01b8152600401602060405180830381865afa1580156100fd573d5f5f3e3d5ffd5b505050506040513d601f19601f82011682018060405250810190610121919061112d565b90508981101561018b5760405162461bcd60e51b815260206004820152602a60248201527f426974636f696e204d6972726f7220646f65736e27742068617665207468617460448201526908189b1bd8dac81e595d60b21b60648201526084015b60405180910390fd5b6101958a8c611158565b6101a0826001611158565b10156101fd5760405162461bcd60e51b815260206004820152602660248201527f4e6f7420656e6f75676820426974636f696e20626c6f636b20636f6e6669726d6044820152656174696f6e7360d01b6064820152608401610182565b50604051637741562f60e11b8152600481018a90525f907f00000000000000000000000000000000000000000000000000000000000000006001600160a01b03169063ee82ac5e90602401602060405180830381865afa158015610263573d5f5f3e3d5ffd5b505050506040513d601f19601f82011682018060405250810190610287919061112d565b9050610299818a8a8a8a8a8a8a6102f6565b6102e55760405162461bcd60e51b815260206004820152601960248201527f496e76616c6964207472616e73616374696f6e2070726f6f66000000000000006044820152606401610182565b5060019a9950505050505050505050565b5f8861030a6103058a8061116b565b6105b9565b1461034d5760405162461bcd60e51b8152602060048201526013602482015272084d8dec6d640d0c2e6d040dad2e6dac2e8c6d606b1b6044820152606401610182565b5f61036061035b8a8061116b565b610697565b90505f61038260208b013560408c013561037d60608e018e61116b565b6106c2565b90508082146103d35760405162461bcd60e51b815260206004820152601760248201527f5478206d65726b6c6520726f6f74206d69736d617463680000000000000000006044820152606401610182565b60208a01356103ed6103e860808d018d61116b565b6107a3565b1461042b5760405162461bcd60e51b815260206004820152600e60248201526d0a8f040928840dad2e6dac2e8c6d60931b6044820152606401610182565b5f61044161043c60808d018d61116b565b6107e3565b90505f81606001518b8151811061045a5761045a6111b5565b602002602001015190505f61047d826020015163ffffffff168360400151610cb4565b9050808b146104c55760405162461bcd60e51b81526020600482015260146024820152730a6c6e4d2e0e840d0c2e6d040dad2e6dac2e8c6d60631b6044820152606401610182565b815167ffffffffffffffff168a146105115760405162461bcd60e51b815260206004820152600f60248201526e082dadeeadce840dad2e6dac2e8c6d608b1b6044820152606401610182565b88156105a5575f8360600151898151811061052e5761052e6111b5565b602002602001015190505f610551826020015163ffffffff168360400151610d2e565b90508881146105a25760405162461bcd60e51b815260206004820152601760248201527f4f505f52455455524e2064617461206d69736d617463680000000000000000006044820152606401610182565b50505b5060019d9c50505050505050505050505050565b5f605082146105c6575f5ffd5b5f60028085856040516105da9291906111c9565b602060405180830381855afa1580156105f5573d5f5f3e3d5ffd5b5050506040513d601f19601f82011682018060405250810190610618919061112d565b60405160200161062a91815260200190565b60408051601f1981840301815290829052610644916111d8565b602060405180830381855afa15801561065f573d5f5f3e3d5ffd5b5050506040513d601f19601f82011682018060405250810190610682919061112d565b905061068d81610d81565b9150505b92915050565b5f605082146106a4575f5ffd5b6106b26044602484866111ee565b6106bb91611215565b9392505050565b5f806106cd86610d81565b90505f6106db602085611232565b90505f5b81811015610797575f61072a87876106f8856020611251565b90610704866001611158565b61070f906020611251565b9261071c939291906111ee565b61072591611215565b610d81565b9050600188165f0361076a576040805160208101869052908101829052610763906060015b604051602081830303815290604052610ebf565b935061078a565b60408051602081018390529081018590526107879060600161074f565b93505b50600196871c96016106df565b50909695505050505050565b5f5f61068284848080601f0160208091040260200160405190810160405280939291908181526020018383808284375f92019190915250610ebf92505050565b6108206040518060a001604052805f151581526020015f63ffffffff16815260200160608152602001606081526020015f63ffffffff1681525090565b61085f61083060045f85876111ee565b61083991611268565b60d881901c63ff00ff001662ff00ff60e89290921c9190911617601081811b91901c1790565b63ffffffff16602082018190526001118061088457506002816020015163ffffffff16115b6106915760045f610896858584610f79565b925090508067ffffffffffffffff8111156108b3576108b36112a0565b60405190808252806020026020018201604052801561090a57816020015b6040805160a0810182525f808252602080830182905292820181905260608201819052608082015282525f199092019101816108d15790505b5060408401525f5b81811015610a60576040805160a0810182525f8082526020820181905291810182905260608101829052608081019190915261095587858861070f826020611158565b8152610962602085611158565b9350610982878588610975826004611158565b92610830939291906111ee565b63ffffffff166020820152610998600485611158565b93505f6109a6888887610f79565b9550905060228111156109cb5760405162461bcd60e51b8152600401610182906112b4565b63ffffffff811660608301528785886109e48483611158565b926109f1939291906111ee565b6109fa91611215565b6080830152610a098186611158565b9450610a1c888689610975826004611158565b63ffffffff166040830152610a32600486611158565b94508186604001518481518110610a4b57610a4b6111b5565b60209081029190910101525050600101610912565b505f610a6d868685610f79565b935090508067ffffffffffffffff811115610a8a57610a8a6112a0565b604051908082528060200260200182016040528015610ad657816020015b60408051606080820183525f808352602083015291810191909152815260200190600190039081610aa85790505b5060608501525f5b81811015610c6e5760408051606080820183525f808352602083015291810191909152610b8e888689610b12826008611158565b92610b1f939291906111ee565b610b28916112f5565b60c01c65ff000000ff00600882811b91821664ff000000ff9390911c92831617601090811b67ff000000ff0000009290921666ff000000ff0000939093169290921790911c17602081811b6bffffffffffffffff000000001691901c63ffffffff161790565b67ffffffffffffffff168152610ba5600886611158565b94505f610bb3898988610f79565b965090506022811115610bd85760405162461bcd60e51b8152600401610182906112b4565b63ffffffff81166020830152888689610bf18483611158565b92610bfe939291906111ee565b8080601f0160208091040260200160405190810160405280939291908181526020018383808284375f920191909152505050506040830152610c408187611158565b95508187606001518481518110610c5957610c596111b5565b60209081029190910101525050600101610ade565b50610c80868487610975826004611158565b63ffffffff166080850152610c96600484611158565b9250848314610ca757505050610691565b5050600182525092915050565b5f82602214610cc457505f610691565b815f81518110610cd657610cd66111b5565b01602001516001600160f81b031916151580610d18575081600181518110610d0057610d006111b5565b6020910101516001600160f81b031916600160fd1b14155b15610d2457505f610691565b5060220151919050565b5f6002831015610d3f57505f610691565b815f81518110610d5157610d516111b5565b6020910101516001600160f81b031916603560f91b141580610d18575081600181518110610d0057610d006111b5565b7bffffffff000000000000000000000000ffffffff00000000000000007eff000000ff000000ff000000ff000000ff000000ff000000ff000000ff0000600883811c9182167fff000000ff000000ff000000ff000000ff000000ff000000ff000000ff0000009490911b93841617601090811c7cff000000ff000000ff000000ff000000ff000000ff000000ff000000ff9092167dff000000ff000000ff000000ff000000ff000000ff000000ff000000ff009094169390931790921b91909117602081811c9283167fffffffff000000000000000000000000ffffffff0000000000000000000000009290911b91821617604090811c73ffffffff000000000000000000000000ffffffff90931677ffffffff000000000000000000000000ffffffff0000000090921691909117901b17608081811c91901b1790565b5f60028083604051610ed191906111d8565b602060405180830381855afa158015610eec573d5f5f3e3d5ffd5b5050506040513d601f19601f82011682018060405250810190610f0f919061112d565b604051602001610f2191815260200190565b60408051601f1981840301815290829052610f3b916111d8565b602060405180830381855afa158015610f56573d5f5f3e3d5ffd5b5050506040513d601f19601f82011682018060405250810190610691919061112d565b5f5f5f858585818110610f8e57610f8e6111b5565b919091013560f81c91505060fd811015610fba5760ff81169250610fb3846001611158565b915061108c565b8060ff1660fd0361101c5761100b8686610fd5876001611158565b90610fe1886003611158565b92610fee939291906111ee565b610ff79161132b565b60e881901c62ffff001660f89190911c1790565b61ffff169250610fb3846003611158565b8060ff1660fe03611056576110438686611037876001611158565b90610975886005611158565b63ffffffff169250610fb3846005611158565b6110728686611066876001611158565b90610b12886009611158565b67ffffffffffffffff169250611089846009611158565b91505b50935093915050565b5f5f5f5f5f5f5f5f5f6101208a8c0312156110ae575f5ffd5b8935985060208a0135975060408a013567ffffffffffffffff8111156110d2575f5ffd5b8a0160a0818d0312156110e3575f5ffd5b965060608a0135955060808a0135945060a08a0135935060c08a0135801515811461110c575f5ffd5b989b979a50959894979396929550929360e081013593506101000135919050565b5f6020828403121561113d575f5ffd5b5051919050565b634e487b7160e01b5f52601160045260245ffd5b8082018082111561069157610691611144565b5f5f8335601e19843603018112611180575f5ffd5b83018035915067ffffffffffffffff82111561119a575f5ffd5b6020019150368190038213156111ae575f5ffd5b9250929050565b634e487b7160e01b5f52603260045260245ffd5b818382375f9101908152919050565b5f82518060208501845e5f920191825250919050565b5f5f858511156111fc575f5ffd5b83861115611208575f5ffd5b5050820193919092039150565b80356020831015610691575f19602084900360031b1b1692915050565b5f8261124c57634e487b7160e01b5f52601260045260245ffd5b500490565b808202811582820484141761069157610691611144565b80356001600160e01b03198116906004841015611299576001600160e01b0319600485900360031b81901b82161691505b5092915050565b634e487b7160e01b5f52604160045260245ffd5b60208082526021908201527f53637269707473206f76657220333420627974657320756e737570706f7274656040820152601960fa1b606082015260800190565b80356001600160c01b03198116906008841015611299576001600160c01b031960089490940360031b84901b1690921692915050565b80356001600160f01b03198116906002841015611299576001600160f01b031960029490940360031b84901b169092169291505056fea2646970667358221220bf0e28e6c86f1b4b14c9f4258324db4f8e505e0a23b16901b2040aa77a73d71964736f6c634300081c0033","linkReferences":{}},"methodIdentifiers":{"mirror()":"444d9172","verifyPayment(uint256,uint256,(bytes,bytes32,uint256,bytes,bytes),uint256,bytes32,uint256,bool,uint256,bytes32)":"8d33873a"},"id":9}