{"abi":[{"type":"constructor","inputs":[{"name":"_mirror","type":"address","internalType":"contract IBtcMirror"}],"stateMutability":"nonpayable"},{"type":"function","name":"mirror","inputs":[],"outputs":[{"name":"","type":"address","internalType":"contract IBtcMirror"}],"stateMutability":"view"},{"type":"function","name":"verifyPayment","inputs":[{"name":"minConfirmations","type":"uint256","internalType":"uint256"},{"name":"blockNum","type":"uint256","internalType":"uint256"},{"name":"inclusionProof","type":"tuple","internalType":"struct BtcTxProof","components":[{"name":"blockHeader","type":"bytes","internalType":"bytes"},{"name":"txId","type":"bytes32","internalType":"bytes32"},{"name":"txIndex","type":"uint256","internalType":"uint256"},{"name":"txMerkleProof","type":"bytes","internalType":"bytes"},{"name":"rawTx","type":"bytes","internalType":"bytes"}]},{"name":"txOutIx","type":"uint256","internalType":"uint256"},{"name":"destScriptHash","type":"bytes32","internalType":"bytes32"},{"name":"amountSats","type":"uint256","internalType":"uint256"}],"outputs":[{"name":"","type":"bool","internalType":"bool"}],"stateMutability":"view"}],"bytecode":{"object":"0x60a0604052348015600f57600080fd5b50604051611378380380611378833981016040819052602c91603c565b6001600160a01b0316608052606a565b600060208284031215604d57600080fd5b81516001600160a01b0381168114606357600080fd5b9392505050565b6080516112e76100916000396000818160400152818160a7015261021d01526112e76000f3fe608060405234801561001057600080fd5b50600436106100365760003560e01c8063444d91721461003b578063e305efd11461007f575b600080fd5b6100627f000000000000000000000000000000000000000000000000000000000000000081565b6040516001600160a01b0390911681526020015b60405180910390f35b61009261008d366004610fdf565b6100a2565b6040519015158152602001610076565b6000807f00000000000000000000000000000000000000000000000000000000000000006001600160a01b031663e875aa5d6040518163ffffffff1660e01b8152600401602060405180830381865afa158015610103573d6000803e3d6000fd5b505050506040513d601f19601f820116820180604052508101906101279190611050565b9050868110156101915760405162461bcd60e51b815260206004820152602a60248201527f426974636f696e204d6972726f7220646f65736e27742068617665207468617460448201526908189b1bd8dac81e595d60b21b60648201526084015b60405180910390fd5b61019b878961107f565b6101a682600161107f565b10156102035760405162461bcd60e51b815260206004820152602660248201527f4e6f7420656e6f75676820426974636f696e20626c6f636b20636f6e6669726d6044820152656174696f6e7360d01b6064820152608401610188565b50604051637741562f60e11b8152600481018790526000907f00000000000000000000000000000000000000000000000000000000000000006001600160a01b03169063ee82ac5e90602401602060405180830381865afa15801561026c573d6000803e3d6000fd5b505050506040513d601f19601f820116820180604052508101906102909190611050565b905061029f81878787876102f9565b6102eb5760405162461bcd60e51b815260206004820152601960248201527f496e76616c6964207472616e73616374696f6e2070726f6f66000000000000006044820152606401610188565b506001979650505050505050565b60008561030e6103098780611092565b61052b565b146103515760405162461bcd60e51b8152602060048201526013602482015272084d8dec6d640d0c2e6d040dad2e6dac2e8c6d606b1b6044820152606401610188565b60006103656103608780611092565b610610565b905060006103886020880135604089013561038360608b018b611092565b61063d565b90508082146103d95760405162461bcd60e51b815260206004820152601760248201527f5478206d65726b6c6520726f6f74206d69736d617463680000000000000000006044820152606401610188565b60208701356103f36103ee60808a018a611092565b610723565b146104315760405162461bcd60e51b815260206004820152600e60248201526d0a8f040928840dad2e6dac2e8c6d60931b6044820152606401610188565b600061044861044360808a018a611092565b610765565b9050600081606001518881518110610462576104626110e0565b602002602001015190506000610486826020015163ffffffff168360400151610c46565b90508088146104ce5760405162461bcd60e51b81526020600482015260146024820152730a6c6e4d2e0e840d0c2e6d040dad2e6dac2e8c6d60631b6044820152606401610188565b815167ffffffffffffffff16871461051a5760405162461bcd60e51b815260206004820152600f60248201526e082dadeeadce840dad2e6dac2e8c6d608b1b6044820152606401610188565b5060019a9950505050505050505050565b60006050821461053a57600080fd5b6000600280858560405161054f9291906110f6565b602060405180830381855afa15801561056c573d6000803e3d6000fd5b5050506040513d601f19601f8201168201806040525081019061058f9190611050565b6040516020016105a191815260200190565b60408051601f19818403018152908290526105bb91611106565b602060405180830381855afa1580156105d8573d6000803e3d6000fd5b5050506040513d601f19601f820116820180604052508101906105fb9190611050565b905061060681610cc4565b9150505b92915050565b60006050821461061f57600080fd5b61062d604460248486611135565b6106369161115f565b9392505050565b60008061064986610cc4565b9050600061065860208561117d565b905060005b818110156107175760006106a9878761067785602061119f565b9061068386600161107f565b61068e90602061119f565b9261069b93929190611135565b6106a49161115f565b610cc4565b9050600188166000036106ea5760408051602081018690529081018290526106e3906060015b604051602081830303815290604052610e02565b935061070a565b6040805160208101839052908101859052610707906060016106cf565b93505b50600196871c960161065d565b50909695505050505050565b6000806105fb84848080601f016020809104026020016040519081016040528093929190818152602001838380828437600092019190915250610e0292505050565b6107a56040518060a00160405280600015158152602001600063ffffffff1681526020016060815260200160608152602001600063ffffffff1681525090565b6107e56107b6600460008587611135565b6107bf916111b6565b60d881901c63ff00ff001662ff00ff60e89290921c9190911617601081811b91901c1790565b63ffffffff16602082018190526001118061080a57506002816020015163ffffffff16115b61060a576004600061081d858584610ec1565b925090508067ffffffffffffffff81111561083a5761083a6111ee565b60405190808252806020026020018201604052801561089357816020015b6040805160a0810182526000808252602080830182905292820181905260608201819052608082015282526000199092019101816108585790505b50604084015260005b818110156109ec576040805160a0810182526000808252602082018190529181018290526060810182905260808101919091526108e087858861068e82602061107f565b81526108ed60208561107f565b935061090d87858861090082600461107f565b926107b693929190611135565b63ffffffff16602082015261092360048561107f565b93506000610932888887610ec1565b9550905060208111156109575760405162461bcd60e51b815260040161018890611204565b63ffffffff81166060830152878588610970848361107f565b9261097d93929190611135565b6109869161115f565b6080830152610995818661107f565b94506109a888868961090082600461107f565b63ffffffff1660408301526109be60048661107f565b945081866040015184815181106109d7576109d76110e0565b6020908102919091010152505060010161089c565b5060006109fa868685610ec1565b935090508067ffffffffffffffff811115610a1757610a176111ee565b604051908082528060200260200182016040528015610a6457816020015b60408051606080820183526000808352602083015291810191909152815260200190600190039081610a355790505b50606085015260005b81811015610c005760408051606080820183526000808352602083015291810191909152610b1e888689610aa282600861107f565b92610aaf93929190611135565b610ab891611245565b60c01c65ff000000ff00600882811b91821664ff000000ff9390911c92831617601090811b67ff000000ff0000009290921666ff000000ff0000939093169290921790911c17602081811b6bffffffffffffffff000000001691901c63ffffffff161790565b67ffffffffffffffff168152610b3560088661107f565b94506000610b44898988610ec1565b965090506020811115610b695760405162461bcd60e51b815260040161018890611204565b63ffffffff81166020830152888689610b82848361107f565b92610b8f93929190611135565b8080601f0160208091040260200160405190810160405280939291908181526020018383808284376000920191909152505050506040830152610bd2818761107f565b95508187606001518481518110610beb57610beb6110e0565b60209081029190910101525050600101610a6d565b50610c1286848761090082600461107f565b63ffffffff166080850152610c2860048461107f565b9250848314610c395750505061060a565b5050600182525092915050565b600082602214610c585750600061060a565b81600081518110610c6b57610c6b6110e0565b01602001516001600160f81b031916151580610cad575081600181518110610c9557610c956110e0565b6020910101516001600160f81b031916600160fd1b14155b15610cba5750600061060a565b5060220151919050565b7bffffffff000000000000000000000000ffffffff00000000000000007eff000000ff000000ff000000ff000000ff000000ff000000ff000000ff0000600883811c9182167fff000000ff000000ff000000ff000000ff000000ff000000ff000000ff0000009490911b93841617601090811c7cff000000ff000000ff000000ff000000ff000000ff000000ff000000ff9092167dff000000ff000000ff000000ff000000ff000000ff000000ff000000ff009094169390931790921b91909117602081811c9283167fffffffff000000000000000000000000ffffffff0000000000000000000000009290911b91821617604090811c73ffffffff000000000000000000000000ffffffff90931677ffffffff000000000000000000000000ffffffff0000000090921691909117901b17608081811c91901b1790565b600060028083604051610e159190611106565b602060405180830381855afa158015610e32573d6000803e3d6000fd5b5050506040513d601f19601f82011682018060405250810190610e559190611050565b604051602001610e6791815260200190565b60408051601f1981840301815290829052610e8191611106565b602060405180830381855afa158015610e9e573d6000803e3d6000fd5b5050506040513d601f19601f8201168201806040525081019061060a9190611050565b6000806000858585818110610ed857610ed86110e0565b919091013560f81c91505060fd811015610f045760ff81169250610efd84600161107f565b9150610fd6565b8060ff1660fd03610f6657610f558686610f1f87600161107f565b90610f2b88600361107f565b92610f3893929190611135565b610f419161127b565b60e881901c62ffff001660f89190911c1790565b61ffff169250610efd84600361107f565b8060ff1660fe03610fa057610f8d8686610f8187600161107f565b9061090088600561107f565b63ffffffff169250610efd84600561107f565b610fbc8686610fb087600161107f565b90610aa288600961107f565b67ffffffffffffffff169250610fd384600961107f565b91505b50935093915050565b60008060008060008060c08789031215610ff857600080fd5b8635955060208701359450604087013567ffffffffffffffff81111561101d57600080fd5b870160a0818a03121561102f57600080fd5b959894975094956060810135955060808101359460a0909101359350915050565b60006020828403121561106257600080fd5b5051919050565b634e487b7160e01b600052601160045260246000fd5b8082018082111561060a5761060a611069565b6000808335601e198436030181126110a957600080fd5b83018035915067ffffffffffffffff8211156110c457600080fd5b6020019150368190038213156110d957600080fd5b9250929050565b634e487b7160e01b600052603260045260246000fd5b8183823760009101908152919050565b6000825160005b81811015611127576020818601810151858301520161110d565b506000920191825250919050565b6000808585111561114557600080fd5b8386111561115257600080fd5b5050820193919092039150565b8035602083101561060a57600019602084900360031b1b1692915050565b60008261119a57634e487b7160e01b600052601260045260246000fd5b500490565b808202811582820484141761060a5761060a611069565b80356001600160e01b031981169060048410156111e7576001600160e01b0319600485900360031b81901b82161691505b5092915050565b634e487b7160e01b600052604160045260246000fd5b60208082526021908201527f53637269707473206f76657220333220627974657320756e737570706f7274656040820152601960fa1b606082015260800190565b80356001600160c01b031981169060088410156111e7576001600160c01b031960089490940360031b84901b1690921692915050565b80356001600160f01b031981169060028410156111e7576001600160f01b031960029490940360031b84901b169092169291505056fea2646970667358221220b16d6d3580337151c6f5b1609dc65b72a87b967c48f2fd6667330dfb1eec696064736f6c634300081b0033","linkReferences":{}},"methodIdentifiers":{"mirror()":"444d9172","verifyPayment(uint256,uint256,(bytes,bytes32,uint256,bytes,bytes),uint256,bytes32,uint256)":"e305efd1"},"id":10}